{
  "_format": "hh-sol-artifact-1",
  "contractName": "CDKValidium",
  "sourceName": "contracts/CDKValidium.sol",
  "abi": [
    {
      "inputs": [
        {
          "internalType": "contract IPolygonZkEVMGlobalExitRoot",
          "name": "_globalExitRootManager",
          "type": "address"
        },
        {
          "internalType": "contract IERC20Upgradeable",
          "name": "_matic",
          "type": "address"
        },
        {
          "internalType": "contract IVerifierRollup",
          "name": "_rollupVerifier",
          "type": "address"
        },
        {
          "internalType": "contract IPolygonZkEVMBridge",
          "name": "_bridgeAddress",
          "type": "address"
        },
        {
          "internalType": "contract ICDKDataCommittee",
          "name": "_dataCommitteeAddress",
          "type": "address"
        },
        {
          "internalType": "uint64",
          "name": "_chainID",
          "type": "uint64"
        },
        {
          "internalType": "uint64",
          "name": "_forkID",
          "type": "uint64"
        }
      ],
      "stateMutability": "nonpayable",
      "type": "constructor"
    },
    {
      "inputs": [],
      "name": "BatchAlreadyVerified",
      "type": "error"
    },
    {
      "inputs": [],
      "name": "BatchNotSequencedOrNotSequenceEnd",
      "type": "error"
    },
    {
      "inputs": [],
      "name": "ExceedMaxVerifyBatches",
      "type": "error"
    },
    {
      "inputs": [],
      "name": "FinalNumBatchBelowLastVerifiedBatch",
      "type": "error"
    },
    {
      "inputs": [],
      "name": "FinalNumBatchDoesNotMatchPendingState",
      "type": "error"
    },
    {
      "inputs": [],
      "name": "FinalPendingStateNumInvalid",
      "type": "error"
    },
    {
      "inputs": [],
      "name": "ForceBatchNotAllowed",
      "type": "error"
    },
    {
      "inputs": [],
      "name": "ForceBatchTimeoutNotExpired",
      "type": "error"
    },
    {
      "inputs": [],
      "name": "ForceBatchesAlreadyActive",
      "type": "error"
    },
    {
      "inputs": [],
      "name": "ForceBatchesOverflow",
      "type": "error"
    },
    {
      "inputs": [],
      "name": "ForcedDataDoesNotMatch",
      "type": "error"
    },
    {
      "inputs": [],
      "name": "GlobalExitRootNotExist",
      "type": "error"
    },
    {
      "inputs": [],
      "name": "HaltTimeoutNotExpired",
      "type": "error"
    },
    {
      "inputs": [],
      "name": "InitNumBatchAboveLastVerifiedBatch",
      "type": "error"
    },
    {
      "inputs": [],
      "name": "InitNumBatchDoesNotMatchPendingState",
      "type": "error"
    },
    {
      "inputs": [],
      "name": "InvalidProof",
      "type": "error"
    },
    {
      "inputs": [],
      "name": "InvalidRangeBatchTimeTarget",
      "type": "error"
    },
    {
      "inputs": [],
      "name": "InvalidRangeForceBatchTimeout",
      "type": "error"
    },
    {
      "inputs": [],
      "name": "InvalidRangeMultiplierBatchFee",
      "type": "error"
    },
    {
      "inputs": [],
      "name": "NewAccInputHashDoesNotExist",
      "type": "error"
    },
    {
      "inputs": [],
      "name": "NewPendingStateTimeoutMustBeLower",
      "type": "error"
    },
    {
      "inputs": [],
      "name": "NewStateRootNotInsidePrime",
      "type": "error"
    },
    {
      "inputs": [],
      "name": "NewTrustedAggregatorTimeoutMustBeLower",
      "type": "error"
    },
    {
      "inputs": [],
      "name": "NotEnoughMaticAmount",
      "type": "error"
    },
    {
      "inputs": [],
      "name": "OldAccInputHashDoesNotExist",
      "type": "error"
    },
    {
      "inputs": [],
      "name": "OldStateRootDoesNotExist",
      "type": "error"
    },
    {
      "inputs": [],
      "name": "OnlyAdmin",
      "type": "error"
    },
    {
      "inputs": [],
      "name": "OnlyEmergencyState",
      "type": "error"
    },
    {
      "inputs": [],
      "name": "OnlyNotEmergencyState",
      "type": "error"
    },
    {
      "inputs": [],
      "name": "OnlyPendingAdmin",
      "type": "error"
    },
    {
      "inputs": [],
      "name": "OnlyTrustedAggregator",
      "type": "error"
    },
    {
      "inputs": [],
      "name": "OnlyTrustedSequencer",
      "type": "error"
    },
    {
      "inputs": [],
      "name": "PendingStateDoesNotExist",
      "type": "error"
    },
    {
      "inputs": [],
      "name": "PendingStateInvalid",
      "type": "error"
    },
    {
      "inputs": [],
      "name": "PendingStateNotConsolidable",
      "type": "error"
    },
    {
      "inputs": [],
      "name": "PendingStateTimeoutExceedHaltAggregationTimeout",
      "type": "error"
    },
    {
      "inputs": [],
      "name": "SequenceZeroBatches",
      "type": "error"
    },
    {
      "inputs": [],
      "name": "SequencedTimestampBelowForcedTimestamp",
      "type": "error"
    },
    {
      "inputs": [],
      "name": "SequencedTimestampInvalid",
      "type": "error"
    },
    {
      "inputs": [],
      "name": "StoredRootMustBeDifferentThanNewRoot",
      "type": "error"
    },
    {
      "inputs": [],
      "name": "TransactionsLengthAboveMax",
      "type": "error"
    },
    {
      "inputs": [],
      "name": "TrustedAggregatorTimeoutExceedHaltAggregationTimeout",
      "type": "error"
    },
    {
      "inputs": [],
      "name": "TrustedAggregatorTimeoutNotExpired",
      "type": "error"
    },
    {
      "anonymous": false,
      "inputs": [
        {
          "indexed": false,
          "internalType": "address",
          "name": "newAdmin",
          "type": "address"
        }
      ],
      "name": "AcceptAdminRole",
      "type": "event"
    },
    {
      "anonymous": false,
      "inputs": [],
      "name": "ActivateForceBatches",
      "type": "event"
    },
    {
      "anonymous": false,
      "inputs": [
        {
          "indexed": true,
          "internalType": "uint64",
          "name": "numBatch",
          "type": "uint64"
        },
        {
          "indexed": false,
          "internalType": "bytes32",
          "name": "stateRoot",
          "type": "bytes32"
        },
        {
          "indexed": true,
          "internalType": "uint64",
          "name": "pendingStateNum",
          "type": "uint64"
        }
      ],
      "name": "ConsolidatePendingState",
      "type": "event"
    },
    {
      "anonymous": false,
      "inputs": [],
      "name": "EmergencyStateActivated",
      "type": "event"
    },
    {
      "anonymous": false,
      "inputs": [],
      "name": "EmergencyStateDeactivated",
      "type": "event"
    },
    {
      "anonymous": false,
      "inputs": [
        {
          "indexed": true,
          "internalType": "uint64",
          "name": "forceBatchNum",
          "type": "uint64"
        },
        {
          "indexed": false,
          "internalType": "bytes32",
          "name": "lastGlobalExitRoot",
          "type": "bytes32"
        },
        {
          "indexed": false,
          "internalType": "address",
          "name": "sequencer",
          "type": "address"
        },
        {
          "indexed": false,
          "internalType": "bytes",
          "name": "transactions",
          "type": "bytes"
        }
      ],
      "name": "ForceBatch",
      "type": "event"
    },
    {
      "anonymous": false,
      "inputs": [
        {
          "indexed": false,
          "internalType": "uint8",
          "name": "version",
          "type": "uint8"
        }
      ],
      "name": "Initialized",
      "type": "event"
    },
    {
      "anonymous": false,
      "inputs": [
        {
          "indexed": true,
          "internalType": "uint64",
          "name": "numBatch",
          "type": "uint64"
        },
        {
          "indexed": false,
          "internalType": "bytes32",
          "name": "stateRoot",
          "type": "bytes32"
        },
        {
          "indexed": true,
          "internalType": "address",
          "name": "aggregator",
          "type": "address"
        }
      ],
      "name": "OverridePendingState",
      "type": "event"
    },
    {
      "anonymous": false,
      "inputs": [
        {
          "indexed": true,
          "internalType": "address",
          "name": "previousOwner",
          "type": "address"
        },
        {
          "indexed": true,
          "internalType": "address",
          "name": "newOwner",
          "type": "address"
        }
      ],
      "name": "OwnershipTransferred",
      "type": "event"
    },
    {
      "anonymous": false,
      "inputs": [
        {
          "indexed": false,
          "internalType": "bytes32",
          "name": "storedStateRoot",
          "type": "bytes32"
        },
        {
          "indexed": false,
          "internalType": "bytes32",
          "name": "provedStateRoot",
          "type": "bytes32"
        }
      ],
      "name": "ProveNonDeterministicPendingState",
      "type": "event"
    },
    {
      "anonymous": false,
      "inputs": [
        {
          "indexed": true,
          "internalType": "uint64",
          "name": "numBatch",
          "type": "uint64"
        }
      ],
      "name": "SequenceBatches",
      "type": "event"
    },
    {
      "anonymous": false,
      "inputs": [
        {
          "indexed": true,
          "internalType": "uint64",
          "name": "numBatch",
          "type": "uint64"
        }
      ],
      "name": "SequenceForceBatches",
      "type": "event"
    },
    {
      "anonymous": false,
      "inputs": [
        {
          "indexed": false,
          "internalType": "uint64",
          "name": "newforceBatchTimeout",
          "type": "uint64"
        }
      ],
      "name": "SetForceBatchTimeout",
      "type": "event"
    },
    {
      "anonymous": false,
      "inputs": [
        {
          "indexed": false,
          "internalType": "uint16",
          "name": "newMultiplierBatchFee",
          "type": "uint16"
        }
      ],
      "name": "SetMultiplierBatchFee",
      "type": "event"
    },
    {
      "anonymous": false,
      "inputs": [
        {
          "indexed": false,
          "internalType": "uint64",
          "name": "newPendingStateTimeout",
          "type": "uint64"
        }
      ],
      "name": "SetPendingStateTimeout",
      "type": "event"
    },
    {
      "anonymous": false,
      "inputs": [
        {
          "indexed": false,
          "internalType": "address",
          "name": "newTrustedAggregator",
          "type": "address"
        }
      ],
      "name": "SetTrustedAggregator",
      "type": "event"
    },
    {
      "anonymous": false,
      "inputs": [
        {
          "indexed": false,
          "internalType": "uint64",
          "name": "newTrustedAggregatorTimeout",
          "type": "uint64"
        }
      ],
      "name": "SetTrustedAggregatorTimeout",
      "type": "event"
    },
    {
      "anonymous": false,
      "inputs": [
        {
          "indexed": false,
          "internalType": "address",
          "name": "newTrustedSequencer",
          "type": "address"
        }
      ],
      "name": "SetTrustedSequencer",
      "type": "event"
    },
    {
      "anonymous": false,
      "inputs": [
        {
          "indexed": false,
          "internalType": "string",
          "name": "newTrustedSequencerURL",
          "type": "string"
        }
      ],
      "name": "SetTrustedSequencerURL",
      "type": "event"
    },
    {
      "anonymous": false,
      "inputs": [
        {
          "indexed": false,
          "internalType": "uint64",
          "name": "newVerifyBatchTimeTarget",
          "type": "uint64"
        }
      ],
      "name": "SetVerifyBatchTimeTarget",
      "type": "event"
    },
    {
      "anonymous": false,
      "inputs": [
        {
          "indexed": false,
          "internalType": "address",
          "name": "newPendingAdmin",
          "type": "address"
        }
      ],
      "name": "TransferAdminRole",
      "type": "event"
    },
    {
      "anonymous": false,
      "inputs": [
        {
          "indexed": false,
          "internalType": "uint64",
          "name": "numBatch",
          "type": "uint64"
        },
        {
          "indexed": false,
          "internalType": "uint64",
          "name": "forkID",
          "type": "uint64"
        },
        {
          "indexed": false,
          "internalType": "string",
          "name": "version",
          "type": "string"
        }
      ],
      "name": "UpdateZkEVMVersion",
      "type": "event"
    },
    {
      "anonymous": false,
      "inputs": [
        {
          "indexed": true,
          "internalType": "uint64",
          "name": "numBatch",
          "type": "uint64"
        },
        {
          "indexed": false,
          "internalType": "bytes32",
          "name": "stateRoot",
          "type": "bytes32"
        },
        {
          "indexed": true,
          "internalType": "address",
          "name": "aggregator",
          "type": "address"
        }
      ],
      "name": "VerifyBatches",
      "type": "event"
    },
    {
      "anonymous": false,
      "inputs": [
        {
          "indexed": true,
          "internalType": "uint64",
          "name": "numBatch",
          "type": "uint64"
        },
        {
          "indexed": false,
          "internalType": "bytes32",
          "name": "stateRoot",
          "type": "bytes32"
        },
        {
          "indexed": true,
          "internalType": "address",
          "name": "aggregator",
          "type": "address"
        }
      ],
      "name": "VerifyBatchesTrustedAggregator",
      "type": "event"
    },
    {
      "inputs": [],
      "name": "acceptAdminRole",
      "outputs": [],
      "stateMutability": "nonpayable",
      "type": "function"
    },
    {
      "inputs": [
        {
          "internalType": "uint64",
          "name": "sequencedBatchNum",
          "type": "uint64"
        }
      ],
      "name": "activateEmergencyState",
      "outputs": [],
      "stateMutability": "nonpayable",
      "type": "function"
    },
    {
      "inputs": [],
      "name": "activateForceBatches",
      "outputs": [],
      "stateMutability": "nonpayable",
      "type": "function"
    },
    {
      "inputs": [],
      "name": "admin",
      "outputs": [
        {
          "internalType": "address",
          "name": "",
          "type": "address"
        }
      ],
      "stateMutability": "view",
      "type": "function"
    },
    {
      "inputs": [],
      "name": "batchFee",
      "outputs": [
        {
          "internalType": "uint256",
          "name": "",
          "type": "uint256"
        }
      ],
      "stateMutability": "view",
      "type": "function"
    },
    {
      "inputs": [
        {
          "internalType": "uint64",
          "name": "",
          "type": "uint64"
        }
      ],
      "name": "batchNumToStateRoot",
      "outputs": [
        {
          "internalType": "bytes32",
          "name": "",
          "type": "bytes32"
        }
      ],
      "stateMutability": "view",
      "type": "function"
    },
    {
      "inputs": [],
      "name": "bridgeAddress",
      "outputs": [
        {
          "internalType": "contract IPolygonZkEVMBridge",
          "name": "",
          "type": "address"
        }
      ],
      "stateMutability": "view",
      "type": "function"
    },
    {
      "inputs": [],
      "name": "calculateRewardPerBatch",
      "outputs": [
        {
          "internalType": "uint256",
          "name": "",
          "type": "uint256"
        }
      ],
      "stateMutability": "view",
      "type": "function"
    },
    {
      "inputs": [],
      "name": "chainID",
      "outputs": [
        {
          "internalType": "uint64",
          "name": "",
          "type": "uint64"
        }
      ],
      "stateMutability": "view",
      "type": "function"
    },
    {
      "inputs": [
        {
          "internalType": "uint256",
          "name": "newStateRoot",
          "type": "uint256"
        }
      ],
      "name": "checkStateRootInsidePrime",
      "outputs": [
        {
          "internalType": "bool",
          "name": "",
          "type": "bool"
        }
      ],
      "stateMutability": "pure",
      "type": "function"
    },
    {
      "inputs": [
        {
          "internalType": "uint64",
          "name": "pendingStateNum",
          "type": "uint64"
        }
      ],
      "name": "consolidatePendingState",
      "outputs": [],
      "stateMutability": "nonpayable",
      "type": "function"
    },
    {
      "inputs": [],
      "name": "dataCommitteeAddress",
      "outputs": [
        {
          "internalType": "contract ICDKDataCommittee",
          "name": "",
          "type": "address"
        }
      ],
      "stateMutability": "view",
      "type": "function"
    },
    {
      "inputs": [],
      "name": "deactivateEmergencyState",
      "outputs": [],
      "stateMutability": "nonpayable",
      "type": "function"
    },
    {
      "inputs": [
        {
          "internalType": "bytes",
          "name": "transactions",
          "type": "bytes"
        },
        {
          "internalType": "uint256",
          "name": "maticAmount",
          "type": "uint256"
        }
      ],
      "name": "forceBatch",
      "outputs": [],
      "stateMutability": "nonpayable",
      "type": "function"
    },
    {
      "inputs": [],
      "name": "forceBatchTimeout",
      "outputs": [
        {
          "internalType": "uint64",
          "name": "",
          "type": "uint64"
        }
      ],
      "stateMutability": "view",
      "type": "function"
    },
    {
      "inputs": [
        {
          "internalType": "uint64",
          "name": "",
          "type": "uint64"
        }
      ],
      "name": "forcedBatches",
      "outputs": [
        {
          "internalType": "bytes32",
          "name": "",
          "type": "bytes32"
        }
      ],
      "stateMutability": "view",
      "type": "function"
    },
    {
      "inputs": [],
      "name": "forkID",
      "outputs": [
        {
          "internalType": "uint64",
          "name": "",
          "type": "uint64"
        }
      ],
      "stateMutability": "view",
      "type": "function"
    },
    {
      "inputs": [],
      "name": "getForcedBatchFee",
      "outputs": [
        {
          "internalType": "uint256",
          "name": "",
          "type": "uint256"
        }
      ],
      "stateMutability": "view",
      "type": "function"
    },
    {
      "inputs": [
        {
          "internalType": "uint64",
          "name": "initNumBatch",
          "type": "uint64"
        },
        {
          "internalType": "uint64",
          "name": "finalNewBatch",
          "type": "uint64"
        },
        {
          "internalType": "bytes32",
          "name": "newLocalExitRoot",
          "type": "bytes32"
        },
        {
          "internalType": "bytes32",
          "name": "oldStateRoot",
          "type": "bytes32"
        },
        {
          "internalType": "bytes32",
          "name": "newStateRoot",
          "type": "bytes32"
        }
      ],
      "name": "getInputSnarkBytes",
      "outputs": [
        {
          "internalType": "bytes",
          "name": "",
          "type": "bytes"
        }
      ],
      "stateMutability": "view",
      "type": "function"
    },
    {
      "inputs": [],
      "name": "getLastVerifiedBatch",
      "outputs": [
        {
          "internalType": "uint64",
          "name": "",
          "type": "uint64"
        }
      ],
      "stateMutability": "view",
      "type": "function"
    },
    {
      "inputs": [],
      "name": "globalExitRootManager",
      "outputs": [
        {
          "internalType": "contract IPolygonZkEVMGlobalExitRoot",
          "name": "",
          "type": "address"
        }
      ],
      "stateMutability": "view",
      "type": "function"
    },
    {
      "inputs": [
        {
          "components": [
            {
              "internalType": "address",
              "name": "admin",
              "type": "address"
            },
            {
              "internalType": "address",
              "name": "trustedSequencer",
              "type": "address"
            },
            {
              "internalType": "uint64",
              "name": "pendingStateTimeout",
              "type": "uint64"
            },
            {
              "internalType": "address",
              "name": "trustedAggregator",
              "type": "address"
            },
            {
              "internalType": "uint64",
              "name": "trustedAggregatorTimeout",
              "type": "uint64"
            }
          ],
          "internalType": "struct CDKValidium.InitializePackedParameters",
          "name": "initializePackedParameters",
          "type": "tuple"
        },
        {
          "internalType": "bytes32",
          "name": "genesisRoot",
          "type": "bytes32"
        },
        {
          "internalType": "string",
          "name": "_trustedSequencerURL",
          "type": "string"
        },
        {
          "internalType": "string",
          "name": "_networkName",
          "type": "string"
        },
        {
          "internalType": "string",
          "name": "_version",
          "type": "string"
        }
      ],
      "name": "initialize",
      "outputs": [],
      "stateMutability": "nonpayable",
      "type": "function"
    },
    {
      "inputs": [],
      "name": "isEmergencyState",
      "outputs": [
        {
          "internalType": "bool",
          "name": "",
          "type": "bool"
        }
      ],
      "stateMutability": "view",
      "type": "function"
    },
    {
      "inputs": [],
      "name": "isForcedBatchDisallowed",
      "outputs": [
        {
          "internalType": "bool",
          "name": "",
          "type": "bool"
        }
      ],
      "stateMutability": "view",
      "type": "function"
    },
    {
      "inputs": [
        {
          "internalType": "uint64",
          "name": "pendingStateNum",
          "type": "uint64"
        }
      ],
      "name": "isPendingStateConsolidable",
      "outputs": [
        {
          "internalType": "bool",
          "name": "",
          "type": "bool"
        }
      ],
      "stateMutability": "view",
      "type": "function"
    },
    {
      "inputs": [],
      "name": "lastBatchSequenced",
      "outputs": [
        {
          "internalType": "uint64",
          "name": "",
          "type": "uint64"
        }
      ],
      "stateMutability": "view",
      "type": "function"
    },
    {
      "inputs": [],
      "name": "lastForceBatch",
      "outputs": [
        {
          "internalType": "uint64",
          "name": "",
          "type": "uint64"
        }
      ],
      "stateMutability": "view",
      "type": "function"
    },
    {
      "inputs": [],
      "name": "lastForceBatchSequenced",
      "outputs": [
        {
          "internalType": "uint64",
          "name": "",
          "type": "uint64"
        }
      ],
      "stateMutability": "view",
      "type": "function"
    },
    {
      "inputs": [],
      "name": "lastPendingState",
      "outputs": [
        {
          "internalType": "uint64",
          "name": "",
          "type": "uint64"
        }
      ],
      "stateMutability": "view",
      "type": "function"
    },
    {
      "inputs": [],
      "name": "lastPendingStateConsolidated",
      "outputs": [
        {
          "internalType": "uint64",
          "name": "",
          "type": "uint64"
        }
      ],
      "stateMutability": "view",
      "type": "function"
    },
    {
      "inputs": [],
      "name": "lastTimestamp",
      "outputs": [
        {
          "internalType": "uint64",
          "name": "",
          "type": "uint64"
        }
      ],
      "stateMutability": "view",
      "type": "function"
    },
    {
      "inputs": [],
      "name": "lastVerifiedBatch",
      "outputs": [
        {
          "internalType": "uint64",
          "name": "",
          "type": "uint64"
        }
      ],
      "stateMutability": "view",
      "type": "function"
    },
    {
      "inputs": [],
      "name": "matic",
      "outputs": [
        {
          "internalType": "contract IERC20Upgradeable",
          "name": "",
          "type": "address"
        }
      ],
      "stateMutability": "view",
      "type": "function"
    },
    {
      "inputs": [],
      "name": "multiplierBatchFee",
      "outputs": [
        {
          "internalType": "uint16",
          "name": "",
          "type": "uint16"
        }
      ],
      "stateMutability": "view",
      "type": "function"
    },
    {
      "inputs": [],
      "name": "networkName",
      "outputs": [
        {
          "internalType": "string",
          "name": "",
          "type": "string"
        }
      ],
      "stateMutability": "view",
      "type": "function"
    },
    {
      "inputs": [
        {
          "internalType": "uint64",
          "name": "initPendingStateNum",
          "type": "uint64"
        },
        {
          "internalType": "uint64",
          "name": "finalPendingStateNum",
          "type": "uint64"
        },
        {
          "internalType": "uint64",
          "name": "initNumBatch",
          "type": "uint64"
        },
        {
          "internalType": "uint64",
          "name": "finalNewBatch",
          "type": "uint64"
        },
        {
          "internalType": "bytes32",
          "name": "newLocalExitRoot",
          "type": "bytes32"
        },
        {
          "internalType": "bytes32",
          "name": "newStateRoot",
          "type": "bytes32"
        },
        {
          "internalType": "bytes32[24]",
          "name": "proof",
          "type": "bytes32[24]"
        }
      ],
      "name": "overridePendingState",
      "outputs": [],
      "stateMutability": "nonpayable",
      "type": "function"
    },
    {
      "inputs": [],
      "name": "owner",
      "outputs": [
        {
          "internalType": "address",
          "name": "",
          "type": "address"
        }
      ],
      "stateMutability": "view",
      "type": "function"
    },
    {
      "inputs": [],
      "name": "pendingAdmin",
      "outputs": [
        {
          "internalType": "address",
          "name": "",
          "type": "address"
        }
      ],
      "stateMutability": "view",
      "type": "function"
    },
    {
      "inputs": [],
      "name": "pendingStateTimeout",
      "outputs": [
        {
          "internalType": "uint64",
          "name": "",
          "type": "uint64"
        }
      ],
      "stateMutability": "view",
      "type": "function"
    },
    {
      "inputs": [
        {
          "internalType": "uint256",
          "name": "",
          "type": "uint256"
        }
      ],
      "name": "pendingStateTransitions",
      "outputs": [
        {
          "internalType": "uint64",
          "name": "timestamp",
          "type": "uint64"
        },
        {
          "internalType": "uint64",
          "name": "lastVerifiedBatch",
          "type": "uint64"
        },
        {
          "internalType": "bytes32",
          "name": "exitRoot",
          "type": "bytes32"
        },
        {
          "internalType": "bytes32",
          "name": "stateRoot",
          "type": "bytes32"
        }
      ],
      "stateMutability": "view",
      "type": "function"
    },
    {
      "inputs": [
        {
          "internalType": "uint64",
          "name": "initPendingStateNum",
          "type": "uint64"
        },
        {
          "internalType": "uint64",
          "name": "finalPendingStateNum",
          "type": "uint64"
        },
        {
          "internalType": "uint64",
          "name": "initNumBatch",
          "type": "uint64"
        },
        {
          "internalType": "uint64",
          "name": "finalNewBatch",
          "type": "uint64"
        },
        {
          "internalType": "bytes32",
          "name": "newLocalExitRoot",
          "type": "bytes32"
        },
        {
          "internalType": "bytes32",
          "name": "newStateRoot",
          "type": "bytes32"
        },
        {
          "internalType": "bytes32[24]",
          "name": "proof",
          "type": "bytes32[24]"
        }
      ],
      "name": "proveNonDeterministicPendingState",
      "outputs": [],
      "stateMutability": "nonpayable",
      "type": "function"
    },
    {
      "inputs": [],
      "name": "renounceOwnership",
      "outputs": [],
      "stateMutability": "nonpayable",
      "type": "function"
    },
    {
      "inputs": [],
      "name": "rollupVerifier",
      "outputs": [
        {
          "internalType": "contract IVerifierRollup",
          "name": "",
          "type": "address"
        }
      ],
      "stateMutability": "view",
      "type": "function"
    },
    {
      "inputs": [
        {
          "components": [
            {
              "internalType": "bytes32",
              "name": "transactionsHash",
              "type": "bytes32"
            },
            {
              "internalType": "bytes32",
              "name": "globalExitRoot",
              "type": "bytes32"
            },
            {
              "internalType": "uint64",
              "name": "timestamp",
              "type": "uint64"
            },
            {
              "internalType": "uint64",
              "name": "minForcedTimestamp",
              "type": "uint64"
            }
          ],
          "internalType": "struct CDKValidium.BatchData[]",
          "name": "batches",
          "type": "tuple[]"
        },
        {
          "internalType": "address",
          "name": "l2Coinbase",
          "type": "address"
        },
        {
          "internalType": "bytes",
          "name": "signaturesAndAddrs",
          "type": "bytes"
        }
      ],
      "name": "sequenceBatches",
      "outputs": [],
      "stateMutability": "nonpayable",
      "type": "function"
    },
    {
      "inputs": [
        {
          "components": [
            {
              "internalType": "bytes",
              "name": "transactions",
              "type": "bytes"
            },
            {
              "internalType": "bytes32",
              "name": "globalExitRoot",
              "type": "bytes32"
            },
            {
              "internalType": "uint64",
              "name": "minForcedTimestamp",
              "type": "uint64"
            }
          ],
          "internalType": "struct CDKValidium.ForcedBatchData[]",
          "name": "batches",
          "type": "tuple[]"
        }
      ],
      "name": "sequenceForceBatches",
      "outputs": [],
      "stateMutability": "nonpayable",
      "type": "function"
    },
    {
      "inputs": [
        {
          "internalType": "uint64",
          "name": "",
          "type": "uint64"
        }
      ],
      "name": "sequencedBatches",
      "outputs": [
        {
          "internalType": "bytes32",
          "name": "accInputHash",
          "type": "bytes32"
        },
        {
          "internalType": "uint64",
          "name": "sequencedTimestamp",
          "type": "uint64"
        },
        {
          "internalType": "uint64",
          "name": "previousLastBatchSequenced",
          "type": "uint64"
        }
      ],
      "stateMutability": "view",
      "type": "function"
    },
    {
      "inputs": [
        {
          "internalType": "uint64",
          "name": "newforceBatchTimeout",
          "type": "uint64"
        }
      ],
      "name": "setForceBatchTimeout",
      "outputs": [],
      "stateMutability": "nonpayable",
      "type": "function"
    },
    {
      "inputs": [
        {
          "internalType": "uint16",
          "name": "newMultiplierBatchFee",
          "type": "uint16"
        }
      ],
      "name": "setMultiplierBatchFee",
      "outputs": [],
      "stateMutability": "nonpayable",
      "type": "function"
    },
    {
      "inputs": [
        {
          "internalType": "uint64",
          "name": "newPendingStateTimeout",
          "type": "uint64"
        }
      ],
      "name": "setPendingStateTimeout",
      "outputs": [],
      "stateMutability": "nonpayable",
      "type": "function"
    },
    {
      "inputs": [
        {
          "internalType": "address",
          "name": "newTrustedAggregator",
          "type": "address"
        }
      ],
      "name": "setTrustedAggregator",
      "outputs": [],
      "stateMutability": "nonpayable",
      "type": "function"
    },
    {
      "inputs": [
        {
          "internalType": "uint64",
          "name": "newTrustedAggregatorTimeout",
          "type": "uint64"
        }
      ],
      "name": "setTrustedAggregatorTimeout",
      "outputs": [],
      "stateMutability": "nonpayable",
      "type": "function"
    },
    {
      "inputs": [
        {
          "internalType": "address",
          "name": "newTrustedSequencer",
          "type": "address"
        }
      ],
      "name": "setTrustedSequencer",
      "outputs": [],
      "stateMutability": "nonpayable",
      "type": "function"
    },
    {
      "inputs": [
        {
          "internalType": "string",
          "name": "newTrustedSequencerURL",
          "type": "string"
        }
      ],
      "name": "setTrustedSequencerURL",
      "outputs": [],
      "stateMutability": "nonpayable",
      "type": "function"
    },
    {
      "inputs": [
        {
          "internalType": "uint64",
          "name": "newVerifyBatchTimeTarget",
          "type": "uint64"
        }
      ],
      "name": "setVerifyBatchTimeTarget",
      "outputs": [],
      "stateMutability": "nonpayable",
      "type": "function"
    },
    {
      "inputs": [
        {
          "internalType": "address",
          "name": "newPendingAdmin",
          "type": "address"
        }
      ],
      "name": "transferAdminRole",
      "outputs": [],
      "stateMutability": "nonpayable",
      "type": "function"
    },
    {
      "inputs": [
        {
          "internalType": "address",
          "name": "newOwner",
          "type": "address"
        }
      ],
      "name": "transferOwnership",
      "outputs": [],
      "stateMutability": "nonpayable",
      "type": "function"
    },
    {
      "inputs": [],
      "name": "trustedAggregator",
      "outputs": [
        {
          "internalType": "address",
          "name": "",
          "type": "address"
        }
      ],
      "stateMutability": "view",
      "type": "function"
    },
    {
      "inputs": [],
      "name": "trustedAggregatorTimeout",
      "outputs": [
        {
          "internalType": "uint64",
          "name": "",
          "type": "uint64"
        }
      ],
      "stateMutability": "view",
      "type": "function"
    },
    {
      "inputs": [],
      "name": "trustedSequencer",
      "outputs": [
        {
          "internalType": "address",
          "name": "",
          "type": "address"
        }
      ],
      "stateMutability": "view",
      "type": "function"
    },
    {
      "inputs": [],
      "name": "trustedSequencerURL",
      "outputs": [
        {
          "internalType": "string",
          "name": "",
          "type": "string"
        }
      ],
      "stateMutability": "view",
      "type": "function"
    },
    {
      "inputs": [],
      "name": "verifyBatchTimeTarget",
      "outputs": [
        {
          "internalType": "uint64",
          "name": "",
          "type": "uint64"
        }
      ],
      "stateMutability": "view",
      "type": "function"
    },
    {
      "inputs": [
        {
          "internalType": "uint64",
          "name": "pendingStateNum",
          "type": "uint64"
        },
        {
          "internalType": "uint64",
          "name": "initNumBatch",
          "type": "uint64"
        },
        {
          "internalType": "uint64",
          "name": "finalNewBatch",
          "type": "uint64"
        },
        {
          "internalType": "bytes32",
          "name": "newLocalExitRoot",
          "type": "bytes32"
        },
        {
          "internalType": "bytes32",
          "name": "newStateRoot",
          "type": "bytes32"
        },
        {
          "internalType": "bytes32[24]",
          "name": "proof",
          "type": "bytes32[24]"
        }
      ],
      "name": "verifyBatches",
      "outputs": [],
      "stateMutability": "nonpayable",
      "type": "function"
    },
    {
      "inputs": [
        {
          "internalType": "uint64",
          "name": "pendingStateNum",
          "type": "uint64"
        },
        {
          "internalType": "uint64",
          "name": "initNumBatch",
          "type": "uint64"
        },
        {
          "internalType": "uint64",
          "name": "finalNewBatch",
          "type": "uint64"
        },
        {
          "internalType": "bytes32",
          "name": "newLocalExitRoot",
          "type": "bytes32"
        },
        {
          "internalType": "bytes32",
          "name": "newStateRoot",
          "type": "bytes32"
        },
        {
          "internalType": "bytes32[24]",
          "name": "proof",
          "type": "bytes32[24]"
        }
      ],
      "name": "verifyBatchesTrustedAggregator",
      "outputs": [],
      "stateMutability": "nonpayable",
      "type": "function"
    }
  ],
  "bytecode": "0x6101606040523480156200001257600080fd5b5060405162004afb38038062004afb8339810160408190526200003591620000ac565b6001600160a01b0396871660c05294861660805292851660a05290841660e052909216610100526001600160401b039182166101205216610140526200014f565b6001600160a01b03811681146200008c57600080fd5b50565b80516001600160401b0381168114620000a757600080fd5b919050565b600080600080600080600060e0888a031215620000c857600080fd5b8751620000d58162000076565b6020890151909750620000e88162000076565b6040890151909650620000fb8162000076565b60608901519095506200010e8162000076565b6080890151909450620001218162000076565b92506200013160a089016200008f565b91506200014160c089016200008f565b905092959891949750929550565b60805160a05160c05160e0516101005161012051610140516148cc6200022f6000396000818161067d01528181610c5b015261257b0152600081816107c00152610c31015260008181610589015261140d015260008181610786015281816115e0015281816129c5015261395d0152600081816108f801528181610d5a01528181610ea9015281816112ba015281816119ef01528181612b16015261362001526000818161098101528181612ffe015261335a01526000818161086f015281816115ae01528181611d8f01528181612aea01526130c501526148cc6000f3fe608060405234801561001057600080fd5b50600436106103c55760003560e01c8063837a4738116101ff578063c754c7ed1161011a578063e7a7ed02116100ad578063f14916d61161007c578063f14916d6146109ca578063f2fde38b146109dd578063f851a440146109f0578063f8b823e414610a0357600080fd5b8063e7a7ed0214610962578063e8bf92ed1461097c578063eaeb077b146109a3578063ed6b0104146109b657600080fd5b8063d2e129f9116100e9578063d2e129f91461091a578063d8d1091b1461092d578063d939b31514610940578063dbc169761461095a57600080fd5b8063c754c7ed146108ac578063c89e42df146108c6578063cfa8ed47146108d9578063d02103ca146108f357600080fd5b8063a3c573eb11610192578063b4d63f5811610161578063b4d63f581461080a578063b6b0b0971461086a578063ba58ae3914610891578063c0ed84e0146108a457600080fd5b8063a3c573eb14610781578063ada8f919146107a8578063adc879e9146107bb578063afd23cbe146107e257600080fd5b806399f5634e116101ce57806399f5634e146107405780639aa972a3146107485780639c9f3dfe1461075b578063a066215c1461076e57600080fd5b8063837a47381461069f578063841b24d71461070d5780638c3d7301146107275780638da5cb5b1461072f57600080fd5b8063458c0477116102ef5780636046916911610282578063715018a611610251578063715018a61461064a5780637215541a146106525780637fcb365314610665578063831c7ead1461067857600080fd5b806360469169146105fc578063621dd411146106045780636b8616ce146106175780636ff512cc1461063757600080fd5b80634e487706116102be5780634e487706146105ab5780635392c5e0146105be578063542028d5146105ec5780635ec91958146105f457600080fd5b8063458c0477146105445780634a1a89a7146105575780634a910e6a146105715780634df61d241461058457600080fd5b80632987898311610367578063394218e911610336578063394218e9146104ea578063423fa856146104fd578063438a539914610517578063456052671461052a57600080fd5b806329878983146104975780632b0006fa146104b15780632c1f816a146104c4578063383b3be8146104d757600080fd5b80631816b7e5116103a35780631816b7e51461043157806319d8ac6114610446578063220d789914610459578063267822471461046c57600080fd5b80630a0d9fbe146103ca578063107bf28c146103ff57806315064c9614610414575b600080fd5b606f546103e29061010090046001600160401b031681565b6040516001600160401b0390911681526020015b60405180910390f35b610407610a0c565b6040516103f69190613de5565b606f546104219060ff1681565b60405190151581526020016103f6565b61044461043f366004613dff565b610a9a565b005b6073546103e2906001600160401b031681565b610407610467366004613e3a565b610b59565b607b5461047f906001600160a01b031681565b6040516001600160a01b0390911681526020016103f6565b60745461047f90600160401b90046001600160a01b031681565b6104446104bf366004613e9f565b610cb9565b6104446104d2366004613f07565b610e07565b6104216104e5366004613f81565b610f6c565b6104446104f8366004613f81565b610fb3565b6073546103e290600160401b90046001600160401b031681565b610444610525366004613ffb565b6110a1565b6073546103e290600160801b90046001600160401b031681565b6079546103e2906001600160401b031681565b6079546103e290600160401b90046001600160401b031681565b61044461057f366004613f81565b611693565b61047f7f000000000000000000000000000000000000000000000000000000000000000081565b6104446105b9366004613f81565b611702565b6105de6105cc366004613f81565b60756020526000908152604090205481565b6040519081526020016103f6565b6104076117f5565b610444611802565b6105de61188f565b610444610612366004613e9f565b6118a5565b6105de610625366004613f81565b60716020526000908152604090205481565b6104446106453660046140ac565b611b46565b610444611bcb565b610444610660366004613f81565b611bdf565b6074546103e2906001600160401b031681565b6103e27f000000000000000000000000000000000000000000000000000000000000000081565b6106e26106ad3660046140c7565b6078602052600090815260409020805460018201546002909201546001600160401b0380831693600160401b90930416919084565b604080516001600160401b0395861681529490931660208501529183015260608201526080016103f6565b6079546103e290600160c01b90046001600160401b031681565b610444611cec565b6033546001600160a01b031661047f565b6105de611d6d565b610444610756366004613f07565b611e77565b610444610769366004613f81565b611f0e565b61044461077c366004613f81565b612001565b61047f7f000000000000000000000000000000000000000000000000000000000000000081565b6104446107b63660046140ac565b6120b0565b6103e27f000000000000000000000000000000000000000000000000000000000000000081565b606f546107f790600160481b900461ffff1681565b60405161ffff90911681526020016103f6565b610845610818366004613f81565b607260205260009081526040902080546001909101546001600160401b0380821691600160401b90041683565b604080519384526001600160401b0392831660208501529116908201526060016103f6565b61047f7f000000000000000000000000000000000000000000000000000000000000000081565b61042161089f3660046140c7565b612129565b6103e26121b0565b607b546103e290600160a01b90046001600160401b031681565b6104446108d436600461418b565b6121fd565b606f5461047f90600160581b90046001600160a01b031681565b61047f7f000000000000000000000000000000000000000000000000000000000000000081565b6104446109283660046141bf565b612264565b61044461093b366004614271565b612602565b6079546103e290600160801b90046001600160401b031681565b610444612998565b6073546103e290600160c01b90046001600160401b031681565b61047f7f000000000000000000000000000000000000000000000000000000000000000081565b6104446109b13660046142e5565b612a3e565b607b5461042190600160e01b900460ff1681565b6104446109d83660046140ac565b612d10565b6104446109eb3660046140ac565b612d95565b607a5461047f906001600160a01b031681565b6105de60705481565b60778054610a1990614330565b80601f0160208091040260200160405190810160405280929190818152602001828054610a4590614330565b8015610a925780601f10610a6757610100808354040283529160200191610a92565b820191906000526020600020905b815481529060010190602001808311610a7557829003601f168201915b505050505081565b607a546001600160a01b03163314610ac557604051634755657960e01b815260040160405180910390fd5b6103e88161ffff161080610ade57506103ff8161ffff16115b15610afc57604051630984a67960e31b815260040160405180910390fd5b606f80546affff0000000000000000001916600160481b61ffff8416908102919091179091556040519081527f7019933d795eba185c180209e8ae8bffbaa25bcef293364687702c31f4d302c5906020015b60405180910390a150565b6001600160401b038086166000818152607260205260408082205493881682529020546060929115801590610b8c575081155b15610baa5760405163340c614f60e11b815260040160405180910390fd5b80610bc8576040516366385b5160e01b815260040160405180910390fd5b610bd184612129565b610bee576040516305dae44f60e21b815260040160405180910390fd5b604080516bffffffffffffffffffffffff193360601b166020820152603481019690965260548601929092526001600160c01b031960c098891b811660748701527f0000000000000000000000000000000000000000000000000000000000000000891b8116607c8701527f0000000000000000000000000000000000000000000000000000000000000000891b81166084870152608c86019490945260ac85015260cc840194909452509290931b90911660ec830152805180830360d401815260f4909201905290565b607454600160401b90046001600160a01b03163314610ceb5760405163bbcbbc0560e01b815260040160405180910390fd5b610cf9868686868686612e0b565b6074805467ffffffffffffffff19166001600160401b0386811691821790925560009081526075602052604090208390556079541615610d4457607980546001600160801b03191690555b6040516333d6247d60e01b8152600481018490527f00000000000000000000000000000000000000000000000000000000000000006001600160a01b0316906333d6247d90602401600060405180830381600087803b158015610da657600080fd5b505af1158015610dba573d6000803e3d6000fd5b50506040518481523392506001600160401b03871691507fcb339b570a7f0b25afa7333371ff11192092a0aeace12b671f4c212f2815c6fe906020015b60405180910390a3505050505050565b607454600160401b90046001600160a01b03163314610e395760405163bbcbbc0560e01b815260040160405180910390fd5b610e48878787878787876130f8565b6074805467ffffffffffffffff19166001600160401b0386811691821790925560009081526075602052604090208390556079541615610e9357607980546001600160801b03191690555b6040516333d6247d60e01b8152600481018490527f00000000000000000000000000000000000000000000000000000000000000006001600160a01b0316906333d6247d90602401600060405180830381600087803b158015610ef557600080fd5b505af1158015610f09573d6000803e3d6000fd5b5050607980546001600160c01b031661127560c71b179055505060405182815233906001600160401b038616907fcc1b5520188bf1dd3e63f98164b577c4d75c11a619ddea692112f0d1aec4cf729060200160405180910390a350505050505050565b6079546001600160401b0382811660009081526078602052604081205490924292610fa292600160801b90920481169116614380565b6001600160401b0316111592915050565b607a546001600160a01b03163314610fde57604051634755657960e01b815260040160405180910390fd5b62093a806001600160401b038216111561100b57604051631d06e87960e01b815260040160405180910390fd5b606f5460ff1661104b576079546001600160401b03600160c01b90910481169082161061104b5760405163401636df60e01b815260040160405180910390fd5b607980546001600160c01b0316600160c01b6001600160401b038416908102919091179091556040519081527f1f4fa24c2e4bad19a7f3ec5c5485f70d46c798461c2e684f55bbd0fc661373a190602001610b4e565b606f5460ff16156110c557604051630bc011ff60e21b815260040160405180910390fd5b606f54600160581b90046001600160a01b031633146110f7576040516311e7be1560e01b815260040160405180910390fd5b83600081900361111a5760405163cb591a5f60e01b815260040160405180910390fd5b6103e881111561113d57604051635acfba9d60e11b815260040160405180910390fd5b6073546001600160401b03600160401b82048116600081815260726020526040812054838516949293600160801b909304909216919082905b868110156113f55760008c8c83818110611192576111926143a7565b9050608002018036038101906111a891906143bd565b60608101519091506001600160401b03161561129057846111c88161442d565b95505060008160000151826020015183606001516040516020016111ee93929190614453565b60408051601f1981840301815291815281516020928301206001600160401b03891660009081526071909352912054909150811461123f5760405163671ebaaf60e11b815260040160405180910390fd5b6001600160401b03808716600090815260716020526040808220919091556060840151908401519082169116101561128a57604051633fbd5c3960e11b815260040160405180910390fd5b5061134f565b602081015115801590611331575060208101516040516312bd9b1960e11b815260048101919091527f00000000000000000000000000000000000000000000000000000000000000006001600160a01b03169063257b3632906024016020604051808303816000875af115801561130b573d6000803e3d6000fd5b505050506040513d601f19601f8201168201806040525081019061132f9190614476565b155b1561134f576040516373bd668d60e01b815260040160405180910390fd5b866001600160401b031681604001516001600160401b0316108061137f57504281604001516001600160401b0316115b1561139d576040516375413c8b60e11b815260040160405180910390fd5b838160000151826020015183604001518e6040516020016113c295949392919061448f565b604051602081830303815290604052805190602001209350806040015196505080806113ed906144d3565b915050611176565b5060405163063d411f60e51b81526001600160a01b037f0000000000000000000000000000000000000000000000000000000000000000169063c7a823e0906114469085908c908c90600401614515565b60006040518083038186803b15801561145e57600080fd5b505afa158015611472573d6000803e3d6000fd5b5050505085846114829190614380565b6073549094506001600160401b03600160c01b909104811690841611156114bc5760405163c630a00d60e01b815260040160405180910390fd5b60006114c88285614538565b6114db906001600160401b031688614558565b60408051606081018252858152426001600160401b03908116602080840191825260738054600160401b9081900485168688019081528d861660008181526072909552979093209551865592516001909501805492519585166001600160801b03199384161795851684029590951790945583548c8416911617930292909217905590915082811690851614611591576073805467ffffffffffffffff60801b1916600160801b6001600160401b038716021790555b6115d63330836070546115a4919061456b565b6001600160a01b037f00000000000000000000000000000000000000000000000000000000000000001692919061342a565b6115de61349b565b7f00000000000000000000000000000000000000000000000000000000000000006001600160a01b03166379e2cf976040518163ffffffff1660e01b8152600401600060405180830381600087803b15801561163957600080fd5b505af115801561164d573d6000803e3d6000fd5b50506040516001600160401b03881692507f303446e6a8cb73c83dff421c0b1d5e5ce0719dab1bff13660fc254e58cc17fce9150600090a2505050505050505050505050565b607454600160401b90046001600160a01b031633146116f657606f5460ff16156116d057604051630bc011ff60e21b815260040160405180910390fd5b6116d981610f6c565b6116f657604051630674f25160e11b815260040160405180910390fd5b6116ff8161353b565b50565b607a546001600160a01b0316331461172d57604051634755657960e01b815260040160405180910390fd5b62093a806001600160401b038216111561175a5760405163f5e37f2f60e01b815260040160405180910390fd5b606f5460ff1661179a57607b546001600160401b03600160a01b90910481169082161061179a5760405163f5e37f2f60e01b815260040160405180910390fd5b607b805467ffffffffffffffff60a01b1916600160a01b6001600160401b038416908102919091179091556040519081527fa7eb6cb8a613eb4e8bddc1ac3d61ec6cf10898760f0b187bcca794c6ca6fa40b90602001610b4e565b60768054610a1990614330565b607a546001600160a01b0316331461182d57604051634755657960e01b815260040160405180910390fd5b607b54600160e01b900460ff166118575760405163f6ba91a160e01b815260040160405180910390fd5b607b805460ff60e01b191690556040517f854dd6ce5a1445c4c54388b21cffd11cf5bba1b9e763aec48ce3da75d617412f90600090a1565b600060705460646118a0919061456b565b905090565b606f5460ff16156118c957604051630bc011ff60e21b815260040160405180910390fd5b6079546001600160401b03858116600090815260726020526040902060010154429261190092600160c01b90910481169116614380565b6001600160401b0316111561192857604051638a0704d360e01b815260040160405180910390fd5b6103e86119358686614538565b6001600160401b0316111561195d57604051635acfba9d60e11b815260040160405180910390fd5b61196b868686868686612e0b565b611974846136da565b607954600160801b90046001600160401b0316600003611a58576074805467ffffffffffffffff19166001600160401b03868116918217909255600090815260756020526040902083905560795416156119d957607980546001600160801b03191690555b6040516333d6247d60e01b8152600481018490527f00000000000000000000000000000000000000000000000000000000000000006001600160a01b0316906333d6247d90602401600060405180830381600087803b158015611a3b57600080fd5b505af1158015611a4f573d6000803e3d6000fd5b50505050611b09565b611a6061349b565b607980546001600160401b0316906000611a798361442d565b82546001600160401b039182166101009390930a928302928202191691909117909155604080516080810182524283168152878316602080830191825282840189815260608401898152607954871660009081526078909352949091209251835492518616600160401b026001600160801b03199093169516949094171781559151600183015551600290910155505b60405182815233906001600160401b038616907f9c72852172521097ba7e1482e6b44b351323df0155f97f4ea18fcec28e1f596690602001610df7565b607a546001600160a01b03163314611b7157604051634755657960e01b815260040160405180910390fd5b606f8054600160581b600160f81b031916600160581b6001600160a01b038416908102919091179091556040519081527ff54144f9611984021529f814a1cb6a41e22c58351510a0d9f7e822618abb9cc090602001610b4e565b611bd36138af565b611bdd6000613909565b565b6033546001600160a01b03163314611ce4576000611bfb6121b0565b9050806001600160401b0316826001600160401b031611611c2f5760405163812a372d60e01b815260040160405180910390fd5b6073546001600160401b03600160401b90910481169083161180611c6e57506001600160401b0380831660009081526072602052604090206001015416155b15611c8c57604051632631700560e21b815260040160405180910390fd5b6001600160401b038083166000908152607260205260409020600101544291611cba9162093a809116614380565b6001600160401b03161115611ce25760405163692baaad60e11b815260040160405180910390fd5b505b6116ff61395b565b607b546001600160a01b03163314611d175760405163d1ec4b2360e01b815260040160405180910390fd5b607b54607a80546001600160a01b0319166001600160a01b0390921691821790556040519081527f056dc487bbf0795d0bbb1b4f0af523a855503cff740bfb4d5475f7a90c091e8e9060200160405180910390a1565b6040516370a0823160e01b815230600482015260009081906001600160a01b037f000000000000000000000000000000000000000000000000000000000000000016906370a0823190602401602060405180830381865afa158015611dd6573d6000803e3d6000fd5b505050506040513d601f19601f82011682018060405250810190611dfa9190614476565b90506000611e066121b0565b6073546001600160401b03600160401b8204811691611e3691600160801b8204811691600160c01b900416614538565b611e409190614380565b611e4a9190614538565b6001600160401b0316905080600003611e665760009250505090565b611e708183614598565b9250505090565b606f5460ff1615611e9b57604051630bc011ff60e21b815260040160405180910390fd5b611eaa878787878787876130f8565b6001600160401b0384166000908152607560209081526040918290205482519081529081018490527f1f44c21118c4603cfb4e1b621dbcfa2b73efcececee2b99b620b2953d33a7010910160405180910390a1611f0561395b565b50505050505050565b607a546001600160a01b03163314611f3957604051634755657960e01b815260040160405180910390fd5b62093a806001600160401b0382161115611f6657604051630cc9650760e41b815260040160405180910390fd5b606f5460ff16611fa6576079546001600160401b03600160801b909104811690821610611fa65760405163048a05a960e41b815260040160405180910390fd5b6079805467ffffffffffffffff60801b1916600160801b6001600160401b038416908102919091179091556040519081527fc4121f4e22c69632ebb7cf1f462be0511dc034f999b52013eddfb24aab765c7590602001610b4e565b607a546001600160a01b0316331461202c57604051634755657960e01b815260040160405180910390fd5b62015180816001600160401b0316111561205957604051631c0cfbfd60e31b815260040160405180910390fd5b606f805468ffffffffffffffff0019166101006001600160401b038416908102919091179091556040519081527f1b023231a1ab6b5d93992f168fb44498e1a7e64cef58daff6f1c216de6a68c2890602001610b4e565b607a546001600160a01b031633146120db57604051634755657960e01b815260040160405180910390fd5b607b80546001600160a01b0319166001600160a01b0383169081179091556040519081527fa5b56b7906fd0a20e3f35120dd8343db1e12e037a6c90111c7e42885e82a1ce690602001610b4e565b600067ffffffff000000016001600160401b03831610801561215f575067ffffffff00000001604083901c6001600160401b0316105b801561217f575067ffffffff00000001608083901c6001600160401b0316105b8015612196575067ffffffff0000000160c083901c105b156121a357506001919050565b506000919050565b919050565b6079546000906001600160401b0316156121ed57506079546001600160401b03908116600090815260786020526040902054600160401b90041690565b506074546001600160401b031690565b607a546001600160a01b0316331461222857604051634755657960e01b815260040160405180910390fd5b607661223482826145fa565b507f6b8f723a4c7a5335cafae8a598a0aa0301be1387c037dccc085b62add6448b2081604051610b4e9190613de5565b600054610100900460ff16158080156122845750600054600160ff909116105b8061229e5750303b15801561229e575060005460ff166001145b6123065760405162461bcd60e51b815260206004820152602e60248201527f496e697469616c697a61626c653a20636f6e747261637420697320616c72656160448201526d191e481a5b9a5d1a585b1a5e995960921b60648201526084015b60405180910390fd5b6000805460ff191660011790558015612329576000805461ff0019166101001790555b61233660208801886140ac565b607a80546001600160a01b0319166001600160a01b039290921691909117905561236660408801602089016140ac565b606f80546001600160a01b0392909216600160581b02600160581b600160f81b03199092169190911790556123a160808801606089016140ac565b607480546001600160a01b0392909216600160401b02600160401b600160e01b03199092169190911790556000805260756020527ff9e3fbf150b7a0077118526f473c53cb4734f166167e2c6213e3567dd390b4ad869055607661240586826145fa565b50607761241285826145fa565b5062093a806124276060890160408a01613f81565b6001600160401b0316111561244f57604051630cc9650760e41b815260040160405180910390fd5b61245f6060880160408901613f81565b607980546001600160401b0392909216600160801b0267ffffffffffffffff60801b1990921691909117905562093a8061249f60a0890160808a01613f81565b6001600160401b031611156124c757604051631d06e87960e01b815260040160405180910390fd5b6124d760a0880160808901613f81565b607980546001600160c01b0316600160c01b6001600160401b03939093169290920291909117905567016345785d8a0000607055606f80546affffffffffffffffffff0019166a03ea000000000000070800179055607b805468ffffffffffffffffff60a01b1916670200000000000d2f60a71b1790556125566139d6565b7fed7be53c9f1a96a481223b15568a5b1a475e01a74b347d6ca187c8bf0c078cd660007f000000000000000000000000000000000000000000000000000000000000000085856040516125ac94939291906146b9565b60405180910390a18015611f05576000805461ff0019169055604051600181527f7f26b83ff96e1f2b6a682f133852f6798a09c465da95921460cefb38474024989060200160405180910390a150505050505050565b607b54600160e01b900460ff161561262d576040516324eff8c360e01b815260040160405180910390fd5b606f5460ff161561265157604051630bc011ff60e21b815260040160405180910390fd5b8060008190036126745760405163cb591a5f60e01b815260040160405180910390fd5b6103e881111561269757604051635acfba9d60e11b815260040160405180910390fd5b6073546001600160401b03600160c01b82048116916126bf918491600160801b9004166146f0565b11156126de5760405163c630a00d60e01b815260040160405180910390fd5b6073546001600160401b03600160401b820481166000818152607260205260408120549193600160801b9004909216915b8481101561289257600087878381811061272b5761272b6143a7565b905060200281019061273d9190614703565b61274690614723565b9050836127528161442d565b8251805160209182012081850151604080870151905194995091945060009361277e9386939101614453565b60408051601f1981840301815291815281516020928301206001600160401b0389166000908152607190935291205490915081146127cf5760405163671ebaaf60e11b815260040160405180910390fd5b6001600160401b0386166000908152607160205260408120556127f3600189614558565b84036128475742607b60149054906101000a90046001600160401b0316846040015161281f9190614380565b6001600160401b031611156128475760405163c44a082160e01b815260040160405180910390fd5b84828460200151423360405160200161286495949392919061448f565b604051602081830303815290604052805190602001209450505050808061288a906144d3565b91505061270f565b5061289d8484614380565b607380546001600160401b0342811667ffffffffffffffff199092168217808455604080516060810182528781526020808201958652600160401b9384900485168284019081528589166000818152607290935284832093518455965160019390930180549151871686026001600160801b031990921693871693909317179091558554938916600160801b0267ffffffffffffffff60801b199386029390931677ffffffffffffffffffffffffffffffff00000000000000001990941693909317919091179093559151929550917f648a61dd2438f072f5a1960939abd30f37aea80d2e94c9792ad142d3e0a490a49190a2505050505050565b607a546001600160a01b031633146129c357604051634755657960e01b815260040160405180910390fd5b7f00000000000000000000000000000000000000000000000000000000000000006001600160a01b031663dbc169766040518163ffffffff1660e01b8152600401600060405180830381600087803b158015612a1e57600080fd5b505af1158015612a32573d6000803e3d6000fd5b50505050611bdd613a4a565b607b54600160e01b900460ff1615612a69576040516324eff8c360e01b815260040160405180910390fd5b606f5460ff1615612a8d57604051630bc011ff60e21b815260040160405180910390fd5b6000612a9761188f565b905081811115612aba57604051634732fdb560e01b815260040160405180910390fd5b611388831115612add576040516328a69b1f60e21b815260040160405180910390fd5b612b126001600160a01b037f00000000000000000000000000000000000000000000000000000000000000001633308461342a565b60007f00000000000000000000000000000000000000000000000000000000000000006001600160a01b0316633ed691ef6040518163ffffffff1660e01b8152600401602060405180830381865afa158015612b72573d6000803e3d6000fd5b505050506040513d601f19601f82011682018060405250810190612b969190614476565b60738054919250600160c01b9091046001600160401b0316906018612bba8361442d565b91906101000a8154816001600160401b0302191690836001600160401b03160217905550508484604051612bef9291906147b2565b604051908190038120612c089183904290602001614453565b60408051808303601f190181529181528151602092830120607354600160c01b90046001600160401b031660009081526071909352912055323303612cac57607354604080518381523360208201526060918101829052600091810191909152600160c01b9091046001600160401b0316907ff94bb37db835f1ab585ee00041849a09b12cd081d77fa15ca070757619cbc9319060800160405180910390a2612d09565b607360189054906101000a90046001600160401b03166001600160401b03167ff94bb37db835f1ab585ee00041849a09b12cd081d77fa15ca070757619cbc93182338888604051612d0094939291906147c2565b60405180910390a25b5050505050565b607a546001600160a01b03163314612d3b57604051634755657960e01b815260040160405180910390fd5b60748054600160401b600160e01b031916600160401b6001600160a01b038416908102919091179091556040519081527f61f8fec29495a3078e9271456f05fb0707fd4e41f7661865f80fc437d06681ca90602001610b4e565b612d9d6138af565b6001600160a01b038116612e025760405162461bcd60e51b815260206004820152602660248201527f4f776e61626c653a206e6577206f776e657220697320746865207a65726f206160448201526564647265737360d01b60648201526084016122fd565b6116ff81613909565b600080612e166121b0565b90506001600160401b03881615612eac576079546001600160401b039081169089161115612e575760405163bb14c20560e01b815260040160405180910390fd5b6001600160401b038089166000908152607860205260409020600281015481549094509091898116600160401b9092041614612ea657604051632bd2e3e760e01b815260040160405180910390fd5b50612f18565b6001600160401b038716600090815260756020526040902054915081612ee5576040516324cbdcc360e11b815260040160405180910390fd5b806001600160401b0316876001600160401b03161115612f1857604051630f2b74f160e11b815260040160405180910390fd5b806001600160401b0316866001600160401b031611612f4a5760405163b9b18f5760e01b815260040160405180910390fd5b6000612f598888888689610b59565b905060007f30644e72e131a029b85045b68181585d2833e84879b9709143e1f593f0000001600283604051612f8e91906147ed565b602060405180830381855afa158015612fab573d6000803e3d6000fd5b5050506040513d601f19601f82011682018060405250810190612fce9190614476565b612fd891906147ff565b604080516020810182528281529051634890ed4560e11b81529192506001600160a01b037f00000000000000000000000000000000000000000000000000000000000000001691639121da8a9161303491899190600401614813565b602060405180830381865afa158015613051573d6000803e3d6000fd5b505050506040513d601f19601f82011682018060405250810190613075919061484e565b613092576040516309bde33960e01b815260040160405180910390fd5b6130ec336130a0858b614538565b6001600160401b03166130b1611d6d565b6130bb919061456b565b6001600160a01b037f0000000000000000000000000000000000000000000000000000000000000000169190613aa2565b50505050505050505050565b60006001600160401b0388161561318c576079546001600160401b0390811690891611156131395760405163bb14c20560e01b815260040160405180910390fd5b506001600160401b038088166000908152607860205260409020600281015481549092888116600160401b909204161461318657604051632bd2e3e760e01b815260040160405180910390fd5b506131f4565b506001600160401b038516600090815260756020526040902054806131c4576040516324cbdcc360e11b815260040160405180910390fd5b6074546001600160401b0390811690871611156131f457604051630f2b74f160e11b815260040160405180910390fd5b6079546001600160401b0390811690881611806132235750876001600160401b0316876001600160401b031611155b8061324457506079546001600160401b03600160401b909104811690881611155b156132625760405163bfa7079f60e01b815260040160405180910390fd5b6001600160401b03878116600090815260786020526040902054600160401b90048116908616146132a6576040516332a2a77f60e01b815260040160405180910390fd5b60006132b58787878588610b59565b905060007f30644e72e131a029b85045b68181585d2833e84879b9709143e1f593f00000016002836040516132ea91906147ed565b602060405180830381855afa158015613307573d6000803e3d6000fd5b5050506040513d601f19601f8201168201806040525081019061332a9190614476565b61333491906147ff565b604080516020810182528281529051634890ed4560e11b81529192506001600160a01b037f00000000000000000000000000000000000000000000000000000000000000001691639121da8a9161339091889190600401614813565b602060405180830381865afa1580156133ad573d6000803e3d6000fd5b505050506040513d601f19601f820116820180604052508101906133d1919061484e565b6133ee576040516309bde33960e01b815260040160405180910390fd5b6001600160401b0389166000908152607860205260409020600201548590036130ec5760405163a47276bd60e01b815260040160405180910390fd5b6040516001600160a01b03808516602483015283166044820152606481018290526134959085906323b872dd60e01b906084015b60408051601f198184030181529190526020810180516001600160e01b03166001600160e01b031990931692909217909152613ad7565b50505050565b6079546001600160401b03600160401b8204811691161115611bdd576079546000906134d890600160401b90046001600160401b03166001614380565b90506134e381610f6c565b156116ff576079546000906002906135059084906001600160401b0316614538565b61350f9190614870565b6135199083614380565b905061352481610f6c565b15613536576135328161353b565b5050565b613532825b6079546001600160401b03600160401b909104811690821611158061356e57506079546001600160401b03908116908216115b1561358c5760405163d086b70b60e01b815260040160405180910390fd5b6001600160401b038181166000818152607860209081526040808320805460748054600160401b9283900490981667ffffffffffffffff1990981688179055600282015487865260759094529382902092909255607980546fffffffffffffffff000000000000000019169390940292909217909255600182015490516333d6247d60e01b815260048101919091529091907f00000000000000000000000000000000000000000000000000000000000000006001600160a01b0316906333d6247d90602401600060405180830381600087803b15801561366c57600080fd5b505af1158015613680573d6000803e3d6000fd5b50505050826001600160401b0316816001600160401b03167f328d3c6c0fd6f1be0515e422f2d87e59f25922cbc2233568515a0c4bc3f8510e84600201546040516136cd91815260200190565b60405180910390a3505050565b60006136e46121b0565b9050816000806136f48484614538565b606f546001600160401b0391821692506000916137179161010090041642614558565b90505b846001600160401b0316846001600160401b031614613798576001600160401b0380851660009081526072602052604090206001810154909116821015613777576001810154600160401b90046001600160401b03169450613792565b6137818686614538565b6001600160401b0316935050613798565b5061371a565b60006137a48484614558565b9050838110156137fb57808403600c81116137bf57806137c2565b600c5b9050806103e80a81606f60099054906101000a900461ffff1661ffff160a60705402816137f1576137f1614582565b046070555061386b565b838103600c811161380c578061380f565b600c5b90506000816103e80a82606f60099054906101000a900461ffff1661ffff160a670de0b6b3a7640000028161384657613846614582565b04905080607054670de0b6b3a7640000028161386457613864614582565b0460705550505b683635c9adc5dea00000607054111561389057683635c9adc5dea00000607055611f05565b633b9aca006070541015611f0557633b9aca0060705550505050505050565b6033546001600160a01b03163314611bdd5760405162461bcd60e51b815260206004820181905260248201527f4f776e61626c653a2063616c6c6572206973206e6f7420746865206f776e657260448201526064016122fd565b603380546001600160a01b038381166001600160a01b0319831681179093556040519116919082907f8be0079c531659141344cd1fd0a4f28419497f9722a3daafe3b4186f6b6457e090600090a35050565b7f00000000000000000000000000000000000000000000000000000000000000006001600160a01b0316632072f6c56040518163ffffffff1660e01b8152600401600060405180830381600087803b1580156139b657600080fd5b505af11580156139ca573d6000803e3d6000fd5b50505050611bdd613ba9565b600054610100900460ff16613a415760405162461bcd60e51b815260206004820152602b60248201527f496e697469616c697a61626c653a20636f6e7472616374206973206e6f74206960448201526a6e697469616c697a696e6760a81b60648201526084016122fd565b611bdd33613909565b606f5460ff16613a6d57604051635386698160e01b815260040160405180910390fd5b606f805460ff191690556040517f1e5e34eea33501aecf2ebec9fe0e884a40804275ea7fe10b2ba084c8374308b390600090a1565b6040516001600160a01b038316602482015260448101829052613ad290849063a9059cbb60e01b9060640161345e565b505050565b6000613b2c826040518060400160405280602081526020017f5361666545524332303a206c6f772d6c6576656c2063616c6c206661696c6564815250856001600160a01b0316613c059092919063ffffffff16565b805190915015613ad25780806020019051810190613b4a919061484e565b613ad25760405162461bcd60e51b815260206004820152602a60248201527f5361666545524332303a204552433230206f7065726174696f6e20646964206e6044820152691bdd081cdd58d8d9595960b21b60648201526084016122fd565b606f5460ff1615613bcd57604051630bc011ff60e21b815260040160405180910390fd5b606f805460ff191660011790556040517f2261efe5aef6fedc1fd1550b25facc9181745623049c7901287030b9ad1a549790600090a1565b6060613c148484600085613c1c565b949350505050565b606082471015613c7d5760405162461bcd60e51b815260206004820152602660248201527f416464726573733a20696e73756666696369656e742062616c616e636520666f6044820152651c8818d85b1b60d21b60648201526084016122fd565b600080866001600160a01b03168587604051613c9991906147ed565b60006040518083038185875af1925050503d8060008114613cd6576040519150601f19603f3d011682016040523d82523d6000602084013e613cdb565b606091505b5091509150613cec87838387613cf7565b979650505050505050565b60608315613d66578251600003613d5f576001600160a01b0385163b613d5f5760405162461bcd60e51b815260206004820152601d60248201527f416464726573733a2063616c6c20746f206e6f6e2d636f6e747261637400000060448201526064016122fd565b5081613c14565b613c148383815115613d7b5781518083602001fd5b8060405162461bcd60e51b81526004016122fd9190613de5565b60005b83811015613db0578181015183820152602001613d98565b50506000910152565b60008151808452613dd1816020860160208601613d95565b601f01601f19169290920160200192915050565b602081526000613df86020830184613db9565b9392505050565b600060208284031215613e1157600080fd5b813561ffff81168114613df857600080fd5b80356001600160401b03811681146121ab57600080fd5b600080600080600060a08688031215613e5257600080fd5b613e5b86613e23565b9450613e6960208701613e23565b94979496505050506040830135926060810135926080909101359150565b806103008101831015613e9957600080fd5b92915050565b6000806000806000806103a08789031215613eb957600080fd5b613ec287613e23565b9550613ed060208801613e23565b9450613ede60408801613e23565b93506060870135925060808701359150613efb8860a08901613e87565b90509295509295509295565b60008060008060008060006103c0888a031215613f2357600080fd5b613f2c88613e23565b9650613f3a60208901613e23565b9550613f4860408901613e23565b9450613f5660608901613e23565b93506080880135925060a08801359150613f738960c08a01613e87565b905092959891949750929550565b600060208284031215613f9357600080fd5b613df882613e23565b80356001600160a01b03811681146121ab57600080fd5b60008083601f840112613fc557600080fd5b5081356001600160401b03811115613fdc57600080fd5b602083019150836020828501011115613ff457600080fd5b9250929050565b60008060008060006060868803121561401357600080fd5b85356001600160401b038082111561402a57600080fd5b818801915088601f83011261403e57600080fd5b81358181111561404d57600080fd5b8960208260071b850101111561406257600080fd5b6020830197508096505061407860208901613f9c565b9450604088013591508082111561408e57600080fd5b5061409b88828901613fb3565b969995985093965092949392505050565b6000602082840312156140be57600080fd5b613df882613f9c565b6000602082840312156140d957600080fd5b5035919050565b634e487b7160e01b600052604160045260246000fd5b60006001600160401b0380841115614110576141106140e0565b604051601f8501601f19908116603f01168101908282118183101715614138576141386140e0565b8160405280935085815286868601111561415157600080fd5b858560208301376000602087830101525050509392505050565b600082601f83011261417c57600080fd5b613df8838335602085016140f6565b60006020828403121561419d57600080fd5b81356001600160401b038111156141b357600080fd5b613c148482850161416b565b6000806000806000808688036101208112156141da57600080fd5b60a08112156141e857600080fd5b5086955060a0870135945060c08701356001600160401b038082111561420d57600080fd5b6142198a838b0161416b565b955060e089013591508082111561422f57600080fd5b61423b8a838b0161416b565b945061010089013591508082111561425257600080fd5b5061425f89828a01613fb3565b979a9699509497509295939492505050565b6000806020838503121561428457600080fd5b82356001600160401b038082111561429b57600080fd5b818501915085601f8301126142af57600080fd5b8135818111156142be57600080fd5b8660208260051b85010111156142d357600080fd5b60209290920196919550909350505050565b6000806000604084860312156142fa57600080fd5b83356001600160401b0381111561431057600080fd5b61431c86828701613fb3565b909790965060209590950135949350505050565b600181811c9082168061434457607f821691505b60208210810361436457634e487b7160e01b600052602260045260246000fd5b50919050565b634e487b7160e01b600052601160045260246000fd5b6001600160401b038181168382160190808211156143a0576143a061436a565b5092915050565b634e487b7160e01b600052603260045260246000fd5b6000608082840312156143cf57600080fd5b604051608081018181106001600160401b03821117156143f1576143f16140e0565b8060405250823581526020830135602082015261441060408401613e23565b604082015261442160608401613e23565b60608201529392505050565b60006001600160401b038083168181036144495761444961436a565b6001019392505050565b928352602083019190915260c01b6001600160c01b031916604082015260480190565b60006020828403121561448857600080fd5b5051919050565b9485526020850193909352604084019190915260c01b6001600160c01b0319166060808401919091521b6bffffffffffffffffffffffff19166068820152607c0190565b6000600182016144e5576144e561436a565b5060010190565b81835281816020850137506000828201602090810191909152601f909101601f19169091010190565b83815260406020820152600061452f6040830184866144ec565b95945050505050565b6001600160401b038281168282160390808211156143a0576143a061436a565b81810381811115613e9957613e9961436a565b8082028115828204841417613e9957613e9961436a565b634e487b7160e01b600052601260045260246000fd5b6000826145a7576145a7614582565b500490565b601f821115613ad257600081815260208120601f850160051c810160208610156145d35750805b601f850160051c820191505b818110156145f2578281556001016145df565b505050505050565b81516001600160401b03811115614613576146136140e0565b614627816146218454614330565b846145ac565b602080601f83116001811461465c57600084156146445750858301515b600019600386901b1c1916600185901b1785556145f2565b600085815260208120601f198616915b8281101561468b5788860151825594840194600190910190840161466c565b50858210156146a95787850151600019600388901b60f8161c191681555b5050505050600190811b01905550565b60006001600160401b038087168352808616602084015250606060408301526146e66060830184866144ec565b9695505050505050565b80820180821115613e9957613e9961436a565b60008235605e1983360301811261471957600080fd5b9190910192915050565b60006060823603121561473557600080fd5b604051606081016001600160401b038282108183111715614758576147586140e0565b81604052843591508082111561476d57600080fd5b50830136601f82011261477f57600080fd5b61478e368235602084016140f6565b825250602083013560208201526147a760408401613e23565b604082015292915050565b8183823760009101908152919050565b8481526001600160a01b03841660208201526060604082018190526000906146e690830184866144ec565b60008251614719818460208701613d95565b60008261480e5761480e614582565b500690565b61032081016103008085843782018360005b6001811015614844578151835260209283019290910190600101614825565b5050509392505050565b60006020828403121561486057600080fd5b81518015158114613df857600080fd5b60006001600160401b038084168061488a5761488a614582565b9216919091049291505056fea26469706673582212206431cacfae1d783a17ebf1680b65580c8d6902042413967623cb3c9df8a8fe2e64736f6c63430008140033",
  "linkReferences": {},
  "deployedLinkReferences": {}
}