{
  "_format": "hh-sol-artifact-1",
  "contractName": "DepositContractMock",
  "sourceName": "contracts/mocks/DepositContractMock.sol",
  "abi": [
    {
      "inputs": [],
      "stateMutability": "nonpayable",
      "type": "constructor"
    },
    {
      "inputs": [],
      "name": "MerkleTreeFull",
      "type": "error"
    },
    {
      "anonymous": false,
      "inputs": [
        {
          "indexed": false,
          "internalType": "uint8",
          "name": "version",
          "type": "uint8"
        }
      ],
      "name": "Initialized",
      "type": "event"
    },
    {
      "inputs": [
        {
          "internalType": "uint8",
          "name": "leafType",
          "type": "uint8"
        },
        {
          "internalType": "uint32",
          "name": "originNetwork",
          "type": "uint32"
        },
        {
          "internalType": "address",
          "name": "originTokenAddress",
          "type": "address"
        },
        {
          "internalType": "uint32",
          "name": "destinationNetwork",
          "type": "uint32"
        },
        {
          "internalType": "address",
          "name": "destinationAddress",
          "type": "address"
        },
        {
          "internalType": "uint256",
          "name": "amount",
          "type": "uint256"
        },
        {
          "internalType": "bytes32",
          "name": "metadataHash",
          "type": "bytes32"
        }
      ],
      "name": "deposit",
      "outputs": [],
      "stateMutability": "nonpayable",
      "type": "function"
    },
    {
      "inputs": [],
      "name": "depositCount",
      "outputs": [
        {
          "internalType": "uint256",
          "name": "",
          "type": "uint256"
        }
      ],
      "stateMutability": "view",
      "type": "function"
    },
    {
      "inputs": [],
      "name": "getDepositRoot",
      "outputs": [
        {
          "internalType": "bytes32",
          "name": "",
          "type": "bytes32"
        }
      ],
      "stateMutability": "view",
      "type": "function"
    },
    {
      "inputs": [
        {
          "internalType": "uint8",
          "name": "leafType",
          "type": "uint8"
        },
        {
          "internalType": "uint32",
          "name": "originNetwork",
          "type": "uint32"
        },
        {
          "internalType": "address",
          "name": "originAddress",
          "type": "address"
        },
        {
          "internalType": "uint32",
          "name": "destinationNetwork",
          "type": "uint32"
        },
        {
          "internalType": "address",
          "name": "destinationAddress",
          "type": "address"
        },
        {
          "internalType": "uint256",
          "name": "amount",
          "type": "uint256"
        },
        {
          "internalType": "bytes32",
          "name": "metadataHash",
          "type": "bytes32"
        }
      ],
      "name": "getLeafValue",
      "outputs": [
        {
          "internalType": "bytes32",
          "name": "",
          "type": "bytes32"
        }
      ],
      "stateMutability": "pure",
      "type": "function"
    },
    {
      "inputs": [],
      "name": "initialize",
      "outputs": [],
      "stateMutability": "nonpayable",
      "type": "function"
    },
    {
      "inputs": [
        {
          "internalType": "bytes32",
          "name": "leafHash",
          "type": "bytes32"
        },
        {
          "internalType": "bytes32[32]",
          "name": "smtProof",
          "type": "bytes32[32]"
        },
        {
          "internalType": "uint32",
          "name": "index",
          "type": "uint32"
        },
        {
          "internalType": "bytes32",
          "name": "root",
          "type": "bytes32"
        }
      ],
      "name": "verifyMerkleProof",
      "outputs": [
        {
          "internalType": "bool",
          "name": "",
          "type": "bool"
        }
      ],
      "stateMutability": "pure",
      "type": "function"
    }
  ],
  "bytecode": "0x608060405234801561001057600080fd5b5061001961001e565b61012b565b600054610100900460ff161580801561003e5750600054600160ff909116105b806100585750303b158015610058575060005460ff166001145b6100bf5760405162461bcd60e51b815260206004820152602e60248201527f496e697469616c697a61626c653a20636f6e747261637420697320616c72656160448201526d191e481a5b9a5d1a585b1a5e995960921b606482015260840160405180910390fd5b6000805460ff1916600117905580156100e2576000805461ff0019166101001790555b8015610128576000805461ff0019169055604051600181527f7f26b83ff96e1f2b6a682f133852f6798a09c465da95921460cefb38474024989060200160405180910390a15b50565b6107d88061013a6000396000f3fe608060405234801561001057600080fd5b50600436106100625760003560e01c80632dfdf0b5146100675780633ae05047146100835780633e1970431461008b5780638129fc1c1461009e57806382c01902146100a8578063fb570834146100bb575b600080fd5b61007060535481565b6040519081526020015b60405180910390f35b6100706100de565b61007061009936600461056d565b6101bb565b6100a661024d565b005b6100a66100b636600461056d565b61035a565b6100ce6100c93660046105ed565b61037a565b604051901515815260200161007a565b605354600090819081805b60208110156101b2578083901c60011660010361014657603381602081106101135761011361063b565b01546040805160208101929092528101859052606001604051602081830303815290604052805190602001209350610173565b60408051602081018690529081018390526060016040516020818303038152906040528051906020012093505b604080516020810184905290810183905260600160405160208183030381529060405280519060200120915080806101aa90610667565b9150506100e9565b50919392505050565b6040516001600160f81b031960f889901b1660208201526001600160e01b031960e088811b821660218401526bffffffffffffffffffffffff19606089811b821660258601529188901b909216603984015285901b16603d8201526051810183905260718101829052600090609101604051602081830303815290604052805190602001209050979650505050505050565b600054610100900460ff161580801561026d5750600054600160ff909116105b806102875750303b158015610287575060005460ff166001145b6102ee5760405162461bcd60e51b815260206004820152602e60248201527f496e697469616c697a61626c653a20636f6e747261637420697320616c72656160448201526d191e481a5b9a5d1a585b1a5e995960921b606482015260840160405180910390fd5b6000805460ff191660011790558015610311576000805461ff0019166101001790555b8015610357576000805461ff0019169055604051600181527f7f26b83ff96e1f2b6a682f133852f6798a09c465da95921460cefb38474024989060200160405180910390a15b50565b61037161036c888888888888886101bb565b610453565b50505050505050565b600084815b602081101561044757600163ffffffff8616821c811690036103ea578581602081106103ad576103ad61063b565b6020020135826040516020016103cd929190918252602082015260400190565b604051602081830303815290604052805190602001209150610435565b818682602081106103fd576103fd61063b565b602002013560405160200161041c929190918252602082015260400190565b6040516020818303038152906040528051906020012091505b8061043f81610667565b91505061037f565b50909114949350505050565b80600161046260206002610766565b61046c9190610779565b6053541061048d576040516377ae67b360e11b815260040160405180910390fd5b600060536000815461049e90610667565b9182905550905060005b602081101561052f578082901c6001166001036104db5782603382602081106104d3576104d361063b565b015550505050565b603381602081106104ee576104ee61063b565b01546040805160208101929092528101849052606001604051602081830303815290604052805190602001209250808061052790610667565b9150506104a8565b5061053861078c565b505050565b803563ffffffff8116811461055157600080fd5b919050565b80356001600160a01b038116811461055157600080fd5b600080600080600080600060e0888a03121561058857600080fd5b873560ff8116811461059957600080fd5b96506105a76020890161053d565b95506105b560408901610556565b94506105c36060890161053d565b93506105d160808901610556565b925060a0880135915060c0880135905092959891949750929550565b600080600080610460858703121561060457600080fd5b8435935061042085018681111561061a57600080fd5b6020860193506106298161053d565b94979396509394610440013593505050565b634e487b7160e01b600052603260045260246000fd5b634e487b7160e01b600052601160045260246000fd5b60006001820161067957610679610651565b5060010190565b600181815b808511156106bb5781600019048211156106a1576106a1610651565b808516156106ae57918102915b93841c9390800290610685565b509250929050565b6000826106d257506001610760565b816106df57506000610760565b81600181146106f557600281146106ff5761071b565b6001915050610760565b60ff84111561071057610710610651565b50506001821b610760565b5060208310610133831016604e8410600b841016171561073e575081810a610760565b6107488383610680565b806000190482111561075c5761075c610651565b0290505b92915050565b600061077283836106c3565b9392505050565b8181038181111561076057610760610651565b634e487b7160e01b600052600160045260246000fdfea264697066735822122078b545fe6b04142405fa82437872445161481f44adfbadc1453ff400e50db51364736f6c63430008140033",
  "linkReferences": {},
  "deployedLinkReferences": {}
}