{
  "_format": "hh-sol-artifact-1",
  "contractName": "ERC20WeirdMetadata",
  "sourceName": "contracts/mocks/ERC20WeirdMetadata.sol",
  "abi": [
    {
      "inputs": [
        {
          "internalType": "bytes32",
          "name": "name_",
          "type": "bytes32"
        },
        {
          "internalType": "bytes",
          "name": "symbol_",
          "type": "bytes"
        },
        {
          "internalType": "uint256",
          "name": "decimals_",
          "type": "uint256"
        }
      ],
      "stateMutability": "nonpayable",
      "type": "constructor"
    },
    {
      "anonymous": false,
      "inputs": [
        {
          "indexed": true,
          "internalType": "address",
          "name": "owner",
          "type": "address"
        },
        {
          "indexed": true,
          "internalType": "address",
          "name": "spender",
          "type": "address"
        },
        {
          "indexed": false,
          "internalType": "uint256",
          "name": "value",
          "type": "uint256"
        }
      ],
      "name": "Approval",
      "type": "event"
    },
    {
      "anonymous": false,
      "inputs": [
        {
          "indexed": true,
          "internalType": "address",
          "name": "from",
          "type": "address"
        },
        {
          "indexed": true,
          "internalType": "address",
          "name": "to",
          "type": "address"
        },
        {
          "indexed": false,
          "internalType": "uint256",
          "name": "value",
          "type": "uint256"
        }
      ],
      "name": "Transfer",
      "type": "event"
    },
    {
      "inputs": [
        {
          "internalType": "address",
          "name": "owner",
          "type": "address"
        },
        {
          "internalType": "address",
          "name": "spender",
          "type": "address"
        }
      ],
      "name": "allowance",
      "outputs": [
        {
          "internalType": "uint256",
          "name": "",
          "type": "uint256"
        }
      ],
      "stateMutability": "view",
      "type": "function"
    },
    {
      "inputs": [
        {
          "internalType": "address",
          "name": "spender",
          "type": "address"
        },
        {
          "internalType": "uint256",
          "name": "amount",
          "type": "uint256"
        }
      ],
      "name": "approve",
      "outputs": [
        {
          "internalType": "bool",
          "name": "",
          "type": "bool"
        }
      ],
      "stateMutability": "nonpayable",
      "type": "function"
    },
    {
      "inputs": [
        {
          "internalType": "address",
          "name": "account",
          "type": "address"
        }
      ],
      "name": "balanceOf",
      "outputs": [
        {
          "internalType": "uint256",
          "name": "",
          "type": "uint256"
        }
      ],
      "stateMutability": "view",
      "type": "function"
    },
    {
      "inputs": [],
      "name": "decimals",
      "outputs": [
        {
          "internalType": "uint256",
          "name": "",
          "type": "uint256"
        }
      ],
      "stateMutability": "view",
      "type": "function"
    },
    {
      "inputs": [
        {
          "internalType": "address",
          "name": "spender",
          "type": "address"
        },
        {
          "internalType": "uint256",
          "name": "subtractedValue",
          "type": "uint256"
        }
      ],
      "name": "decreaseAllowance",
      "outputs": [
        {
          "internalType": "bool",
          "name": "",
          "type": "bool"
        }
      ],
      "stateMutability": "nonpayable",
      "type": "function"
    },
    {
      "inputs": [
        {
          "internalType": "address",
          "name": "spender",
          "type": "address"
        },
        {
          "internalType": "uint256",
          "name": "addedValue",
          "type": "uint256"
        }
      ],
      "name": "increaseAllowance",
      "outputs": [
        {
          "internalType": "bool",
          "name": "",
          "type": "bool"
        }
      ],
      "stateMutability": "nonpayable",
      "type": "function"
    },
    {
      "inputs": [],
      "name": "isRevert",
      "outputs": [
        {
          "internalType": "bool",
          "name": "",
          "type": "bool"
        }
      ],
      "stateMutability": "view",
      "type": "function"
    },
    {
      "inputs": [
        {
          "internalType": "address",
          "name": "account",
          "type": "address"
        },
        {
          "internalType": "uint256",
          "name": "amount",
          "type": "uint256"
        }
      ],
      "name": "mint",
      "outputs": [],
      "stateMutability": "nonpayable",
      "type": "function"
    },
    {
      "inputs": [],
      "name": "name",
      "outputs": [
        {
          "internalType": "bytes32",
          "name": "",
          "type": "bytes32"
        }
      ],
      "stateMutability": "view",
      "type": "function"
    },
    {
      "inputs": [
        {
          "internalType": "uint256",
          "name": "newDecimals",
          "type": "uint256"
        }
      ],
      "name": "setDecimals",
      "outputs": [],
      "stateMutability": "nonpayable",
      "type": "function"
    },
    {
      "inputs": [],
      "name": "symbol",
      "outputs": [
        {
          "internalType": "bytes",
          "name": "",
          "type": "bytes"
        }
      ],
      "stateMutability": "view",
      "type": "function"
    },
    {
      "inputs": [],
      "name": "toggleIsRevert",
      "outputs": [],
      "stateMutability": "nonpayable",
      "type": "function"
    },
    {
      "inputs": [],
      "name": "totalSupply",
      "outputs": [
        {
          "internalType": "uint256",
          "name": "",
          "type": "uint256"
        }
      ],
      "stateMutability": "view",
      "type": "function"
    },
    {
      "inputs": [
        {
          "internalType": "address",
          "name": "to",
          "type": "address"
        },
        {
          "internalType": "uint256",
          "name": "amount",
          "type": "uint256"
        }
      ],
      "name": "transfer",
      "outputs": [
        {
          "internalType": "bool",
          "name": "",
          "type": "bool"
        }
      ],
      "stateMutability": "nonpayable",
      "type": "function"
    },
    {
      "inputs": [
        {
          "internalType": "address",
          "name": "from",
          "type": "address"
        },
        {
          "internalType": "address",
          "name": "to",
          "type": "address"
        },
        {
          "internalType": "uint256",
          "name": "amount",
          "type": "uint256"
        }
      ],
      "name": "transferFrom",
      "outputs": [
        {
          "internalType": "bool",
          "name": "",
          "type": "bool"
        }
      ],
      "stateMutability": "nonpayable",
      "type": "function"
    }
  ],
  "bytecode": "0x60806040523480156200001157600080fd5b5060405162000cbd38038062000cbd83398101604081905262000034916200006a565b60038390556004620000478382620001e2565b5060055550620002ae9050565b634e487b7160e01b600052604160045260246000fd5b6000806000606084860312156200008057600080fd5b8351602080860151919450906001600160401b0380821115620000a257600080fd5b818701915087601f830112620000b757600080fd5b815181811115620000cc57620000cc62000054565b604051601f8201601f19908116603f01168101908382118183101715620000f757620000f762000054565b816040528281528a868487010111156200011057600080fd5b600093505b8284101562000134578484018601518185018701529285019262000115565b6000868483010152809750505050505050604084015190509250925092565b600181811c908216806200016857607f821691505b6020821081036200018957634e487b7160e01b600052602260045260246000fd5b50919050565b601f821115620001dd57600081815260208120601f850160051c81016020861015620001b85750805b601f850160051c820191505b81811015620001d957828155600101620001c4565b5050505b505050565b81516001600160401b03811115620001fe57620001fe62000054565b62000216816200020f845462000153565b846200018f565b602080601f8311600181146200024e5760008415620002355750858301515b600019600386901b1c1916600185901b178555620001d9565b600085815260208120601f198616915b828110156200027f578886015182559484019460019091019084016200025e565b50858210156200029e5787850151600019600388901b60f8161c191681555b5050505050600190811b01905550565b6109ff80620002be6000396000f3fe608060405234801561001057600080fd5b50600436106100f55760003560e01c80633ccafd111161009757806395d89b411161006657806395d89b41146101e3578063a457c2d7146101f8578063a9059cbb1461020b578063dd62ed3e1461021e57600080fd5b80633ccafd111461018757806340c10f191461019457806370a08231146101a75780638c8885c8146101d057600080fd5b806318160ddd116100d357806318160ddd1461015157806323b872dd14610159578063313ce5671461016c578063395093511461017457600080fd5b806306fdde03146100fa578063095ea7b31461011557806315a87bee14610138575b600080fd5b610102610231565b6040519081526020015b60405180910390f35b61012861012336600461084c565b61024b565b604051901515815260200161010c565b61014f6006805460ff19811660ff90911615179055565b005b600254610102565b610128610167366004610876565b610265565b610102610289565b61012861018236600461084c565b6102a3565b6006546101289060ff1681565b61014f6101a236600461084c565b6102c5565b6101026101b53660046108b2565b6001600160a01b031660009081526020819052604090205490565b61014f6101de3660046108d4565b600555565b6101eb6102d3565b60405161010c91906108ed565b61012861020636600461084c565b610376565b61012861021936600461084c565b6103f6565b61010261022c36600461093b565b610404565b60065460009060ff161561024457600080fd5b5060035490565b60003361025981858561042f565b60019150505b92915050565b600033610273858285610553565b61027e8585856105cd565b506001949350505050565b60065460009060ff161561029c57600080fd5b5060055490565b6000336102598185856102b68383610404565b6102c0919061096e565b61042f565b6102cf8282610771565b5050565b60065460609060ff16156102e657600080fd5b600480546102f39061098f565b80601f016020809104026020016040519081016040528092919081815260200182805461031f9061098f565b801561036c5780601f106103415761010080835404028352916020019161036c565b820191906000526020600020905b81548152906001019060200180831161034f57829003601f168201915b5050505050905090565b600033816103848286610404565b9050838110156103e95760405162461bcd60e51b815260206004820152602560248201527f45524332303a2064656372656173656420616c6c6f77616e63652062656c6f77604482015264207a65726f60d81b60648201526084015b60405180910390fd5b61027e828686840361042f565b6000336102598185856105cd565b6001600160a01b03918216600090815260016020908152604080832093909416825291909152205490565b6001600160a01b0383166104915760405162461bcd60e51b8152602060048201526024808201527f45524332303a20617070726f76652066726f6d20746865207a65726f206164646044820152637265737360e01b60648201526084016103e0565b6001600160a01b0382166104f25760405162461bcd60e51b815260206004820152602260248201527f45524332303a20617070726f766520746f20746865207a65726f206164647265604482015261737360f01b60648201526084016103e0565b6001600160a01b0383811660008181526001602090815260408083209487168084529482529182902085905590518481527f8c5be1e5ebec7d5bd14f71427d1e84f3dd0314c0f7b2291e5b200ac8c7c3b925910160405180910390a3505050565b600061055f8484610404565b905060001981146105c757818110156105ba5760405162461bcd60e51b815260206004820152601d60248201527f45524332303a20696e73756666696369656e7420616c6c6f77616e636500000060448201526064016103e0565b6105c7848484840361042f565b50505050565b6001600160a01b0383166106315760405162461bcd60e51b815260206004820152602560248201527f45524332303a207472616e736665722066726f6d20746865207a65726f206164604482015264647265737360d81b60648201526084016103e0565b6001600160a01b0382166106935760405162461bcd60e51b815260206004820152602360248201527f45524332303a207472616e7366657220746f20746865207a65726f206164647260448201526265737360e81b60648201526084016103e0565b6001600160a01b0383166000908152602081905260409020548181101561070b5760405162461bcd60e51b815260206004820152602660248201527f45524332303a207472616e7366657220616d6f756e7420657863656564732062604482015265616c616e636560d01b60648201526084016103e0565b6001600160a01b03848116600081815260208181526040808320878703905593871680835291849020805487019055925185815290927fddf252ad1be2c89b69c2b068fc378daa952ba7f163c4a11628f55a4df523b3ef910160405180910390a36105c7565b6001600160a01b0382166107c75760405162461bcd60e51b815260206004820152601f60248201527f45524332303a206d696e7420746f20746865207a65726f20616464726573730060448201526064016103e0565b80600260008282546107d9919061096e565b90915550506001600160a01b038216600081815260208181526040808320805486019055518481527fddf252ad1be2c89b69c2b068fc378daa952ba7f163c4a11628f55a4df523b3ef910160405180910390a35050565b80356001600160a01b038116811461084757600080fd5b919050565b6000806040838503121561085f57600080fd5b61086883610830565b946020939093013593505050565b60008060006060848603121561088b57600080fd5b61089484610830565b92506108a260208501610830565b9150604084013590509250925092565b6000602082840312156108c457600080fd5b6108cd82610830565b9392505050565b6000602082840312156108e657600080fd5b5035919050565b600060208083528351808285015260005b8181101561091a578581018301518582016040015282016108fe565b506000604082860101526040601f19601f8301168501019250505092915050565b6000806040838503121561094e57600080fd5b61095783610830565b915061096560208401610830565b90509250929050565b8082018082111561025f57634e487b7160e01b600052601160045260246000fd5b600181811c908216806109a357607f821691505b6020821081036109c357634e487b7160e01b600052602260045260246000fd5b5091905056fea26469706673582212205b6387ae22c0aef906a5037c2ca9412bdffe2f0ccbeeca72e098a5993ff9385364736f6c63430008140033",
  "linkReferences": {},
  "deployedLinkReferences": {}
}