{
  "_format": "hh-sol-artifact-1",
  "contractName": "UpChainExchange",
  "sourceName": "contracts/UpChainExchange.sol",
  "abi": [
    {
      "inputs": [
        {
          "internalType": "address",
          "name": "_admin",
          "type": "address"
        }
      ],
      "stateMutability": "nonpayable",
      "type": "constructor"
    },
    {
      "anonymous": false,
      "inputs": [
        {
          "indexed": true,
          "internalType": "address",
          "name": "admin",
          "type": "address"
        },
        {
          "indexed": true,
          "internalType": "address",
          "name": "newAdmin",
          "type": "address"
        }
      ],
      "name": "AdminChanged",
      "type": "event"
    },
    {
      "anonymous": false,
      "inputs": [
        {
          "indexed": true,
          "internalType": "address",
          "name": "sender",
          "type": "address"
        },
        {
          "indexed": true,
          "internalType": "address",
          "name": "token",
          "type": "address"
        },
        {
          "indexed": true,
          "internalType": "address",
          "name": "to",
          "type": "address"
        },
        {
          "indexed": false,
          "internalType": "uint256",
          "name": "amount",
          "type": "uint256"
        }
      ],
      "name": "ExchangeETHForToken",
      "type": "event"
    },
    {
      "anonymous": false,
      "inputs": [
        {
          "indexed": true,
          "internalType": "address",
          "name": "sender",
          "type": "address"
        },
        {
          "indexed": true,
          "internalType": "address",
          "name": "token",
          "type": "address"
        },
        {
          "indexed": true,
          "internalType": "address",
          "name": "to",
          "type": "address"
        },
        {
          "indexed": false,
          "internalType": "uint256",
          "name": "amount",
          "type": "uint256"
        }
      ],
      "name": "ExchangeTokenForETH",
      "type": "event"
    },
    {
      "anonymous": false,
      "inputs": [
        {
          "indexed": true,
          "internalType": "address",
          "name": "previousOwner",
          "type": "address"
        },
        {
          "indexed": true,
          "internalType": "address",
          "name": "newOwner",
          "type": "address"
        }
      ],
      "name": "OwnershipTransferred",
      "type": "event"
    },
    {
      "anonymous": false,
      "inputs": [
        {
          "indexed": false,
          "internalType": "address",
          "name": "account",
          "type": "address"
        }
      ],
      "name": "Paused",
      "type": "event"
    },
    {
      "anonymous": false,
      "inputs": [
        {
          "indexed": true,
          "internalType": "address",
          "name": "sender",
          "type": "address"
        },
        {
          "indexed": true,
          "internalType": "address",
          "name": "pegToken",
          "type": "address"
        }
      ],
      "name": "PegTokenAdded",
      "type": "event"
    },
    {
      "anonymous": false,
      "inputs": [
        {
          "indexed": true,
          "internalType": "address",
          "name": "sender",
          "type": "address"
        },
        {
          "indexed": true,
          "internalType": "address",
          "name": "pegToken",
          "type": "address"
        }
      ],
      "name": "PegTokenRemoved",
      "type": "event"
    },
    {
      "anonymous": false,
      "inputs": [
        {
          "indexed": false,
          "internalType": "address",
          "name": "account",
          "type": "address"
        }
      ],
      "name": "Unpaused",
      "type": "event"
    },
    {
      "stateMutability": "payable",
      "type": "fallback"
    },
    {
      "inputs": [
        {
          "internalType": "address",
          "name": "pegToken",
          "type": "address"
        }
      ],
      "name": "addPegToken",
      "outputs": [],
      "stateMutability": "nonpayable",
      "type": "function"
    },
    {
      "inputs": [],
      "name": "admin",
      "outputs": [
        {
          "internalType": "address",
          "name": "",
          "type": "address"
        }
      ],
      "stateMutability": "view",
      "type": "function"
    },
    {
      "inputs": [],
      "name": "ethPegTokensCount",
      "outputs": [
        {
          "internalType": "uint256",
          "name": "",
          "type": "uint256"
        }
      ],
      "stateMutability": "view",
      "type": "function"
    },
    {
      "inputs": [
        {
          "internalType": "address",
          "name": "token",
          "type": "address"
        },
        {
          "internalType": "address",
          "name": "to",
          "type": "address"
        }
      ],
      "name": "exchangeETHForToken",
      "outputs": [],
      "stateMutability": "payable",
      "type": "function"
    },
    {
      "inputs": [
        {
          "internalType": "address",
          "name": "token",
          "type": "address"
        },
        {
          "internalType": "address",
          "name": "to",
          "type": "address"
        },
        {
          "internalType": "uint256",
          "name": "amount",
          "type": "uint256"
        }
      ],
      "name": "exchangeTokenForETH",
      "outputs": [],
      "stateMutability": "nonpayable",
      "type": "function"
    },
    {
      "inputs": [],
      "name": "getBalance",
      "outputs": [
        {
          "internalType": "uint256",
          "name": "",
          "type": "uint256"
        }
      ],
      "stateMutability": "view",
      "type": "function"
    },
    {
      "inputs": [
        {
          "internalType": "address",
          "name": "token",
          "type": "address"
        }
      ],
      "name": "isEthPegToken",
      "outputs": [
        {
          "internalType": "bool",
          "name": "",
          "type": "bool"
        }
      ],
      "stateMutability": "view",
      "type": "function"
    },
    {
      "inputs": [],
      "name": "owner",
      "outputs": [
        {
          "internalType": "address",
          "name": "",
          "type": "address"
        }
      ],
      "stateMutability": "view",
      "type": "function"
    },
    {
      "inputs": [],
      "name": "pause",
      "outputs": [],
      "stateMutability": "nonpayable",
      "type": "function"
    },
    {
      "inputs": [],
      "name": "paused",
      "outputs": [
        {
          "internalType": "bool",
          "name": "",
          "type": "bool"
        }
      ],
      "stateMutability": "view",
      "type": "function"
    },
    {
      "inputs": [],
      "name": "pegTokens",
      "outputs": [
        {
          "internalType": "address[]",
          "name": "",
          "type": "address[]"
        }
      ],
      "stateMutability": "view",
      "type": "function"
    },
    {
      "inputs": [
        {
          "internalType": "address",
          "name": "pegToken",
          "type": "address"
        }
      ],
      "name": "removePegToken",
      "outputs": [],
      "stateMutability": "nonpayable",
      "type": "function"
    },
    {
      "inputs": [],
      "name": "renounceOwnership",
      "outputs": [],
      "stateMutability": "nonpayable",
      "type": "function"
    },
    {
      "inputs": [
        {
          "internalType": "address",
          "name": "newOwner",
          "type": "address"
        }
      ],
      "name": "transferOwnership",
      "outputs": [],
      "stateMutability": "nonpayable",
      "type": "function"
    },
    {
      "inputs": [],
      "name": "unpause",
      "outputs": [],
      "stateMutability": "nonpayable",
      "type": "function"
    },
    {
      "inputs": [
        {
          "internalType": "address",
          "name": "to",
          "type": "address"
        },
        {
          "internalType": "uint256",
          "name": "amount",
          "type": "uint256"
        }
      ],
      "name": "withdrawETH",
      "outputs": [],
      "stateMutability": "nonpayable",
      "type": "function"
    },
    {
      "stateMutability": "payable",
      "type": "receive"
    }
  ],
  "bytecode": "0x60a060405234801561001057600080fd5b506040516111b93803806111b983398101604081905261002f916100a7565b61003833610057565b600180556002805460ff191690556001600160a01b03166080526100d7565b600080546001600160a01b038381166001600160a01b0319831681178455604051919092169283917f8be0079c531659141344cd1fd0a4f28419497f9722a3daafe3b4186f6b6457e09190a35050565b6000602082840312156100b957600080fd5b81516001600160a01b03811681146100d057600080fd5b9392505050565b6080516110a4610115600039600081816102c70152818161043c0152818161058a015281816105dc0152818161080c015261090e01526110a46000f3fe6080604052600436106100eb5760003560e01c806365741509116100845780638da5cb5b116100565780638da5cb5b14610243578063e2bc550314610275578063f2fde38b14610295578063f851a440146102b557005b806365741509146101e45780637145a3de14610204578063715018a6146102195780638456cb591461022e57005b80633f4ba83a116100bd5780633f4ba83a1461016b5780634782f779146101805780635c975abb146101a0578063630a9155146101c457005b8063021fab3e146100f457806312065fe014610107578063252b5391146101295780632bf5a7a51461014b57005b366100f257005b005b6100f2610102366004610e24565b6102e9565b34801561011357600080fd5b50475b6040519081526020015b60405180910390f35b34801561013557600080fd5b5061013e610420565b6040516101209190610e57565b34801561015757600080fd5b506100f2610166366004610ea4565b610431565b34801561017757600080fd5b506100f261057f565b34801561018c57600080fd5b506100f261019b366004610ebf565b6105d1565b3480156101ac57600080fd5b5060025460ff165b6040519015158152602001610120565b3480156101d057600080fd5b506100f26101df366004610ee9565b610696565b3480156101f057600080fd5b506100f26101ff366004610ea4565b610801565b34801561021057600080fd5b506101166108e5565b34801561022557600080fd5b506100f26108f1565b34801561023a57600080fd5b506100f2610903565b34801561024f57600080fd5b506000546001600160a01b03165b6040516001600160a01b039091168152602001610120565b34801561028157600080fd5b506101b4610290366004610ea4565b610953565b3480156102a157600080fd5b506100f26102b0366004610ea4565b610966565b3480156102c157600080fd5b5061025d7f000000000000000000000000000000000000000000000000000000000000000081565b6102f16109df565b816102fb81610953565b6103205760405162461bcd60e51b815260040161031790610f25565b60405180910390fd5b610328610a25565b600034116103485760405162461bcd60e51b815260040161031790610f6d565b60405163a9059cbb60e01b81526001600160a01b03838116600483015234602483015284169063a9059cbb906044016020604051808303816000875af1158015610396573d6000803e3d6000fd5b505050506040513d601f19601f820116820180604052508101906103ba9190610fb9565b50816001600160a01b0316836001600160a01b0316336001600160a01b03167f40784dd2af629d103a1ec12e7f3e558b8e8bd97f582ff60d8dc7841846c180303460405161040a91815260200190565b60405180910390a461041b60018055565b505050565b606061042c6003610a7e565b905090565b336001600160a01b037f000000000000000000000000000000000000000000000000000000000000000016146104795760405162461bcd60e51b815260040161031790610fdb565b6001600160a01b0381166104e35760405162461bcd60e51b815260206004820152602b60248201527f5a6b62697445786368616e67653a20706567546f6b656e20697320746865207a60448201526a65726f206164647265737360a81b6064820152608401610317565b6104ee600382610a92565b6105465760405162461bcd60e51b815260206004820152602360248201527f5a6b62697445786368616e67653a20746f6b656e20616c72656164792065786960448201526273747360e81b6064820152608401610317565b6040516001600160a01b0382169033907f3ad5a7115f026d5beca69e6bb0f163082461be7bd2d1b138af293851562ac7ae90600090a350565b336001600160a01b037f000000000000000000000000000000000000000000000000000000000000000016146105c75760405162461bcd60e51b815260040161031790610fdb565b6105cf610aa7565b565b336001600160a01b037f000000000000000000000000000000000000000000000000000000000000000016146106195760405162461bcd60e51b815260040161031790610fdb565b804710156106605760405162461bcd60e51b8152602060048201526014602482015273696e73756666696369656e742062616c616e636560601b6044820152606401610317565b6040516001600160a01b0383169082156108fc029083906000818181858888f1935050505015801561041b573d6000803e3d6000fd5b61069e6109df565b826106a881610953565b6106c45760405162461bcd60e51b815260040161031790610f25565b6106cc610a25565b600082116106ec5760405162461bcd60e51b815260040161031790610f6d565b6040516323b872dd60e01b8152336004820152306024820152604481018390526001600160a01b038516906323b872dd906064016020604051808303816000875af115801561073f573d6000803e3d6000fd5b505050506040513d601f19601f820116820180604052508101906107639190610fb9565b506040516001600160a01b0384169083156108fc029084906000818181858888f1935050505015801561079a573d6000803e3d6000fd5b50826001600160a01b0316846001600160a01b0316336001600160a01b03167faa055f40d6d9b3d4ab6dcec8b1d8ebbf498dcc5626551c6168a0fb9075c820c2856040516107ea91815260200190565b60405180910390a46107fb60018055565b50505050565b336001600160a01b037f000000000000000000000000000000000000000000000000000000000000000016146108495760405162461bcd60e51b815260040161031790610fdb565b610854600382610af9565b6108ac5760405162461bcd60e51b815260206004820152602360248201527f5a6b62697445786368616e67653a20746f6b656e20646f6573206e6f742065786044820152621a5cdd60ea1b6064820152608401610317565b6040516001600160a01b0382169033907fb9128462375c29d77d6efedda0c7b55dc497ad2a2191c4dac3ea4a4b41741d4e90600090a350565b600061042c6003610b0e565b6108f9610b18565b6105cf6000610b72565b336001600160a01b037f0000000000000000000000000000000000000000000000000000000000000000161461094b5760405162461bcd60e51b815260040161031790610fdb565b6105cf610bc2565b6000610960600383610bff565b92915050565b61096e610b18565b6001600160a01b0381166109d35760405162461bcd60e51b815260206004820152602660248201527f4f776e61626c653a206e6577206f776e657220697320746865207a65726f206160448201526564647265737360d01b6064820152608401610317565b6109dc81610b72565b50565b60025460ff16156105cf5760405162461bcd60e51b815260206004820152601060248201526f14185d5cd8589b194e881c185d5cd95960821b6044820152606401610317565b600260015403610a775760405162461bcd60e51b815260206004820152601f60248201527f5265656e7472616e637947756172643a207265656e7472616e742063616c6c006044820152606401610317565b6002600155565b60606000610a8b83610c21565b9392505050565b6000610a8b836001600160a01b038416610c7d565b610aaf610ccc565b6002805460ff191690557f5db9ee0a495bf2e6ff9c91a7834c1ba4fdd244a5e8aa4e537bd38aeae4b073aa335b6040516001600160a01b03909116815260200160405180910390a1565b6000610a8b836001600160a01b038416610d15565b6000610960825490565b6000546001600160a01b031633146105cf5760405162461bcd60e51b815260206004820181905260248201527f4f776e61626c653a2063616c6c6572206973206e6f7420746865206f776e65726044820152606401610317565b600080546001600160a01b038381166001600160a01b0319831681178455604051919092169283917f8be0079c531659141344cd1fd0a4f28419497f9722a3daafe3b4186f6b6457e09190a35050565b610bca6109df565b6002805460ff191660011790557f62e78cea01bee320cd4e420270b5ea74000d11b0c9f74754ebdbfc544b05a258610adc3390565b6001600160a01b03811660009081526001830160205260408120541515610a8b565b606081600001805480602002602001604051908101604052809291908181526020018280548015610c7157602002820191906000526020600020905b815481526020019060010190808311610c5d575b50505050509050919050565b6000818152600183016020526040812054610cc457508154600181810184556000848152602080822090930184905584548482528286019093526040902091909155610960565b506000610960565b60025460ff166105cf5760405162461bcd60e51b815260206004820152601460248201527314185d5cd8589b194e881b9bdd081c185d5cd95960621b6044820152606401610317565b60008181526001830160205260408120548015610dfe576000610d39600183611021565b8554909150600090610d4d90600190611021565b9050818114610db2576000866000018281548110610d6d57610d6d611042565b9060005260206000200154905080876000018481548110610d9057610d90611042565b6000918252602080832090910192909255918252600188019052604090208390555b8554869080610dc357610dc3611058565b600190038181906000526020600020016000905590558560010160008681526020019081526020016000206000905560019350505050610960565b6000915050610960565b80356001600160a01b0381168114610e1f57600080fd5b919050565b60008060408385031215610e3757600080fd5b610e4083610e08565b9150610e4e60208401610e08565b90509250929050565b6020808252825182820181905260009190848201906040850190845b81811015610e985783516001600160a01b031683529284019291840191600101610e73565b50909695505050505050565b600060208284031215610eb657600080fd5b610a8b82610e08565b60008060408385031215610ed257600080fd5b610edb83610e08565b946020939093013593505050565b600080600060608486031215610efe57600080fd5b610f0784610e08565b9250610f1560208501610e08565b9150604084013590509250925092565b60208082526028908201527f5a6b62697445786368616e67653a20746f6b656e206973206e6f7420746865206040820152673832b3aa37b5b2b760c11b606082015260800190565b6020808252602c908201527f5a6b62697445786368616e67653a20616d6f756e74206d75737420626520677260408201526b06561746572207468616e20360a41b606082015260800190565b600060208284031215610fcb57600080fd5b81518015158114610a8b57600080fd5b60208082526026908201527f5a6b62697445786368616e67653a2063616c6c6572206973206e6f74207468656040820152651030b236b4b760d11b606082015260800190565b8181038181111561096057634e487b7160e01b600052601160045260246000fd5b634e487b7160e01b600052603260045260246000fd5b634e487b7160e01b600052603160045260246000fdfea26469706673582212206b822834503d852e6e84c634ffbf8a75bf8eba9e3d0b965ff00c00fd9dbf3e2f64736f6c63430008140033",
  "linkReferences": {},
  "deployedLinkReferences": {}
}