{
  "_format": "hh-sol-artifact-1",
  "contractName": "CDKDataCommittee",
  "sourceName": "contracts/CDKDataCommittee.sol",
  "abi": [
    {
      "inputs": [],
      "name": "CommitteeAddressDoesntExist",
      "type": "error"
    },
    {
      "inputs": [],
      "name": "EmptyURLNotAllowed",
      "type": "error"
    },
    {
      "inputs": [],
      "name": "TooManyRequiredSignatures",
      "type": "error"
    },
    {
      "inputs": [],
      "name": "UnexpectedAddrsAndSignaturesSize",
      "type": "error"
    },
    {
      "inputs": [],
      "name": "UnexpectedAddrsBytesLength",
      "type": "error"
    },
    {
      "inputs": [],
      "name": "UnexpectedCommitteeHash",
      "type": "error"
    },
    {
      "inputs": [],
      "name": "WrongAddrOrder",
      "type": "error"
    },
    {
      "anonymous": false,
      "inputs": [
        {
          "indexed": false,
          "internalType": "bytes32",
          "name": "committeeHash",
          "type": "bytes32"
        }
      ],
      "name": "CommitteeUpdated",
      "type": "event"
    },
    {
      "anonymous": false,
      "inputs": [
        {
          "indexed": false,
          "internalType": "uint8",
          "name": "version",
          "type": "uint8"
        }
      ],
      "name": "Initialized",
      "type": "event"
    },
    {
      "anonymous": false,
      "inputs": [
        {
          "indexed": true,
          "internalType": "address",
          "name": "previousOwner",
          "type": "address"
        },
        {
          "indexed": true,
          "internalType": "address",
          "name": "newOwner",
          "type": "address"
        }
      ],
      "name": "OwnershipTransferred",
      "type": "event"
    },
    {
      "inputs": [],
      "name": "committeeHash",
      "outputs": [
        {
          "internalType": "bytes32",
          "name": "",
          "type": "bytes32"
        }
      ],
      "stateMutability": "view",
      "type": "function"
    },
    {
      "inputs": [],
      "name": "getAmountOfMembers",
      "outputs": [
        {
          "internalType": "uint256",
          "name": "",
          "type": "uint256"
        }
      ],
      "stateMutability": "view",
      "type": "function"
    },
    {
      "inputs": [],
      "name": "initialize",
      "outputs": [],
      "stateMutability": "nonpayable",
      "type": "function"
    },
    {
      "inputs": [
        {
          "internalType": "uint256",
          "name": "",
          "type": "uint256"
        }
      ],
      "name": "members",
      "outputs": [
        {
          "internalType": "string",
          "name": "url",
          "type": "string"
        },
        {
          "internalType": "address",
          "name": "addr",
          "type": "address"
        }
      ],
      "stateMutability": "view",
      "type": "function"
    },
    {
      "inputs": [],
      "name": "owner",
      "outputs": [
        {
          "internalType": "address",
          "name": "",
          "type": "address"
        }
      ],
      "stateMutability": "view",
      "type": "function"
    },
    {
      "inputs": [],
      "name": "renounceOwnership",
      "outputs": [],
      "stateMutability": "nonpayable",
      "type": "function"
    },
    {
      "inputs": [],
      "name": "requiredAmountOfSignatures",
      "outputs": [
        {
          "internalType": "uint256",
          "name": "",
          "type": "uint256"
        }
      ],
      "stateMutability": "view",
      "type": "function"
    },
    {
      "inputs": [
        {
          "internalType": "uint256",
          "name": "_requiredAmountOfSignatures",
          "type": "uint256"
        },
        {
          "internalType": "string[]",
          "name": "urls",
          "type": "string[]"
        },
        {
          "internalType": "bytes",
          "name": "addrsBytes",
          "type": "bytes"
        }
      ],
      "name": "setupCommittee",
      "outputs": [],
      "stateMutability": "nonpayable",
      "type": "function"
    },
    {
      "inputs": [
        {
          "internalType": "address",
          "name": "newOwner",
          "type": "address"
        }
      ],
      "name": "transferOwnership",
      "outputs": [],
      "stateMutability": "nonpayable",
      "type": "function"
    },
    {
      "inputs": [
        {
          "internalType": "bytes32",
          "name": "signedHash",
          "type": "bytes32"
        },
        {
          "internalType": "bytes",
          "name": "signaturesAndAddrs",
          "type": "bytes"
        }
      ],
      "name": "verifySignatures",
      "outputs": [],
      "stateMutability": "view",
      "type": "function"
    }
  ],
  "bytecode": "0x608060405234801561001057600080fd5b50611145806100206000396000f3fe608060405234801561001057600080fd5b506004361061009e5760003560e01c80638129fc1c116100665780638129fc1c1461010a5780638da5cb5b14610112578063c7a823e01461012d578063dce1e2b614610140578063f2fde38b1461014857600080fd5b8063078fba2a146100a35780635daf08ca146100b8578063609d4544146100e25780636beedd39146100f9578063715018a614610102575b600080fd5b6100b66100b1366004610c84565b61015b565b005b6100cb6100c6366004610d2f565b6103af565b6040516100d9929190610d48565b60405180910390f35b6100eb60665481565b6040519081526020016100d9565b6100eb60655481565b6100b6610474565b6100b6610488565b6033546040516001600160a01b0390911681526020016100d9565b6100b661013b366004610da8565b61059e565b6067546100eb565b6100b6610156366004610df4565b610799565b61016361080f565b82858110156101855760405163173ee6b760e11b815260040160405180910390fd5b610190601482610e3a565b82146101af57604051632ab6a12960e01b815260040160405180910390fd5b6101bb60676000610ba8565b6000805b828110156103535760006101d4601483610e3a565b905060008682876101e6601483610e51565b926101f393929190610e64565b6101fc91610e8e565b60601c905088888481811061021357610213610ec3565b90506020028101906102259190610ed9565b905060000361024757604051632d52dc3960e21b815260040160405180910390fd5b806001600160a01b0316846001600160a01b031610610279576040516306a9e7df60e51b815260040160405180910390fd5b809350606760405180604001604052808b8b8781811061029b5761029b610ec3565b90506020028101906102ad9190610ed9565b8080601f01602080910402602001604051908101604052809392919081815260200183838082843760009201829052509385525050506001600160a01b03851660209283015283546001810185559381522081519192600202019081906103149082610fbf565b5060209190910151600190910180546001600160a01b0319166001600160a01b039092169190911790555081905061034b8161107f565b9150506101bf565b508383604051610364929190611098565b6040519081900381206066819055606589905581527f831403fd381b3e6ac875d912ec2eee0e0203d0d29f7b3e0c96fc8f582d6db6579060200160405180910390a150505050505050565b606781815481106103bf57600080fd5b90600052602060002090600202016000915090508060000180546103e290610f36565b80601f016020809104026020016040519081016040528092919081815260200182805461040e90610f36565b801561045b5780601f106104305761010080835404028352916020019161045b565b820191906000526020600020905b81548152906001019060200180831161043e57829003601f168201915b505050600190930154919250506001600160a01b031682565b61047c61080f565b6104866000610869565b565b600054610100900460ff16158080156104a85750600054600160ff909116105b806104c25750303b1580156104c2575060005460ff166001145b61052a5760405162461bcd60e51b815260206004820152602e60248201527f496e697469616c697a61626c653a20636f6e747261637420697320616c72656160448201526d191e481a5b9a5d1a585b1a5e995960921b60648201526084015b60405180910390fd5b6000805460ff19166001179055801561054d576000805461ff0019166101001790555b6105556108bb565b801561059b576000805461ff0019169055604051600181527f7f26b83ff96e1f2b6a682f133852f6798a09c465da95921460cefb38474024989060200160405180910390a15b50565b600060655460416105af9190610e3a565b9050808210806105d3575060146105c682846110a8565b6105d091906110d1565b15155b156105f1576040516335c7762360e11b815260040160405180910390fd5b60665461060083838187610e64565b60405161060e929190611098565b60405180910390201461063457604051630d62ad6560e31b815260040160405180910390fd5b600080601461064384866110a8565b61064d91906110e5565b905060005b6065548110156107905760006106cd88888861066f604187610e3a565b90604161067c8189610e3a565b6106869190610e51565b9261069393929190610e64565b8080601f01602080910402602001604051908101604052809392919081815260200183838082843760009201919091525061092f92505050565b90506000845b8481101561075c5760006106e8601483610e3a565b6106f29089610e51565b905060008a828b610704601483610e51565b9261071193929190610e64565b61071a91610e8e565b60601c90506001600160a01b03851681036107475761073a836001610e51565b975060019350505061075c565b505080806107549061107f565b9150506106d3565b508061077b57604051638431721360e01b815260040160405180910390fd5b505080806107889061107f565b915050610652565b50505050505050565b6107a161080f565b6001600160a01b0381166108065760405162461bcd60e51b815260206004820152602660248201527f4f776e61626c653a206e6577206f776e657220697320746865207a65726f206160448201526564647265737360d01b6064820152608401610521565b61059b81610869565b6033546001600160a01b031633146104865760405162461bcd60e51b815260206004820181905260248201527f4f776e61626c653a2063616c6c6572206973206e6f7420746865206f776e65726044820152606401610521565b603380546001600160a01b038381166001600160a01b0319831681179093556040519116919082907f8be0079c531659141344cd1fd0a4f28419497f9722a3daafe3b4186f6b6457e090600090a35050565b600054610100900460ff166109265760405162461bcd60e51b815260206004820152602b60248201527f496e697469616c697a61626c653a20636f6e7472616374206973206e6f74206960448201526a6e697469616c697a696e6760a81b6064820152608401610521565b61048633610869565b600080600061093e8585610955565b9150915061094b8161099a565b5090505b92915050565b600080825160410361098b5760208301516040840151606085015160001a61097f87828585610ae4565b94509450505050610993565b506000905060025b9250929050565b60008160048111156109ae576109ae6110f9565b036109b65750565b60018160048111156109ca576109ca6110f9565b03610a175760405162461bcd60e51b815260206004820152601860248201527f45434453413a20696e76616c6964207369676e617475726500000000000000006044820152606401610521565b6002816004811115610a2b57610a2b6110f9565b03610a785760405162461bcd60e51b815260206004820152601f60248201527f45434453413a20696e76616c6964207369676e6174757265206c656e677468006044820152606401610521565b6003816004811115610a8c57610a8c6110f9565b0361059b5760405162461bcd60e51b815260206004820152602260248201527f45434453413a20696e76616c6964207369676e6174757265202773272076616c604482015261756560f01b6064820152608401610521565b6000807f7fffffffffffffffffffffffffffffff5d576e7357a4501ddfe92f46681b20a0831115610b1b5750600090506003610b9f565b6040805160008082526020820180845289905260ff881692820192909252606081018690526080810185905260019060a0016020604051602081039080840390855afa158015610b6f573d6000803e3d6000fd5b5050604051601f1901519150506001600160a01b038116610b9857600060019250925050610b9f565b9150600090505b94509492505050565b508054600082556002029060005260206000209081019061059b91905b80821115610bf4576000610bd98282610bf8565b506001810180546001600160a01b0319169055600201610bc5565b5090565b508054610c0490610f36565b6000825580601f10610c14575050565b601f01602090049060005260206000209081019061059b91905b80821115610bf45760008155600101610c2e565b60008083601f840112610c5457600080fd5b50813567ffffffffffffffff811115610c6c57600080fd5b60208301915083602082850101111561099357600080fd5b600080600080600060608688031215610c9c57600080fd5b85359450602086013567ffffffffffffffff80821115610cbb57600080fd5b818801915088601f830112610ccf57600080fd5b813581811115610cde57600080fd5b8960208260051b8501011115610cf357600080fd5b602083019650809550506040880135915080821115610d1157600080fd5b50610d1e88828901610c42565b969995985093965092949392505050565b600060208284031215610d4157600080fd5b5035919050565b604081526000835180604084015260005b81811015610d765760208187018101516060868401015201610d59565b50600060608285018101919091526001600160a01b03949094166020840152601f01601f191690910190910192915050565b600080600060408486031215610dbd57600080fd5b83359250602084013567ffffffffffffffff811115610ddb57600080fd5b610de786828701610c42565b9497909650939450505050565b600060208284031215610e0657600080fd5b81356001600160a01b0381168114610e1d57600080fd5b9392505050565b634e487b7160e01b600052601160045260246000fd5b808202811582820484141761094f5761094f610e24565b8082018082111561094f5761094f610e24565b60008085851115610e7457600080fd5b83861115610e8157600080fd5b5050820193919092039150565b6bffffffffffffffffffffffff198135818116916014851015610ebb5780818660140360031b1b83161692505b505092915050565b634e487b7160e01b600052603260045260246000fd5b6000808335601e19843603018112610ef057600080fd5b83018035915067ffffffffffffffff821115610f0b57600080fd5b60200191503681900382131561099357600080fd5b634e487b7160e01b600052604160045260246000fd5b600181811c90821680610f4a57607f821691505b602082108103610f6a57634e487b7160e01b600052602260045260246000fd5b50919050565b601f821115610fba57600081815260208120601f850160051c81016020861015610f975750805b601f850160051c820191505b81811015610fb657828155600101610fa3565b5050505b505050565b815167ffffffffffffffff811115610fd957610fd9610f20565b610fed81610fe78454610f36565b84610f70565b602080601f831160018114611022576000841561100a5750858301515b600019600386901b1c1916600185901b178555610fb6565b600085815260208120601f198616915b8281101561105157888601518255948401946001909101908401611032565b508582101561106f5787850151600019600388901b60f8161c191681555b5050505050600190811b01905550565b60006001820161109157611091610e24565b5060010190565b8183823760009101908152919050565b8181038181111561094f5761094f610e24565b634e487b7160e01b600052601260045260246000fd5b6000826110e0576110e06110bb565b500690565b6000826110f4576110f46110bb565b500490565b634e487b7160e01b600052602160045260246000fdfea2646970667358221220fbb69bda42dc91e1c14c6f0059ee0589db7edb7a47907af2cdf95b1e7b369a1664736f6c63430008140033",
  "linkReferences": {},
  "deployedLinkReferences": {}
}