{
  "_format": "hh-sol-artifact-1",
  "contractName": "PolygonZkEVMGlobalExitRootMock",
  "sourceName": "contracts/mocks/PolygonZkEVMGlobalExitRootMock.sol",
  "abi": [
    {
      "inputs": [
        {
          "internalType": "address",
          "name": "_rollupAddress",
          "type": "address"
        },
        {
          "internalType": "address",
          "name": "_bridgeAddress",
          "type": "address"
        }
      ],
      "stateMutability": "nonpayable",
      "type": "constructor"
    },
    {
      "inputs": [],
      "name": "OnlyAllowedContracts",
      "type": "error"
    },
    {
      "anonymous": false,
      "inputs": [
        {
          "indexed": true,
          "internalType": "bytes32",
          "name": "mainnetExitRoot",
          "type": "bytes32"
        },
        {
          "indexed": true,
          "internalType": "bytes32",
          "name": "rollupExitRoot",
          "type": "bytes32"
        }
      ],
      "name": "UpdateGlobalExitRoot",
      "type": "event"
    },
    {
      "inputs": [],
      "name": "bridgeAddress",
      "outputs": [
        {
          "internalType": "address",
          "name": "",
          "type": "address"
        }
      ],
      "stateMutability": "view",
      "type": "function"
    },
    {
      "inputs": [],
      "name": "getLastGlobalExitRoot",
      "outputs": [
        {
          "internalType": "bytes32",
          "name": "",
          "type": "bytes32"
        }
      ],
      "stateMutability": "view",
      "type": "function"
    },
    {
      "inputs": [
        {
          "internalType": "bytes32",
          "name": "",
          "type": "bytes32"
        }
      ],
      "name": "globalExitRootMap",
      "outputs": [
        {
          "internalType": "uint256",
          "name": "",
          "type": "uint256"
        }
      ],
      "stateMutability": "view",
      "type": "function"
    },
    {
      "inputs": [],
      "name": "lastMainnetExitRoot",
      "outputs": [
        {
          "internalType": "bytes32",
          "name": "",
          "type": "bytes32"
        }
      ],
      "stateMutability": "view",
      "type": "function"
    },
    {
      "inputs": [],
      "name": "lastRollupExitRoot",
      "outputs": [
        {
          "internalType": "bytes32",
          "name": "",
          "type": "bytes32"
        }
      ],
      "stateMutability": "view",
      "type": "function"
    },
    {
      "inputs": [],
      "name": "rollupAddress",
      "outputs": [
        {
          "internalType": "address",
          "name": "",
          "type": "address"
        }
      ],
      "stateMutability": "view",
      "type": "function"
    },
    {
      "inputs": [
        {
          "internalType": "bytes32",
          "name": "globalExitRoot",
          "type": "bytes32"
        },
        {
          "internalType": "uint256",
          "name": "timestamp",
          "type": "uint256"
        }
      ],
      "name": "setGlobalExitRoot",
      "outputs": [],
      "stateMutability": "nonpayable",
      "type": "function"
    },
    {
      "inputs": [
        {
          "internalType": "uint256",
          "name": "timestamp",
          "type": "uint256"
        }
      ],
      "name": "setLastGlobalExitRoot",
      "outputs": [],
      "stateMutability": "nonpayable",
      "type": "function"
    },
    {
      "inputs": [
        {
          "internalType": "bytes32",
          "name": "newRoot",
          "type": "bytes32"
        }
      ],
      "name": "updateExitRoot",
      "outputs": [],
      "stateMutability": "nonpayable",
      "type": "function"
    }
  ],
  "bytecode": "0x60c060405234801561001057600080fd5b5060405161044538038061044583398101604081905261002f91610062565b6001600160a01b0391821660a05216608052610095565b80516001600160a01b038116811461005d57600080fd5b919050565b6000806040838503121561007557600080fd5b61007e83610046565b915061008c60208401610046565b90509250929050565b60805160a05161037d6100c860003960008181610132015261020001526000818161017101526101c4015261037d6000f3fe608060405234801561001057600080fd5b50600436106100935760003560e01c806333d6247d1161006657806333d6247d146100f25780633ed691ef146101055780635bcef6731461010d5780635ec6a8df1461012d578063a3c573eb1461016c57600080fd5b806301fd904414610098578063051a9e28146100b4578063257b3632146100c9578063319cf735146100e9575b600080fd5b6100a160005481565b6040519081526020015b60405180910390f35b6100c76100c236600461030c565b610193565b005b6100a16100d736600461030c565b60026020526000908152604090205481565b6100a160015481565b6100c761010036600461030c565b6101b4565b6100a16102d0565b6100c761011b366004610325565b60009182526002602052604090912055565b6101547f000000000000000000000000000000000000000000000000000000000000000081565b6040516001600160a01b0390911681526020016100ab565b6101547f000000000000000000000000000000000000000000000000000000000000000081565b80600260006101a06102d0565b815260208101919091526040016000205550565b6000546001546001600160a01b037f00000000000000000000000000000000000000000000000000000000000000001633036101f6575060018290558161024c565b6001600160a01b037f000000000000000000000000000000000000000000000000000000000000000016330361023357600083905582915061024c565b60405163b49365dd60e01b815260040160405180910390fd5b60408051602080820184905281830185905282518083038401815260609092019092528051910120600090600081815260026020526040812054919250036102ca5760008181526002602052604080822042905551849184917f61014378f82a0d809aefaf87a8ac9505b89c321808287a6e7810f29304c1fce39190a35b50505050565b6000610307600154600054604080516020808201949094528082019290925280518083038201815260609092019052805191012090565b905090565b60006020828403121561031e57600080fd5b5035919050565b6000806040838503121561033857600080fd5b5050803592602090910135915056fea2646970667358221220935b4841bbf89f4f97b3733d1e0d3afe9224022f782f538b1860476fd52af43f64736f6c63430008140033",
  "linkReferences": {},
  "deployedLinkReferences": {}
}