{
  "_format": "hh-sol-artifact-1",
  "contractName": "FflonkVerifier",
  "sourceName": "contracts/verifiers/FflonkVerifier.sol",
  "abi": [
    {
      "inputs": [
        {
          "internalType": "bytes32[24]",
          "name": "proof",
          "type": "bytes32[24]"
        },
        {
          "internalType": "uint256[1]",
          "name": "pubSignals",
          "type": "uint256[1]"
        }
      ],
      "name": "verifyProof",
      "outputs": [
        {
          "internalType": "bool",
          "name": "",
          "type": "bool"
        }
      ],
      "stateMutability": "view",
      "type": "function"
    }
  ],
  "bytecode": "0x608060405234801561001057600080fd5b506138ae806100206000396000f3fe608060405234801561001057600080fd5b506004361061002b5760003560e01c80639121da8a14610030575b600080fd5b61004361003e3660046137b3565b610057565b604051901515815260200160405180910390f35b6000613741565b6040516104c08201518082526020820191506000805160206138398339815191526104e08401518209905080825260208201915060008051602061383983398151915261050084015182099050808252602082019150600080516020613839833981519152610520840151820990508082526020820191506000805160206138398339815191526020610520018401518209905080825260208201915060008051602061383983398151915260406105200184015182099050808252602082019150600080516020613839833981519152606061052001840151820990508082526020820191506000805160206138398339815191526080610520018401518209905080825260208201915060008051602061383983398151915260a0610520018401518209905080825260208201915060008051602061383983398151915260c0610520018401518209905080825260208201915060008051602061383983398151915260e06105200184015182099050808252602082019150600080516020613839833981519152610620840151820990508082526020820191506000805160206138398339815191526020610620018401518209905080825260208201915060008051602061383983398151915260406106200184015182099050808252602082019150600080516020613839833981519152606061062001840151820990508082526020820191506000805160206138398339815191526106a08401518209905080825260208201915060008051602061383983398151915260206106a0018401518209905080825260208201915060008051602061383983398151915260406106a0018401518209905080825260208201915060008051602061383983398151915260606106a0018401518209905080825260208201915060008051602061383983398151915260806106a0018401518209905080825260208201915060008051602061383983398151915260a06106a00184015182099050808252602082019150600080516020613839833981519152610760840151820990508082526102e435600080516020613839833981519152818309600114610388576000805260206000f35b809150602083039250600080516020613839833981519152835183099050600080516020613839833981519152610760850151830991508061076085015260208303925060008051602061383983398151915283518309905060008051602061383983398151915260a06106a001850151830991508060a06106a00185015260208303925060008051602061383983398151915283518309905060008051602061383983398151915260806106a001850151830991508060806106a00185015260208303925060008051602061383983398151915283518309905060008051602061383983398151915260606106a001850151830991508060606106a00185015260208303925060008051602061383983398151915283518309905060008051602061383983398151915260406106a001850151830991508060406106a00185015260208303925060008051602061383983398151915283518309905060008051602061383983398151915260206106a001850151830991508060206106a0018501526020830392506000805160206138398339815191528351830990506000805160206138398339815191526106a085015183099150806106a0850152602083039250600080516020613839833981519152835183099050600080516020613839833981519152606061062001850151830991508060606106200185015260208303925060008051602061383983398151915283518309905060008051602061383983398151915260406106200185015183099150806040610620018501526020830392506000805160206138398339815191528351830990506000805160206138398339815191526020610620018501518309915080602061062001850152602083039250600080516020613839833981519152835183099050600080516020613839833981519152610620850151830991508061062085015260208303925060008051602061383983398151915283518309905060008051602061383983398151915260e061052001850151830991508060e06105200185015260208303925060008051602061383983398151915283518309905060008051602061383983398151915260c061052001850151830991508060c06105200185015260208303925060008051602061383983398151915283518309905060008051602061383983398151915260a061052001850151830991508060a0610520018501526020830392506000805160206138398339815191528351830990506000805160206138398339815191526080610520018501518309915080608061052001850152602083039250600080516020613839833981519152835183099050600080516020613839833981519152606061052001850151830991508060606105200185015260208303925060008051602061383983398151915283518309905060008051602061383983398151915260406105200185015183099150806040610520018501526020830392506000805160206138398339815191528351830990506000805160206138398339815191526020610520018501518309915080602061052001850152602083039250600080516020613839833981519152835183099050600080516020613839833981519152610520850151830991508061052085015260208303925060008051602061383983398151915283518309905060008051602061383983398151915261050085015183099150806105008501526020830392506000805160206138398339815191528351830990506000805160206138398339815191526104e085015183099150806104e085015250806104c0840152505050565b60008051602061383983398151915281106108e8576000805260206000f35b50565b803560208201356000805160206137f983398151915260036000805160206137f98339815191528085860985090891506000805160206137f98339815191528182099050808214610940576000805260206000f35b505050565b61094f60046108eb565b61095960446108eb565b61096360846108eb565b61096d60c46108eb565b610979610104356108c9565b610985610124356108c9565b610991610144356108c9565b61099d610164356108c9565b6109a9610184356108c9565b6109b56101a4356108c9565b6109c16101c4356108c9565b6109cd6101e4356108c9565b6109d9610204356108c9565b6109e5610224356108c9565b6109f1610244356108c9565b6109fd610264356108c9565b610a09610284356108c9565b610a156102a4356108c9565b610a216102c4356108c9565b610a2d6102e4356108c9565b565b7f10711a639fed66ba6cd6001188b8fe7285cb9bd01afc1f90598223550aa57e3661078082019081527f28c937a4cb758326763015d30fff3568f5cbed932cdc7c411a435d3de04549ef6107a0830190815283356107c084019081526004356107e085015260243561080085015260a08320600080516020613839833981519152908190066020808701918252902081900660408601819052845260443590925260643590526060909120819006608083018190529081800960a083018190526080830151600080516020613839833981519152910960e08301526000805160206138398339815191527f2b337de1c8c14f22ec9b9e2f96afef3652627366f8170a0a948dad4ac1bd5e8060e0840151096101008301526000805160206138398339815191527f30644e72e131a029048b6e193fd841045cea24f6fd736bec231204708f70363660e0840151096101208301526000805160206138398339815191527f1d59376149b959ccbd157ac850893a6f07c2d99b3852513ab8d01be8e846a56660e08401510961014083015260008051602061383983398151915260008051602061385983398151915260e0840151096101608301526000805160206138398339815191527f0530d09118705106cbb4a786ead16926d5d174e181a26686af5448492e42a18160e08401510961018083015260008051602061383983398151915277b3c4d79d41a91758cb49c3517c4604a520cff123608fc9cb60e0840151096101a08301526000805160206138398339815191527f130b17119778465cfb3acaee30f81dee20710ead41671f568b11d9ab07b95a9b60e0840151096101c083015260e08201516000805160206138398339815191529080096101e08301526000805160206138398339815191527f30644e72e131a029048b6e193fd841045cea24f6fd736bec231204708f7036366101e0840151096102008301526000805160206138398339815191526000805160206138598339815191526101e08401510961022083015260008051602061383983398151915277b3c4d79d41a91758cb49c3517c4604a520cff123608fc9cb6101e08401510961024083015260008051602061383983398151915260a08301516101e0840151096102608301526000805160206138398339815191527f30644e72e131a029048b6e193fd84104cc37a73fec2bc5e9b8ca0b2d36636f236102608401510961028083015260008051602061383983398151915277b3c4d79d41a917585bfc41088d8daaa78b17ea66b99c90dd610260840151096102a08301526000805160206138398339815191527f283ce45a2e5b8e4e78f9fbaf5f6a348bfcfaf76dd28e5ca7121b74ef68fdec2e610260840151096102c08301526000805160206138398339815191527f30644e72e131a029048b6e193fd84104cc37a73fec2bc5e9b8ca0b2d36636f236102c0840151096102e083015260008051602061383983398151915277b3c4d79d41a917585bfc41088d8daaa78b17ea66b99c90dd6102c0840151096103008301526102608201516000805160206138398339815191529081818009098060c084015260008051602061383983398151915281820990506000805160206138398339815191528182099050600080516020613839833981519152818209905060008051602061383983398151915281820990506000805160206138398339815191528182099050600080516020613839833981519152818209905060008051602061383983398151915281820990506000805160206138398339815191528182099050600080516020613839833981519152818209905060008051602061383983398151915281820990506000805160206138398339815191528182099050600080516020613839833981519152818209905060008051602061383983398151915281820990506000805160206138398339815191528182099050600080516020613839833981519152818209905060008051602061383983398151915281820990506000805160206138398339815191528182099050600080516020613839833981519152818209905060008051602061383983398151915281820990506000805160206138398339815191528182099050600080516020613839833981519152818209905060008051602061383983398151915281820990506000805160206138398339815191528182099050600080516020613839833981519152818209600080516020613839833981519152600080516020613859833981519152909101066104a084018190526104c0840152506107808201526101e06101046107a083013761020061078082019081206000805160206138398339815191529081900680845282526084356107a084015260a4356107c08401526060918290200691015250565b60e0810151606082015160016000805160206138398339815191528382099050600080516020613839833981519152838209905060008051602061383983398151915283820990506000805160206138398339815191528382099050600080516020613839833981519152838209905060008051602061383983398151915283820990506000805160206138398339815191528160080960e08501519350905060008051602061383983398151915283810381900683086000805160206138398339815191528082860983096105208601526101c0850151610100860151909450600080516020613839833981519152908103819006840890506000805160206138398339815191528082860983096105408601526101a085015161012086015190945060008051602061383983398151915290810381900684089050600080516020613839833981519152808286098309610560860152610180850151610140860151909450600080516020613839833981519152908103819006840890506000805160206138398339815191528082860983096105808601526101608501519350600080516020613839833981519152848103819006840890506000805160206138398339815191528082860983096105a0860152610140850151610180860151909450600080516020613839833981519152908103819006840890506000805160206138398339815191528082860983096105c08601526101208501516101a0860151909450600080516020613839833981519152908103819006840890506000805160206138398339815191528082860983096105e08601526101008501516101c08601519094506000805160206138398339815191529081038190068408905060008051602061383983398151915280828609830960e0610520018601525050505050565b6101e08101516060820151600160008051602061383983398151915283820990506000805160206138398339815191528382099050600080516020613839833981519152816004096101e085015193509050600080516020613839833981519152838103819006830860008051602061383983398151915280828609830961062086015261024085015161020086015190945060008051602061383983398151915290810381900684089050600080516020613839833981519152808286098309610640860152610220850151935060008051602061383983398151915284810381900684089050600080516020613839833981519152808286098309610660860152610200850151610240860151909450600080516020613839833981519152908103819006840890506000805160206138398339815191528082860983096060610620018601525050505050565b6060810151600080516020613839833981519152806000805160206138398339815191528060008051602061381983398151915260c087015109600080516020613839833981519152030660c0850151086000805160206138398339815191526102608501516003090961026083015160008051602061383983398151915281810381900684086000805160206138398339815191528082840984096106a08601526102a0850151610280860151909250600080516020613839833981519152908103819006850890506000805160206138398339815191528082840984096106c08601526102808501516102a08601519092506000805160206138398339815191529081038190068508905060008051602061383983398151915280828409840960406106a0018601526000805160206138398339815191528060008051602061383983398151915260c0880151600080516020613839833981519152030660008051602061383983398151915260008051602061381983398151915260c08a015109086000805160206138398339815191526102c0880151600309096102c08601519093509150600080516020613839833981519152828103819006850890506000805160206138398339815191528082840984096107008601526103008501516102e0860151909250600080516020613839833981519152908103819006850890506000805160206138398339815191528082840984096107208601526102e08501516103008601519092506000805160206138398339815191529081038190068508905060008051602061383983398151915280828409840960a06106a0018601525050505050565b6060810151600080516020613839833981519152806101e084015160008051602061383983398151915203068208600080516020613839833981519152806000805160206138398339815191526102008601516000805160206138398339815191520306840882099050600080516020613839833981519152806000805160206138398339815191526102208601516000805160206138398339815191520306840882099050600080516020613839833981519152806000805160206138398339815191526102408601516000805160206138398339815191520306840882099050806104e084015260008051602061383983398151915280610260850151600080516020613839833981519152030683089050600080516020613839833981519152806000805160206138398339815191526102808601516000805160206138398339815191520306840882099050600080516020613839833981519152806000805160206138398339815191526102a08601516000805160206138398339815191520306840882099050600080516020613839833981519152806000805160206138398339815191526102c08601516000805160206138398339815191520306840882099050600080516020613839833981519152806000805160206138398339815191526102e08601516000805160206138398339815191520306840882099050600080516020613839833981519152806000805160206138398339815191526103008601516000805160206138398339815191520306840882099050806105008401526119cb83611114565b6119d4836113be565b6119dd8361150e565b505060c08101516001600080516020613839833981519152600080516020613859833981519152830181900663010000000961076084015250506108e88161005e565b6104a081015160008051602061383983398151915281610760840151096107608301525050565b60006000805160206138398339815191528060008051602061383983398151915285356107608601510983030106905080610320830152505050565b6001606082015160008051602061383983398151915281830991506000805160206138398339815191528183099150600080516020613839833981519152818309915060008051602061383983398151915281830991506000805160206138398339815191528183099150600080516020613839833981519152818309915060008051602061383983398151915281830991506000805160206138398339815191528183099150506000805160206138398339815191528060c08401516000805160206138398339815191520306820860e083015190915060009081806000805160206138398339815191528084610124350961010435089150600080516020613839833981519152838409905060008051602061383983398151915280826101643509830891506000805160206138398339815191528382099050600080516020613839833981519152808261014435098308915060008051602061383983398151915283820990506000805160206138398339815191528082610184350983089150600080516020613839833981519152838209905060008051602061383983398151915280826101a4350983089150600080516020613839833981519152838209905060008051602061383983398151915280826101c4350983089150600080516020613839833981519152838209905060008051602061383983398151915280826101e435098308915060008051602061383983398151915280600080516020613839833981519152600061052001890151880984098508935061010086015192506000805160206138398339815191528084610124350961010435089150600080516020613839833981519152838409905060008051602061383983398151915280826101643509830891506000805160206138398339815191528382099050600080516020613839833981519152808261014435098308915060008051602061383983398151915283820990506000805160206138398339815191528082610184350983089150600080516020613839833981519152838209905060008051602061383983398151915280826101a4350983089150600080516020613839833981519152838209905060008051602061383983398151915280826101c4350983089150600080516020613839833981519152838209905060008051602061383983398151915280826101e435098308915060008051602061383983398151915280600080516020613839833981519152602061052001890151880984098508935061012086015192506000805160206138398339815191528084610124350961010435089150600080516020613839833981519152838409905060008051602061383983398151915280826101643509830891506000805160206138398339815191528382099050600080516020613839833981519152808261014435098308915060008051602061383983398151915283820990506000805160206138398339815191528082610184350983089150600080516020613839833981519152838209905060008051602061383983398151915280826101a4350983089150600080516020613839833981519152838209905060008051602061383983398151915280826101c4350983089150600080516020613839833981519152838209905060008051602061383983398151915280826101e435098308915060008051602061383983398151915280600080516020613839833981519152604061052001890151880984098508935061014086015192506000805160206138398339815191528084610124350961010435089150600080516020613839833981519152838409905060008051602061383983398151915280826101643509830891506000805160206138398339815191528382099050600080516020613839833981519152808261014435098308915060008051602061383983398151915283820990506000805160206138398339815191528082610184350983089150600080516020613839833981519152838209905060008051602061383983398151915280826101a4350983089150600080516020613839833981519152838209905060008051602061383983398151915280826101c4350983089150600080516020613839833981519152838209905060008051602061383983398151915280826101e435098308915060008051602061383983398151915280600080516020613839833981519152606061052001890151880984098508935061016086015192506000805160206138398339815191528084610124350961010435089150600080516020613839833981519152838409905060008051602061383983398151915280826101643509830891506000805160206138398339815191528382099050600080516020613839833981519152808261014435098308915060008051602061383983398151915283820990506000805160206138398339815191528082610184350983089150600080516020613839833981519152838209905060008051602061383983398151915280826101a4350983089150600080516020613839833981519152838209905060008051602061383983398151915280826101c4350983089150600080516020613839833981519152838209905060008051602061383983398151915280826101e435098308915060008051602061383983398151915280600080516020613839833981519152608061052001890151880984098508935061018086015192506000805160206138398339815191528084610124350961010435089150600080516020613839833981519152838409905060008051602061383983398151915280826101643509830891506000805160206138398339815191528382099050600080516020613839833981519152808261014435098308915060008051602061383983398151915283820990506000805160206138398339815191528082610184350983089150600080516020613839833981519152838209905060008051602061383983398151915280826101a4350983089150600080516020613839833981519152838209905060008051602061383983398151915280826101c4350983089150600080516020613839833981519152838209905060008051602061383983398151915280826101e43509830891506000805160206138398339815191528060008051602061383983398151915260a06105200189015188098409850893506101a086015192506000805160206138398339815191528084610124350961010435089150600080516020613839833981519152838409905060008051602061383983398151915280826101643509830891506000805160206138398339815191528382099050600080516020613839833981519152808261014435098308915060008051602061383983398151915283820990506000805160206138398339815191528082610184350983089150600080516020613839833981519152838209905060008051602061383983398151915280826101a4350983089150600080516020613839833981519152838209905060008051602061383983398151915280826101c4350983089150600080516020613839833981519152838209905060008051602061383983398151915280826101e43509830891506000805160206138398339815191528060008051602061383983398151915260c06105200189015188098409850893506101c086015192506000805160206138398339815191528084610124350961010435089150600080516020613839833981519152838409905060008051602061383983398151915280826101643509830891506000805160206138398339815191528382099050600080516020613839833981519152808261014435098308915060008051602061383983398151915283820990506000805160206138398339815191528082610184350983089150600080516020613839833981519152838209905060008051602061383983398151915280826101a4350983089150600080516020613839833981519152838209905060008051602061383983398151915280826101c4350983089150600080516020613839833981519152838209905060008051602061383983398151915280826101e4350983089150506000805160206138398339815191528060008051602061383983398151915260e0610520018801518709830984089250505080610340840152505050565b600160608201516000805160206138398339815191528183099150600080516020613839833981519152818309915060008051602061383983398151915281830991506000805160206138398339815191528183099150506000805160206138398339815191528060c08401516000805160206138398339815191520306820890506000610204356102243561024435600080516020613839833981519152836101043509935060008051602061383983398151915280836101243509850893506000805160206138398339815191528060008051602061383983398151915284860961014435098508935060008051602061383983398151915280826101643509850893506000805160206138398339815191526101843585089350600080516020613839833981519152610320870151850893506000805160206138398339815191526104c087015185096101e087015190945060009084908260008051602061383983398151915280878409840892506000805160206138398339815191528283099050600080516020613839833981519152808683098408925060008051602061383983398151915280896000805160206138398339815191528585090984089250600080516020613839833981519152806000805160206138398339815191526020600002610620018d01518c098509850893508692506102008a0151915060008051602061383983398151915280878409840892506000805160206138398339815191528283099050600080516020613839833981519152808683098408925060008051602061383983398151915280896000805160206138398339815191528585090984089250600080516020613839833981519152806000805160206138398339815191526020600102610620018d01518c098509850893508692506102208a0151915060008051602061383983398151915280878409840892506000805160206138398339815191528283099050600080516020613839833981519152808683098408925060008051602061383983398151915280896000805160206138398339815191528585090984089250600080516020613839833981519152806000805160206138398339815191526020600202610620018d01518c098509850893508692506102408a01519150600080516020613839833981519152808784098408925060008051602061383983398151915282830990506000805160206138398339815191528086830984089250600080516020613839833981519152808960008051602061383983398151915285850909840892505050600080516020613839833981519152806000805160206138398339815191526020600302610620018b01518a09830983089150508061036088015250505050505050565b6060810151600160008051602061383983398151915281830990506000805160206138398339815191528183099050600080516020613839833981519152818309905060008051602061383983398151915281830990506000805160206138398339815191528183099050600080516020613839833981519152818309905060016000805160206138398339815191528184099050600080516020613839833981519152818409905060008051602061383983398151915281840990506000805160206138398339815191528060c086015160008051602061383983398151915260008051602061381983398151915260c089015109088209905060008051602061383983398151915280826000805160206138398339815191520306830860c08501519092506000805160206138398339815191529081600080516020613819833981519152820909905060008051602061383983398151915281830891505060009150600060008051602061383983398151915260c0850151602086015109604085015160008051602061383983398151915280828408610204350892506000805160206138398339815191528060008051602061383983398151915283600080516020613839833981519152600287090861022435088409925060008051602061383983398151915280600080516020613839833981519152836000805160206138398339815191526003870908610244350884099250600080516020613839833981519152610264358409925060008051602061383983398151915280826000805160206138398339815191526101a43560208b015109086102043508945060008051602061383983398151915280600080516020613839833981519152836000805160206138398339815191526101c43560208c0151090861022435088609945060008051602061383983398151915280600080516020613839833981519152836000805160206138398339815191526101e43560208c01510908610244350886099450600080516020613839833981519152610284358609945060008051602061383983398151915280866000805160206138398339815191520306840892506000805160206138398339815191526104c087015184099250600161026435039450600080516020613839833981519152610760870151860994506000805160206138398339815191526104c08701518609610260870151909550915060009050806000805160206138398339815191528087850961026435089050600080516020613839833981519152808560008051602061383983398151915286870909820890506000805160206138398339815191528060008051602061383983398151915260206000026106a0018a0151880983098308915061028087015192506000805160206138398339815191528087850961026435089050600080516020613839833981519152808560008051602061383983398151915286870909820890506000805160206138398339815191528060008051602061383983398151915260206001026106a0018a015188098309830891506102a087015192506000805160206138398339815191528087850961026435089050600080516020613839833981519152808560008051602061383983398151915286870909820890506000805160206138398339815191528060008051602061383983398151915260206002026106a0018a015188098309830891506102c08701519250600080516020613839833981519152806102a435850961028435089050600080516020613839833981519152806102c43560008051602061383983398151915286870909820890506000805160206138398339815191528060008051602061383983398151915260206003026106a0018a015188098309830891506102e08701519250600080516020613839833981519152806102a435850961028435089050600080516020613839833981519152806102c43560008051602061383983398151915286870909820890506000805160206138398339815191528060008051602061383983398151915260206004026106a0018a015188098309830891506103008701519250600080516020613839833981519152806102a435850961028435089050600080516020613839833981519152806102c43560008051602061383983398151915286870909820890506000805160206138398339815191528060008051602061383983398151915260206005026106a0018a015188098309830891505080610380870152505050505050565b6040518151815260208201516020820152825160408201526020830151606082015260408260808360066107d05a03fa905080610940576000805260206000f35b6000604051833581526020840135602082015284604082015260408160608360076107d05a03fa9150816131bc576000805260206000f35b825160408201526020830151606082015260408360808360066107d05a03fa915050806131ed576000805260206000f35b50505050565b600060405183815284602082015285604082015260408160608360076107d05a03fa915081613226576000805260206000f35b825160408201526020830151606082015260408360808360066107d05a03fa91505080613257576000805260206000f35b5050505050565b60608101516000805160206138398339815191528060e084015160008051602061383983398151915203068208600080516020613839833981519152806000805160206138398339815191526101008601516000805160206138398339815191520306840882099050600080516020613839833981519152806000805160206138398339815191526101208601516000805160206138398339815191520306840882099050600080516020613839833981519152806000805160206138398339815191526101408601516000805160206138398339815191520306840882099050600080516020613839833981519152806000805160206138398339815191526101608601516000805160206138398339815191520306840882099050600080516020613839833981519152806000805160206138398339815191526101808601516000805160206138398339815191520306840882099050600080516020613839833981519152806000805160206138398339815191526101a08601516000805160206138398339815191520306840882099050600080516020613839833981519152806000805160206138398339815191526101c08601516000805160206138398339815191520306840882099050600080516020613839833981519152806104e0850151830984510991506000805160206138398339815191528061050085015183098451600080516020613839833981519152908009097f10711a639fed66ba6cd6001188b8fe7285cb9bd01afc1f90598223550aa57e366103a08501527f28c937a4cb758326763015d30fff3568f5cbed932cdc7c411a435d3de04549ef60206103a0018501526134da8360046103a08701613184565b6134ea8160446103a08701613184565b61354160008051602061383983398151915280600080516020613839833981519152610380880151850960008051602061383983398151915261036089015188090861034087015108600260016103e088016131f3565b506109408160846104208601613184565b604051610400820180516000805160206137f98339815191529081038190069091526104408301805182039190910690526000906135986103e084016103a08501613143565b6135aa61042084016103a08501613143565b6135be606084015160c46103a08601613184565b6103a083015181526103c08301516020808301919091527f198e9393920d483a7260bfb731fb5d25f1aa493335a9e71297e485b7aef312c260408301527f1800deef121f1e76426a00665e5c4479674322d4f75edadd46debd5cd992f6ed60608301527f090689d0585ff075ec9e99ad690c3395bc4b313370b38ef355acdadcd122975b60808301527f12c85ea5db8c6deb4aab71808dcb408fe3d1e7690c43d37b4ce6cc0166fa7daa60a083015260c43560c08301526000805160206137f983398151915260e43581030660e08301527f26186a2d65ee4d2f9c9a5b91f86597d35f192cd120caf7e935d8443d1938e23d6101008301527f30441fd1b5d3370482c42152a8899027716989a6996c2535bc9f7fee8aaef79e6101208301527f1970ea81dd6992adfbc571effb03503adbbb6a857f578403c6c40e22d65b3c026101408301527f054793348f12c0cf5622c340573cb277586319de359ab9389778f689786b1e48610160830152816101808160086107d05a03fa90511692915050565b6040516107808101604052613754610945565b61375e8382610a2f565b6137678161177b565b61377081611a20565b61377a8382611a47565b61378381611a83565b61378c816126af565b61379581612ab3565b61379e8161325e565b6137a781613552565b90508060005260206000f35b6000806103208084860312156137c857600080fd5b6103008401858111156137da57600080fd5b8493508582860111156137ec57600080fd5b8092505050925092905056fe30644e72e131a029b85045b68181585d97816a916871ca8d3c208c16d87cfd470c9fabc7845d50d2852e2a0371c6441f145e0db82e8326961c25f1e3e32b045b30644e72e131a029b85045b68181585d2833e84879b9709143e1f593f000000130644e72e131a029b85045b68181585d2833e84879b9709143e1f593f0000000a264697066735822122092d038fae04c28b9810dd646ed20ec13eca5acec69c97f5b121008f6954e614764736f6c63430008140033",
  "linkReferences": {},
  "deployedLinkReferences": {}
}