{
  "_format": "hh-sol-artifact-1",
  "contractName": "CDKValidiumDeployer",
  "sourceName": "contracts/deployment/CDKValidiumDeployer.sol",
  "abi": [
    {
      "inputs": [
        {
          "internalType": "address",
          "name": "_owner",
          "type": "address"
        }
      ],
      "stateMutability": "nonpayable",
      "type": "constructor"
    },
    {
      "anonymous": false,
      "inputs": [],
      "name": "FunctionCall",
      "type": "event"
    },
    {
      "anonymous": false,
      "inputs": [
        {
          "indexed": false,
          "internalType": "address",
          "name": "newContractAddress",
          "type": "address"
        }
      ],
      "name": "NewDeterministicDeployment",
      "type": "event"
    },
    {
      "anonymous": false,
      "inputs": [
        {
          "indexed": true,
          "internalType": "address",
          "name": "previousOwner",
          "type": "address"
        },
        {
          "indexed": true,
          "internalType": "address",
          "name": "newOwner",
          "type": "address"
        }
      ],
      "name": "OwnershipTransferred",
      "type": "event"
    },
    {
      "inputs": [
        {
          "internalType": "uint256",
          "name": "amount",
          "type": "uint256"
        },
        {
          "internalType": "bytes32",
          "name": "salt",
          "type": "bytes32"
        },
        {
          "internalType": "bytes",
          "name": "initBytecode",
          "type": "bytes"
        }
      ],
      "name": "deployDeterministic",
      "outputs": [],
      "stateMutability": "payable",
      "type": "function"
    },
    {
      "inputs": [
        {
          "internalType": "uint256",
          "name": "amount",
          "type": "uint256"
        },
        {
          "internalType": "bytes32",
          "name": "salt",
          "type": "bytes32"
        },
        {
          "internalType": "bytes",
          "name": "initBytecode",
          "type": "bytes"
        },
        {
          "internalType": "bytes",
          "name": "dataCall",
          "type": "bytes"
        }
      ],
      "name": "deployDeterministicAndCall",
      "outputs": [],
      "stateMutability": "payable",
      "type": "function"
    },
    {
      "inputs": [
        {
          "internalType": "address",
          "name": "targetAddress",
          "type": "address"
        },
        {
          "internalType": "bytes",
          "name": "dataCall",
          "type": "bytes"
        },
        {
          "internalType": "uint256",
          "name": "amount",
          "type": "uint256"
        }
      ],
      "name": "functionCall",
      "outputs": [],
      "stateMutability": "payable",
      "type": "function"
    },
    {
      "inputs": [],
      "name": "owner",
      "outputs": [
        {
          "internalType": "address",
          "name": "",
          "type": "address"
        }
      ],
      "stateMutability": "view",
      "type": "function"
    },
    {
      "inputs": [
        {
          "internalType": "bytes32",
          "name": "salt",
          "type": "bytes32"
        },
        {
          "internalType": "bytes32",
          "name": "bytecodeHash",
          "type": "bytes32"
        }
      ],
      "name": "predictDeterministicAddress",
      "outputs": [
        {
          "internalType": "address",
          "name": "",
          "type": "address"
        }
      ],
      "stateMutability": "view",
      "type": "function"
    },
    {
      "inputs": [],
      "name": "renounceOwnership",
      "outputs": [],
      "stateMutability": "nonpayable",
      "type": "function"
    },
    {
      "inputs": [
        {
          "internalType": "address",
          "name": "newOwner",
          "type": "address"
        }
      ],
      "name": "transferOwnership",
      "outputs": [],
      "stateMutability": "nonpayable",
      "type": "function"
    }
  ],
  "bytecode": "0x608060405234801561001057600080fd5b50604051610a77380380610a7783398101604081905261002f91610097565b61003833610047565b61004181610047565b506100c7565b600080546001600160a01b038381166001600160a01b0319831681178455604051919092169283917f8be0079c531659141344cd1fd0a4f28419497f9722a3daafe3b4186f6b6457e09190a35050565b6000602082840312156100a957600080fd5b81516001600160a01b03811681146100c057600080fd5b9392505050565b6109a1806100d66000396000f3fe6080604052600436106100705760003560e01c8063715018a61161004e578063715018a6146100d95780638da5cb5b146100ee578063e11ae6cb1461010c578063f2fde38b1461011f57600080fd5b80632b79805a146100755780634a94d4871461008a5780636d07dbf81461009d575b600080fd5b610088610083366004610758565b61013f565b005b6100886100983660046107eb565b6101a4565b3480156100a957600080fd5b506100bd6100b8366004610842565b6101e6565b6040516001600160a01b03909116815260200160405180910390f35b3480156100e557600080fd5b506100886101f9565b3480156100fa57600080fd5b506000546001600160a01b03166100bd565b61008861011a366004610864565b61020d565b34801561012b57600080fd5b5061008861013a3660046108b4565b610267565b6101476102e5565b600061015485858561033f565b90506101608183610443565b506040516001600160a01b03821681527fba82f25fed02cd2a23d9f5d11c2ef588d22af5437cbf23bfe61d87257c480e4c9060200160405180910390a15050505050565b6101ac6102e5565b6101b7838383610487565b506040517f25adb19089b6a549831a273acdf7908cff8b7ee5f551f8d1d37996cf01c5df5b90600090a1505050565b60006101f283836104b5565b9392505050565b6102016102e5565b61020b60006104c2565b565b6102156102e5565b600061022284848461033f565b6040516001600160a01b03821681529091507fba82f25fed02cd2a23d9f5d11c2ef588d22af5437cbf23bfe61d87257c480e4c9060200160405180910390a150505050565b61026f6102e5565b6001600160a01b0381166102d95760405162461bcd60e51b815260206004820152602660248201527f4f776e61626c653a206e6577206f776e657220697320746865207a65726f206160448201526564647265737360d01b60648201526084015b60405180910390fd5b6102e2816104c2565b50565b6000546001600160a01b0316331461020b5760405162461bcd60e51b815260206004820181905260248201527f4f776e61626c653a2063616c6c6572206973206e6f7420746865206f776e657260448201526064016102d0565b6000834710156103915760405162461bcd60e51b815260206004820152601d60248201527f437265617465323a20696e73756666696369656e742062616c616e636500000060448201526064016102d0565b81516000036103e25760405162461bcd60e51b815260206004820181905260248201527f437265617465323a2062797465636f6465206c656e677468206973207a65726f60448201526064016102d0565b8282516020840186f590506001600160a01b0381166101f25760405162461bcd60e51b815260206004820152601960248201527f437265617465323a204661696c6564206f6e206465706c6f790000000000000060448201526064016102d0565b60606101f2838360006040518060400160405280601e81526020017f416464726573733a206c6f772d6c6576656c2063616c6c206661696c65640000815250610512565b60606104ad84848460405180606001604052806029815260200161094360299139610512565b949350505050565b60006101f28383306105ed565b600080546001600160a01b038381166001600160a01b0319831681178455604051919092169283917f8be0079c531659141344cd1fd0a4f28419497f9722a3daafe3b4186f6b6457e09190a35050565b6060824710156105735760405162461bcd60e51b815260206004820152602660248201527f416464726573733a20696e73756666696369656e742062616c616e636520666f6044820152651c8818d85b1b60d21b60648201526084016102d0565b600080866001600160a01b0316858760405161058f91906108f3565b60006040518083038185875af1925050503d80600081146105cc576040519150601f19603f3d011682016040523d82523d6000602084013e6105d1565b606091505b50915091506105e287838387610617565b979650505050505050565b6000604051836040820152846020820152828152600b8101905060ff815360559020949350505050565b6060831561068657825160000361067f576001600160a01b0385163b61067f5760405162461bcd60e51b815260206004820152601d60248201527f416464726573733a2063616c6c20746f206e6f6e2d636f6e747261637400000060448201526064016102d0565b50816104ad565b6104ad838381511561069b5781518083602001fd5b8060405162461bcd60e51b81526004016102d0919061090f565b634e487b7160e01b600052604160045260246000fd5b600082601f8301126106dc57600080fd5b813567ffffffffffffffff808211156106f7576106f76106b5565b604051601f8301601f19908116603f0116810190828211818310171561071f5761071f6106b5565b8160405283815286602085880101111561073857600080fd5b836020870160208301376000602085830101528094505050505092915050565b6000806000806080858703121561076e57600080fd5b8435935060208501359250604085013567ffffffffffffffff8082111561079457600080fd5b6107a0888389016106cb565b935060608701359150808211156107b657600080fd5b506107c3878288016106cb565b91505092959194509250565b80356001600160a01b03811681146107e657600080fd5b919050565b60008060006060848603121561080057600080fd5b610809846107cf565b9250602084013567ffffffffffffffff81111561082557600080fd5b610831868287016106cb565b925050604084013590509250925092565b6000806040838503121561085557600080fd5b50508035926020909101359150565b60008060006060848603121561087957600080fd5b8335925060208401359150604084013567ffffffffffffffff81111561089e57600080fd5b6108aa868287016106cb565b9150509250925092565b6000602082840312156108c657600080fd5b6101f2826107cf565b60005b838110156108ea5781810151838201526020016108d2565b50506000910152565b600082516109058184602087016108cf565b9190910192915050565b602081526000825180602084015261092e8160408501602087016108cf565b601f01601f1916919091016040019291505056fe416464726573733a206c6f772d6c6576656c2063616c6c20776974682076616c7565206661696c6564a26469706673582212204adbffbb0b229dce4cd51b92ac45d9c57657491656d87812bd1083a504a184d764736f6c63430008140033",
  "linkReferences": {},
  "deployedLinkReferences": {}
}