{
  "_format": "hh-sol-artifact-1",
  "contractName": "PolygonZkEVMGlobalExitRoot",
  "sourceName": "contracts/PolygonZkEVMGlobalExitRoot.sol",
  "abi": [
    {
      "inputs": [
        {
          "internalType": "address",
          "name": "_rollupAddress",
          "type": "address"
        },
        {
          "internalType": "address",
          "name": "_bridgeAddress",
          "type": "address"
        }
      ],
      "stateMutability": "nonpayable",
      "type": "constructor"
    },
    {
      "inputs": [],
      "name": "OnlyAllowedContracts",
      "type": "error"
    },
    {
      "anonymous": false,
      "inputs": [
        {
          "indexed": true,
          "internalType": "bytes32",
          "name": "mainnetExitRoot",
          "type": "bytes32"
        },
        {
          "indexed": true,
          "internalType": "bytes32",
          "name": "rollupExitRoot",
          "type": "bytes32"
        }
      ],
      "name": "UpdateGlobalExitRoot",
      "type": "event"
    },
    {
      "inputs": [],
      "name": "bridgeAddress",
      "outputs": [
        {
          "internalType": "address",
          "name": "",
          "type": "address"
        }
      ],
      "stateMutability": "view",
      "type": "function"
    },
    {
      "inputs": [],
      "name": "getLastGlobalExitRoot",
      "outputs": [
        {
          "internalType": "bytes32",
          "name": "",
          "type": "bytes32"
        }
      ],
      "stateMutability": "view",
      "type": "function"
    },
    {
      "inputs": [
        {
          "internalType": "bytes32",
          "name": "",
          "type": "bytes32"
        }
      ],
      "name": "globalExitRootMap",
      "outputs": [
        {
          "internalType": "uint256",
          "name": "",
          "type": "uint256"
        }
      ],
      "stateMutability": "view",
      "type": "function"
    },
    {
      "inputs": [],
      "name": "lastMainnetExitRoot",
      "outputs": [
        {
          "internalType": "bytes32",
          "name": "",
          "type": "bytes32"
        }
      ],
      "stateMutability": "view",
      "type": "function"
    },
    {
      "inputs": [],
      "name": "lastRollupExitRoot",
      "outputs": [
        {
          "internalType": "bytes32",
          "name": "",
          "type": "bytes32"
        }
      ],
      "stateMutability": "view",
      "type": "function"
    },
    {
      "inputs": [],
      "name": "rollupAddress",
      "outputs": [
        {
          "internalType": "address",
          "name": "",
          "type": "address"
        }
      ],
      "stateMutability": "view",
      "type": "function"
    },
    {
      "inputs": [
        {
          "internalType": "bytes32",
          "name": "newRoot",
          "type": "bytes32"
        }
      ],
      "name": "updateExitRoot",
      "outputs": [],
      "stateMutability": "nonpayable",
      "type": "function"
    }
  ],
  "bytecode": "0x60c060405234801561001057600080fd5b506040516103b83803806103b883398101604081905261002f91610062565b6001600160a01b0391821660a05216608052610095565b80516001600160a01b038116811461005d57600080fd5b919050565b6000806040838503121561007557600080fd5b61007e83610046565b915061008c60208401610046565b90509250929050565b60805160a0516102f16100c76000396000818160e90152610196015260008181610128015261015a01526102f16000f3fe608060405234801561001057600080fd5b506004361061007d5760003560e01c806333d6247d1161005b57806333d6247d146100c75780633ed691ef146100dc5780635ec6a8df146100e4578063a3c573eb1461012357600080fd5b806301fd904414610082578063257b36321461009e578063319cf735146100be575b600080fd5b61008b60005481565b6040519081526020015b60405180910390f35b61008b6100ac3660046102a2565b60026020526000908152604090205481565b61008b60015481565b6100da6100d53660046102a2565b61014a565b005b61008b610266565b61010b7f000000000000000000000000000000000000000000000000000000000000000081565b6040516001600160a01b039091168152602001610095565b61010b7f000000000000000000000000000000000000000000000000000000000000000081565b6000546001546001600160a01b037f000000000000000000000000000000000000000000000000000000000000000016330361018c57506001829055816101e2565b6001600160a01b037f00000000000000000000000000000000000000000000000000000000000000001633036101c95760008390558291506101e2565b60405163b49365dd60e01b815260040160405180910390fd5b60408051602080820184905281830185905282518083038401815260609092019092528051910120600090600081815260026020526040812054919250036102605760008181526002602052604080822042905551849184917f61014378f82a0d809aefaf87a8ac9505b89c321808287a6e7810f29304c1fce39190a35b50505050565b600061029d600154600054604080516020808201949094528082019290925280518083038201815260609092019052805191012090565b905090565b6000602082840312156102b457600080fd5b503591905056fea264697066735822122098ff8b84d0d02c0effcc68119dd689ea09f97745ffebb5474781a218427d863864736f6c63430008140033",
  "linkReferences": {},
  "deployedLinkReferences": {}
}