{
  "_format": "hh-sol-artifact-1",
  "contractName": "CDKValidiumTimelock",
  "sourceName": "contracts/CDKValidiumTimelock.sol",
  "abi": [
    {
      "inputs": [
        {
          "internalType": "uint256",
          "name": "minDelay",
          "type": "uint256"
        },
        {
          "internalType": "address[]",
          "name": "proposers",
          "type": "address[]"
        },
        {
          "internalType": "address[]",
          "name": "executors",
          "type": "address[]"
        },
        {
          "internalType": "address",
          "name": "admin",
          "type": "address"
        },
        {
          "internalType": "contract CDKValidium",
          "name": "_cdkValidium",
          "type": "address"
        }
      ],
      "stateMutability": "nonpayable",
      "type": "constructor"
    },
    {
      "anonymous": false,
      "inputs": [
        {
          "indexed": true,
          "internalType": "bytes32",
          "name": "id",
          "type": "bytes32"
        },
        {
          "indexed": true,
          "internalType": "uint256",
          "name": "index",
          "type": "uint256"
        },
        {
          "indexed": false,
          "internalType": "address",
          "name": "target",
          "type": "address"
        },
        {
          "indexed": false,
          "internalType": "uint256",
          "name": "value",
          "type": "uint256"
        },
        {
          "indexed": false,
          "internalType": "bytes",
          "name": "data",
          "type": "bytes"
        }
      ],
      "name": "CallExecuted",
      "type": "event"
    },
    {
      "anonymous": false,
      "inputs": [
        {
          "indexed": true,
          "internalType": "bytes32",
          "name": "id",
          "type": "bytes32"
        },
        {
          "indexed": true,
          "internalType": "uint256",
          "name": "index",
          "type": "uint256"
        },
        {
          "indexed": false,
          "internalType": "address",
          "name": "target",
          "type": "address"
        },
        {
          "indexed": false,
          "internalType": "uint256",
          "name": "value",
          "type": "uint256"
        },
        {
          "indexed": false,
          "internalType": "bytes",
          "name": "data",
          "type": "bytes"
        },
        {
          "indexed": false,
          "internalType": "bytes32",
          "name": "predecessor",
          "type": "bytes32"
        },
        {
          "indexed": false,
          "internalType": "uint256",
          "name": "delay",
          "type": "uint256"
        }
      ],
      "name": "CallScheduled",
      "type": "event"
    },
    {
      "anonymous": false,
      "inputs": [
        {
          "indexed": true,
          "internalType": "bytes32",
          "name": "id",
          "type": "bytes32"
        }
      ],
      "name": "Cancelled",
      "type": "event"
    },
    {
      "anonymous": false,
      "inputs": [
        {
          "indexed": false,
          "internalType": "uint256",
          "name": "oldDuration",
          "type": "uint256"
        },
        {
          "indexed": false,
          "internalType": "uint256",
          "name": "newDuration",
          "type": "uint256"
        }
      ],
      "name": "MinDelayChange",
      "type": "event"
    },
    {
      "anonymous": false,
      "inputs": [
        {
          "indexed": true,
          "internalType": "bytes32",
          "name": "role",
          "type": "bytes32"
        },
        {
          "indexed": true,
          "internalType": "bytes32",
          "name": "previousAdminRole",
          "type": "bytes32"
        },
        {
          "indexed": true,
          "internalType": "bytes32",
          "name": "newAdminRole",
          "type": "bytes32"
        }
      ],
      "name": "RoleAdminChanged",
      "type": "event"
    },
    {
      "anonymous": false,
      "inputs": [
        {
          "indexed": true,
          "internalType": "bytes32",
          "name": "role",
          "type": "bytes32"
        },
        {
          "indexed": true,
          "internalType": "address",
          "name": "account",
          "type": "address"
        },
        {
          "indexed": true,
          "internalType": "address",
          "name": "sender",
          "type": "address"
        }
      ],
      "name": "RoleGranted",
      "type": "event"
    },
    {
      "anonymous": false,
      "inputs": [
        {
          "indexed": true,
          "internalType": "bytes32",
          "name": "role",
          "type": "bytes32"
        },
        {
          "indexed": true,
          "internalType": "address",
          "name": "account",
          "type": "address"
        },
        {
          "indexed": true,
          "internalType": "address",
          "name": "sender",
          "type": "address"
        }
      ],
      "name": "RoleRevoked",
      "type": "event"
    },
    {
      "inputs": [],
      "name": "CANCELLER_ROLE",
      "outputs": [
        {
          "internalType": "bytes32",
          "name": "",
          "type": "bytes32"
        }
      ],
      "stateMutability": "view",
      "type": "function"
    },
    {
      "inputs": [],
      "name": "DEFAULT_ADMIN_ROLE",
      "outputs": [
        {
          "internalType": "bytes32",
          "name": "",
          "type": "bytes32"
        }
      ],
      "stateMutability": "view",
      "type": "function"
    },
    {
      "inputs": [],
      "name": "EXECUTOR_ROLE",
      "outputs": [
        {
          "internalType": "bytes32",
          "name": "",
          "type": "bytes32"
        }
      ],
      "stateMutability": "view",
      "type": "function"
    },
    {
      "inputs": [],
      "name": "PROPOSER_ROLE",
      "outputs": [
        {
          "internalType": "bytes32",
          "name": "",
          "type": "bytes32"
        }
      ],
      "stateMutability": "view",
      "type": "function"
    },
    {
      "inputs": [],
      "name": "TIMELOCK_ADMIN_ROLE",
      "outputs": [
        {
          "internalType": "bytes32",
          "name": "",
          "type": "bytes32"
        }
      ],
      "stateMutability": "view",
      "type": "function"
    },
    {
      "inputs": [
        {
          "internalType": "bytes32",
          "name": "id",
          "type": "bytes32"
        }
      ],
      "name": "cancel",
      "outputs": [],
      "stateMutability": "nonpayable",
      "type": "function"
    },
    {
      "inputs": [],
      "name": "cdkValidium",
      "outputs": [
        {
          "internalType": "contract CDKValidium",
          "name": "",
          "type": "address"
        }
      ],
      "stateMutability": "view",
      "type": "function"
    },
    {
      "inputs": [
        {
          "internalType": "address",
          "name": "target",
          "type": "address"
        },
        {
          "internalType": "uint256",
          "name": "value",
          "type": "uint256"
        },
        {
          "internalType": "bytes",
          "name": "payload",
          "type": "bytes"
        },
        {
          "internalType": "bytes32",
          "name": "predecessor",
          "type": "bytes32"
        },
        {
          "internalType": "bytes32",
          "name": "salt",
          "type": "bytes32"
        }
      ],
      "name": "execute",
      "outputs": [],
      "stateMutability": "payable",
      "type": "function"
    },
    {
      "inputs": [
        {
          "internalType": "address[]",
          "name": "targets",
          "type": "address[]"
        },
        {
          "internalType": "uint256[]",
          "name": "values",
          "type": "uint256[]"
        },
        {
          "internalType": "bytes[]",
          "name": "payloads",
          "type": "bytes[]"
        },
        {
          "internalType": "bytes32",
          "name": "predecessor",
          "type": "bytes32"
        },
        {
          "internalType": "bytes32",
          "name": "salt",
          "type": "bytes32"
        }
      ],
      "name": "executeBatch",
      "outputs": [],
      "stateMutability": "payable",
      "type": "function"
    },
    {
      "inputs": [],
      "name": "getMinDelay",
      "outputs": [
        {
          "internalType": "uint256",
          "name": "duration",
          "type": "uint256"
        }
      ],
      "stateMutability": "view",
      "type": "function"
    },
    {
      "inputs": [
        {
          "internalType": "bytes32",
          "name": "role",
          "type": "bytes32"
        }
      ],
      "name": "getRoleAdmin",
      "outputs": [
        {
          "internalType": "bytes32",
          "name": "",
          "type": "bytes32"
        }
      ],
      "stateMutability": "view",
      "type": "function"
    },
    {
      "inputs": [
        {
          "internalType": "bytes32",
          "name": "id",
          "type": "bytes32"
        }
      ],
      "name": "getTimestamp",
      "outputs": [
        {
          "internalType": "uint256",
          "name": "timestamp",
          "type": "uint256"
        }
      ],
      "stateMutability": "view",
      "type": "function"
    },
    {
      "inputs": [
        {
          "internalType": "bytes32",
          "name": "role",
          "type": "bytes32"
        },
        {
          "internalType": "address",
          "name": "account",
          "type": "address"
        }
      ],
      "name": "grantRole",
      "outputs": [],
      "stateMutability": "nonpayable",
      "type": "function"
    },
    {
      "inputs": [
        {
          "internalType": "bytes32",
          "name": "role",
          "type": "bytes32"
        },
        {
          "internalType": "address",
          "name": "account",
          "type": "address"
        }
      ],
      "name": "hasRole",
      "outputs": [
        {
          "internalType": "bool",
          "name": "",
          "type": "bool"
        }
      ],
      "stateMutability": "view",
      "type": "function"
    },
    {
      "inputs": [
        {
          "internalType": "address",
          "name": "target",
          "type": "address"
        },
        {
          "internalType": "uint256",
          "name": "value",
          "type": "uint256"
        },
        {
          "internalType": "bytes",
          "name": "data",
          "type": "bytes"
        },
        {
          "internalType": "bytes32",
          "name": "predecessor",
          "type": "bytes32"
        },
        {
          "internalType": "bytes32",
          "name": "salt",
          "type": "bytes32"
        }
      ],
      "name": "hashOperation",
      "outputs": [
        {
          "internalType": "bytes32",
          "name": "hash",
          "type": "bytes32"
        }
      ],
      "stateMutability": "pure",
      "type": "function"
    },
    {
      "inputs": [
        {
          "internalType": "address[]",
          "name": "targets",
          "type": "address[]"
        },
        {
          "internalType": "uint256[]",
          "name": "values",
          "type": "uint256[]"
        },
        {
          "internalType": "bytes[]",
          "name": "payloads",
          "type": "bytes[]"
        },
        {
          "internalType": "bytes32",
          "name": "predecessor",
          "type": "bytes32"
        },
        {
          "internalType": "bytes32",
          "name": "salt",
          "type": "bytes32"
        }
      ],
      "name": "hashOperationBatch",
      "outputs": [
        {
          "internalType": "bytes32",
          "name": "hash",
          "type": "bytes32"
        }
      ],
      "stateMutability": "pure",
      "type": "function"
    },
    {
      "inputs": [
        {
          "internalType": "bytes32",
          "name": "id",
          "type": "bytes32"
        }
      ],
      "name": "isOperation",
      "outputs": [
        {
          "internalType": "bool",
          "name": "registered",
          "type": "bool"
        }
      ],
      "stateMutability": "view",
      "type": "function"
    },
    {
      "inputs": [
        {
          "internalType": "bytes32",
          "name": "id",
          "type": "bytes32"
        }
      ],
      "name": "isOperationDone",
      "outputs": [
        {
          "internalType": "bool",
          "name": "done",
          "type": "bool"
        }
      ],
      "stateMutability": "view",
      "type": "function"
    },
    {
      "inputs": [
        {
          "internalType": "bytes32",
          "name": "id",
          "type": "bytes32"
        }
      ],
      "name": "isOperationPending",
      "outputs": [
        {
          "internalType": "bool",
          "name": "pending",
          "type": "bool"
        }
      ],
      "stateMutability": "view",
      "type": "function"
    },
    {
      "inputs": [
        {
          "internalType": "bytes32",
          "name": "id",
          "type": "bytes32"
        }
      ],
      "name": "isOperationReady",
      "outputs": [
        {
          "internalType": "bool",
          "name": "ready",
          "type": "bool"
        }
      ],
      "stateMutability": "view",
      "type": "function"
    },
    {
      "inputs": [
        {
          "internalType": "address",
          "name": "",
          "type": "address"
        },
        {
          "internalType": "address",
          "name": "",
          "type": "address"
        },
        {
          "internalType": "uint256[]",
          "name": "",
          "type": "uint256[]"
        },
        {
          "internalType": "uint256[]",
          "name": "",
          "type": "uint256[]"
        },
        {
          "internalType": "bytes",
          "name": "",
          "type": "bytes"
        }
      ],
      "name": "onERC1155BatchReceived",
      "outputs": [
        {
          "internalType": "bytes4",
          "name": "",
          "type": "bytes4"
        }
      ],
      "stateMutability": "nonpayable",
      "type": "function"
    },
    {
      "inputs": [
        {
          "internalType": "address",
          "name": "",
          "type": "address"
        },
        {
          "internalType": "address",
          "name": "",
          "type": "address"
        },
        {
          "internalType": "uint256",
          "name": "",
          "type": "uint256"
        },
        {
          "internalType": "uint256",
          "name": "",
          "type": "uint256"
        },
        {
          "internalType": "bytes",
          "name": "",
          "type": "bytes"
        }
      ],
      "name": "onERC1155Received",
      "outputs": [
        {
          "internalType": "bytes4",
          "name": "",
          "type": "bytes4"
        }
      ],
      "stateMutability": "nonpayable",
      "type": "function"
    },
    {
      "inputs": [
        {
          "internalType": "address",
          "name": "",
          "type": "address"
        },
        {
          "internalType": "address",
          "name": "",
          "type": "address"
        },
        {
          "internalType": "uint256",
          "name": "",
          "type": "uint256"
        },
        {
          "internalType": "bytes",
          "name": "",
          "type": "bytes"
        }
      ],
      "name": "onERC721Received",
      "outputs": [
        {
          "internalType": "bytes4",
          "name": "",
          "type": "bytes4"
        }
      ],
      "stateMutability": "nonpayable",
      "type": "function"
    },
    {
      "inputs": [
        {
          "internalType": "bytes32",
          "name": "role",
          "type": "bytes32"
        },
        {
          "internalType": "address",
          "name": "account",
          "type": "address"
        }
      ],
      "name": "renounceRole",
      "outputs": [],
      "stateMutability": "nonpayable",
      "type": "function"
    },
    {
      "inputs": [
        {
          "internalType": "bytes32",
          "name": "role",
          "type": "bytes32"
        },
        {
          "internalType": "address",
          "name": "account",
          "type": "address"
        }
      ],
      "name": "revokeRole",
      "outputs": [],
      "stateMutability": "nonpayable",
      "type": "function"
    },
    {
      "inputs": [
        {
          "internalType": "address",
          "name": "target",
          "type": "address"
        },
        {
          "internalType": "uint256",
          "name": "value",
          "type": "uint256"
        },
        {
          "internalType": "bytes",
          "name": "data",
          "type": "bytes"
        },
        {
          "internalType": "bytes32",
          "name": "predecessor",
          "type": "bytes32"
        },
        {
          "internalType": "bytes32",
          "name": "salt",
          "type": "bytes32"
        },
        {
          "internalType": "uint256",
          "name": "delay",
          "type": "uint256"
        }
      ],
      "name": "schedule",
      "outputs": [],
      "stateMutability": "nonpayable",
      "type": "function"
    },
    {
      "inputs": [
        {
          "internalType": "address[]",
          "name": "targets",
          "type": "address[]"
        },
        {
          "internalType": "uint256[]",
          "name": "values",
          "type": "uint256[]"
        },
        {
          "internalType": "bytes[]",
          "name": "payloads",
          "type": "bytes[]"
        },
        {
          "internalType": "bytes32",
          "name": "predecessor",
          "type": "bytes32"
        },
        {
          "internalType": "bytes32",
          "name": "salt",
          "type": "bytes32"
        },
        {
          "internalType": "uint256",
          "name": "delay",
          "type": "uint256"
        }
      ],
      "name": "scheduleBatch",
      "outputs": [],
      "stateMutability": "nonpayable",
      "type": "function"
    },
    {
      "inputs": [
        {
          "internalType": "bytes4",
          "name": "interfaceId",
          "type": "bytes4"
        }
      ],
      "name": "supportsInterface",
      "outputs": [
        {
          "internalType": "bool",
          "name": "",
          "type": "bool"
        }
      ],
      "stateMutability": "view",
      "type": "function"
    },
    {
      "inputs": [
        {
          "internalType": "uint256",
          "name": "newDelay",
          "type": "uint256"
        }
      ],
      "name": "updateDelay",
      "outputs": [],
      "stateMutability": "nonpayable",
      "type": "function"
    },
    {
      "stateMutability": "payable",
      "type": "receive"
    }
  ],
  "bytecode": "0x60a06040523480156200001157600080fd5b506040516200249e3803806200249e83398101604081905262000034916200042b565b84848484620000536000805160206200241e8339815191528062000242565b6200007d6000805160206200243e8339815191526000805160206200241e83398151915262000242565b620000a76000805160206200245e8339815191526000805160206200241e83398151915262000242565b620000d16000805160206200247e8339815191526000805160206200241e83398151915262000242565b620000ec6000805160206200241e833981519152306200028d565b6001600160a01b038116156200011757620001176000805160206200241e833981519152826200028d565b60005b83518110156200019d57620001616000805160206200243e8339815191528583815181106200014d576200014d620004cc565b60200260200101516200028d60201b60201c565b6200018a6000805160206200247e8339815191528583815181106200014d576200014d620004cc565b6200019581620004e2565b90506200011a565b5060005b8251811015620001e757620001d46000805160206200245e8339815191528483815181106200014d576200014d620004cc565b620001df81620004e2565b9050620001a1565b5060028490556040805160008152602081018690527f11c24f4ead16507c69ac467fbd5e4eed5fb5c699626d2cc6d66421df253886d5910160405180910390a1505050506001600160a01b0316608052506200050a92505050565b600082815260208190526040808220600101805490849055905190918391839186917fbd79b86ffe0ab8e8776151514217cd7cacd52c909f66475c3af44e129f0b00ff9190a4505050565b6200029982826200029d565b5050565b6000828152602081815260408083206001600160a01b038516845290915290205460ff1662000299576000828152602081815260408083206001600160a01b03851684529091529020805460ff19166001179055620002f93390565b6001600160a01b0316816001600160a01b0316837f2f8788117e7eff1d82e926ec794901d17c78024a50270940304540a733656f0d60405160405180910390a45050565b634e487b7160e01b600052604160045260246000fd5b6001600160a01b03811681146200036957600080fd5b50565b8051620003798162000353565b919050565b600082601f8301126200039057600080fd5b815160206001600160401b0380831115620003af57620003af6200033d565b8260051b604051601f19603f83011681018181108482111715620003d757620003d76200033d565b604052938452858101830193838101925087851115620003f657600080fd5b83870191505b84821015620004205762000410826200036c565b83529183019190830190620003fc565b979650505050505050565b600080600080600060a086880312156200044457600080fd5b855160208701519095506001600160401b03808211156200046457600080fd5b6200047289838a016200037e565b955060408801519150808211156200048957600080fd5b5062000498888289016200037e565b9350506060860151620004ab8162000353565b6080870151909250620004be8162000353565b809150509295509295909350565b634e487b7160e01b600052603260045260246000fd5b6000600182016200050357634e487b7160e01b600052601160045260246000fd5b5060010190565b608051611eea62000534600039600081816103e901528181610def0152610e220152611eea6000f3fe6080604052600436106101c65760003560e01c806364d62353116100f7578063b1c5f42711610095578063d547741f11610064578063d547741f146105d9578063e38335e5146105f9578063f23a6e611461060c578063f27a0c921461063857600080fd5b8063b1c5f42714610540578063bc197c8114610560578063c4d252f51461058c578063d45c4435146105ac57600080fd5b80638f61f4f5116100d15780638f61f4f5146104a357806391d14854146104d7578063a217fddf146104f7578063b08e51c01461050c57600080fd5b806364d62353146104435780638065657f146104635780638f2a0bb01461048357600080fd5b8063248a9ca31161016457806331d507501161013e57806331d507501461039757806336568abe146103b75780633951b92f146103d7578063584b153e1461042357600080fd5b8063248a9ca3146103165780632ab0f529146103465780632f2ff15d1461037757600080fd5b80630d3cf6fc116101a05780630d3cf6fc1461026b578063134008d31461029f57806313bc9f20146102b2578063150b7a02146102d257600080fd5b806301d5062a146101d257806301ffc9a7146101f457806307bd02651461022957600080fd5b366101cd57005b600080fd5b3480156101de57600080fd5b506101f26101ed3660046114e5565b61064d565b005b34801561020057600080fd5b5061021461020f366004611559565b6106e2565b60405190151581526020015b60405180910390f35b34801561023557600080fd5b5061025d7fd8aa0f3194971a2a116679f7c2090f6939c8d4e01a2a8d7e41d55e5351469e6381565b604051908152602001610220565b34801561027757600080fd5b5061025d7f5f58e3a2316349923ce3780f8d587db2d72378aed66a8261c916544fa6846ca581565b6101f26102ad366004611583565b61070d565b3480156102be57600080fd5b506102146102cd3660046115ee565b6107c2565b3480156102de57600080fd5b506102fd6102ed3660046116bc565b630a85bd0160e11b949350505050565b6040516001600160e01b03199091168152602001610220565b34801561032257600080fd5b5061025d6103313660046115ee565b60009081526020819052604090206001015490565b34801561035257600080fd5b506102146103613660046115ee565b6000908152600160208190526040909120541490565b34801561038357600080fd5b506101f2610392366004611723565b6107e8565b3480156103a357600080fd5b506102146103b23660046115ee565b610812565b3480156103c357600080fd5b506101f26103d2366004611723565b61082b565b3480156103e357600080fd5b5061040b7f000000000000000000000000000000000000000000000000000000000000000081565b6040516001600160a01b039091168152602001610220565b34801561042f57600080fd5b5061021461043e3660046115ee565b6108ae565b34801561044f57600080fd5b506101f261045e3660046115ee565b6108c4565b34801561046f57600080fd5b5061025d61047e366004611583565b610968565b34801561048f57600080fd5b506101f261049e366004611793565b6109a7565b3480156104af57600080fd5b5061025d7fb09aa5aeb3702cfd50b6b62bc4532604938f21248a27a1d5ca736082b6819cc181565b3480156104e357600080fd5b506102146104f2366004611723565b610af9565b34801561050357600080fd5b5061025d600081565b34801561051857600080fd5b5061025d7ffd643c72710c63c0180259aba6b2d05451e3591a24e58b62239378085726f78381565b34801561054c57600080fd5b5061025d61055b366004611844565b610b22565b34801561056c57600080fd5b506102fd61057b36600461196b565b63bc197c8160e01b95945050505050565b34801561059857600080fd5b506101f26105a73660046115ee565b610b67565b3480156105b857600080fd5b5061025d6105c73660046115ee565b60009081526001602052604090205490565b3480156105e557600080fd5b506101f26105f4366004611723565b610c3c565b6101f2610607366004611844565b610c61565b34801561061857600080fd5b506102fd610627366004611a14565b63f23a6e6160e01b95945050505050565b34801561064457600080fd5b5061025d610deb565b7fb09aa5aeb3702cfd50b6b62bc4532604938f21248a27a1d5ca736082b6819cc161067781610eb4565b6000610687898989898989610968565b90506106938184610ec1565b6000817f4cf4410cc57040e44862ef0f45f3dd5a5e02db8eb8add648d4b0e236f1d07dca8b8b8b8b8b8a6040516106cf96959493929190611aa1565b60405180910390a3505050505050505050565b60006001600160e01b03198216630271189760e51b1480610707575061070782610fb5565b92915050565b7fd8aa0f3194971a2a116679f7c2090f6939c8d4e01a2a8d7e41d55e5351469e63610739816000610af9565b610747576107478133610fea565b6000610757888888888888610968565b90506107638185611043565b61076f888888886110df565b6000817fc2617efa69bab66782fa219543714338489c4e9e178271560a91b82c3f612b588a8a8a8a6040516107a79493929190611ade565b60405180910390a36107b8816111b2565b5050505050505050565b6000818152600160205260408120546001811180156107e15750428111155b9392505050565b60008281526020819052604090206001015461080381610eb4565b61080d83836111eb565b505050565b60008181526001602052604081205481905b1192915050565b6001600160a01b03811633146108a05760405162461bcd60e51b815260206004820152602f60248201527f416363657373436f6e74726f6c3a2063616e206f6e6c792072656e6f756e636560448201526e103937b632b9903337b91039b2b63360891b60648201526084015b60405180910390fd5b6108aa828261126f565b5050565b6000818152600160208190526040822054610824565b3330146109275760405162461bcd60e51b815260206004820152602b60248201527f54696d656c6f636b436f6e74726f6c6c65723a2063616c6c6572206d7573742060448201526a62652074696d656c6f636b60a81b6064820152608401610897565b60025460408051918252602082018390527f11c24f4ead16507c69ac467fbd5e4eed5fb5c699626d2cc6d66421df253886d5910160405180910390a1600255565b600086868686868660405160200161098596959493929190611aa1565b6040516020818303038152906040528051906020012090509695505050505050565b7fb09aa5aeb3702cfd50b6b62bc4532604938f21248a27a1d5ca736082b6819cc16109d181610eb4565b8887146109f05760405162461bcd60e51b815260040161089790611b10565b888514610a0f5760405162461bcd60e51b815260040161089790611b10565b6000610a218b8b8b8b8b8b8b8b610b22565b9050610a2d8184610ec1565b60005b8a811015610aeb5780827f4cf4410cc57040e44862ef0f45f3dd5a5e02db8eb8add648d4b0e236f1d07dca8e8e85818110610a6d57610a6d611b53565b9050602002016020810190610a829190611b69565b8d8d86818110610a9457610a94611b53565b905060200201358c8c87818110610aad57610aad611b53565b9050602002810190610abf9190611b84565b8c8b604051610ad396959493929190611aa1565b60405180910390a3610ae481611be0565b9050610a30565b505050505050505050505050565b6000918252602082815260408084206001600160a01b0393909316845291905290205460ff1690565b60008888888888888888604051602001610b43989796959493929190611c8a565b60405160208183030381529060405280519060200120905098975050505050505050565b7ffd643c72710c63c0180259aba6b2d05451e3591a24e58b62239378085726f783610b9181610eb4565b610b9a826108ae565b610c005760405162461bcd60e51b815260206004820152603160248201527f54696d656c6f636b436f6e74726f6c6c65723a206f7065726174696f6e2063616044820152701b9b9bdd0818994818d85b98d95b1b1959607a1b6064820152608401610897565b6000828152600160205260408082208290555183917fbaa1eb22f2a492ba1a5fea61b8df4d27c6c8b5f3971e63bb58fa14ff72eedb7091a25050565b600082815260208190526040902060010154610c5781610eb4565b61080d838361126f565b7fd8aa0f3194971a2a116679f7c2090f6939c8d4e01a2a8d7e41d55e5351469e63610c8d816000610af9565b610c9b57610c9b8133610fea565b878614610cba5760405162461bcd60e51b815260040161089790611b10565b878414610cd95760405162461bcd60e51b815260040161089790611b10565b6000610ceb8a8a8a8a8a8a8a8a610b22565b9050610cf78185611043565b60005b89811015610dd55760008b8b83818110610d1657610d16611b53565b9050602002016020810190610d2b9190611b69565b905060008a8a84818110610d4157610d41611b53565b9050602002013590503660008a8a86818110610d5f57610d5f611b53565b9050602002810190610d719190611b84565b91509150610d81848484846110df565b84867fc2617efa69bab66782fa219543714338489c4e9e178271560a91b82c3f612b5886868686604051610db89493929190611ade565b60405180910390a35050505080610dce90611be0565b9050610cfa565b50610ddf816111b2565b50505050505050505050565b60007f00000000000000000000000000000000000000000000000000000000000000006001600160a01b031615801590610ea257507f00000000000000000000000000000000000000000000000000000000000000006001600160a01b03166315064c966040518163ffffffff1660e01b8152600401602060405180830381865afa158015610e7e573d6000803e3d6000fd5b505050506040513d601f19601f82011682018060405250810190610ea29190611d2b565b15610ead5750600090565b5060025490565b610ebe8133610fea565b50565b610eca82610812565b15610f2f5760405162461bcd60e51b815260206004820152602f60248201527f54696d656c6f636b436f6e74726f6c6c65723a206f7065726174696f6e20616c60448201526e1c9958591e481cd8da19591d5b1959608a1b6064820152608401610897565b610f37610deb565b811015610f955760405162461bcd60e51b815260206004820152602660248201527f54696d656c6f636b436f6e74726f6c6c65723a20696e73756666696369656e746044820152652064656c617960d01b6064820152608401610897565b610f9f8142611d4d565b6000928352600160205260409092209190915550565b60006001600160e01b03198216637965db0b60e01b148061070757506301ffc9a760e01b6001600160e01b0319831614610707565b610ff48282610af9565b6108aa57611001816112d4565b61100c8360206112e6565b60405160200161101d929190611d84565b60408051601f198184030181529082905262461bcd60e51b825261089791600401611df9565b61104c826107c2565b6110685760405162461bcd60e51b815260040161089790611e2c565b8015806110845750600081815260016020819052604090912054145b6108aa5760405162461bcd60e51b815260206004820152602660248201527f54696d656c6f636b436f6e74726f6c6c65723a206d697373696e6720646570656044820152656e64656e637960d01b6064820152608401610897565b6000846001600160a01b03168484846040516110fc929190611e76565b60006040518083038185875af1925050503d8060008114611139576040519150601f19603f3d011682016040523d82523d6000602084013e61113e565b606091505b50509050806111ab5760405162461bcd60e51b815260206004820152603360248201527f54696d656c6f636b436f6e74726f6c6c65723a20756e6465726c79696e6720746044820152721c985b9cd858dd1a5bdb881c995d995c9d1959606a1b6064820152608401610897565b5050505050565b6111bb816107c2565b6111d75760405162461bcd60e51b815260040161089790611e2c565b600090815260016020819052604090912055565b6111f58282610af9565b6108aa576000828152602081815260408083206001600160a01b03851684529091529020805460ff1916600117905561122b3390565b6001600160a01b0316816001600160a01b0316837f2f8788117e7eff1d82e926ec794901d17c78024a50270940304540a733656f0d60405160405180910390a45050565b6112798282610af9565b156108aa576000828152602081815260408083206001600160a01b0385168085529252808320805460ff1916905551339285917ff6391f5c32d9c69d2a47ea670b442974b53935d1edc7fd64eb21e047a839171b9190a45050565b60606107076001600160a01b03831660145b606060006112f5836002611e86565b611300906002611d4d565b6001600160401b0381111561131757611317611607565b6040519080825280601f01601f191660200182016040528015611341576020820181803683370190505b509050600360fc1b8160008151811061135c5761135c611b53565b60200101906001600160f81b031916908160001a905350600f60fb1b8160018151811061138b5761138b611b53565b60200101906001600160f81b031916908160001a90535060006113af846002611e86565b6113ba906001611d4d565b90505b6001811115611432576f181899199a1a9b1b9c1cb0b131b232b360811b85600f16601081106113ee576113ee611b53565b1a60f81b82828151811061140457611404611b53565b60200101906001600160f81b031916908160001a90535060049490941c9361142b81611e9d565b90506113bd565b5083156107e15760405162461bcd60e51b815260206004820181905260248201527f537472696e67733a20686578206c656e67746820696e73756666696369656e746044820152606401610897565b80356001600160a01b038116811461149857600080fd5b919050565b60008083601f8401126114af57600080fd5b5081356001600160401b038111156114c657600080fd5b6020830191508360208285010111156114de57600080fd5b9250929050565b600080600080600080600060c0888a03121561150057600080fd5b61150988611481565b96506020880135955060408801356001600160401b0381111561152b57600080fd5b6115378a828b0161149d565b989b979a50986060810135976080820135975060a09091013595509350505050565b60006020828403121561156b57600080fd5b81356001600160e01b0319811681146107e157600080fd5b60008060008060008060a0878903121561159c57600080fd5b6115a587611481565b95506020870135945060408701356001600160401b038111156115c757600080fd5b6115d389828a0161149d565b979a9699509760608101359660809091013595509350505050565b60006020828403121561160057600080fd5b5035919050565b634e487b7160e01b600052604160045260246000fd5b604051601f8201601f191681016001600160401b038111828210171561164557611645611607565b604052919050565b600082601f83011261165e57600080fd5b81356001600160401b0381111561167757611677611607565b61168a601f8201601f191660200161161d565b81815284602083860101111561169f57600080fd5b816020850160208301376000918101602001919091529392505050565b600080600080608085870312156116d257600080fd5b6116db85611481565b93506116e960208601611481565b92506040850135915060608501356001600160401b0381111561170b57600080fd5b6117178782880161164d565b91505092959194509250565b6000806040838503121561173657600080fd5b8235915061174660208401611481565b90509250929050565b60008083601f84011261176157600080fd5b5081356001600160401b0381111561177857600080fd5b6020830191508360208260051b85010111156114de57600080fd5b600080600080600080600080600060c08a8c0312156117b157600080fd5b89356001600160401b03808211156117c857600080fd5b6117d48d838e0161174f565b909b50995060208c01359150808211156117ed57600080fd5b6117f98d838e0161174f565b909950975060408c013591508082111561181257600080fd5b5061181f8c828d0161174f565b9a9d999c50979a969997986060880135976080810135975060a0013595509350505050565b60008060008060008060008060a0898b03121561186057600080fd5b88356001600160401b038082111561187757600080fd5b6118838c838d0161174f565b909a50985060208b013591508082111561189c57600080fd5b6118a88c838d0161174f565b909850965060408b01359150808211156118c157600080fd5b506118ce8b828c0161174f565b999c989b509699959896976060870135966080013595509350505050565b600082601f8301126118fd57600080fd5b813560206001600160401b0382111561191857611918611607565b8160051b61192782820161161d565b928352848101820192828101908785111561194157600080fd5b83870192505b8483101561196057823582529183019190830190611947565b979650505050505050565b600080600080600060a0868803121561198357600080fd5b61198c86611481565b945061199a60208701611481565b935060408601356001600160401b03808211156119b657600080fd5b6119c289838a016118ec565b945060608801359150808211156119d857600080fd5b6119e489838a016118ec565b935060808801359150808211156119fa57600080fd5b50611a078882890161164d565b9150509295509295909350565b600080600080600060a08688031215611a2c57600080fd5b611a3586611481565b9450611a4360208701611481565b9350604086013592506060860135915060808601356001600160401b03811115611a6c57600080fd5b611a078882890161164d565b81835281816020850137506000828201602090810191909152601f909101601f19169091010190565b60018060a01b038716815285602082015260a060408201526000611ac960a083018688611a78565b60608301949094525060800152949350505050565b60018060a01b0385168152836020820152606060408201526000611b06606083018486611a78565b9695505050505050565b60208082526023908201527f54696d656c6f636b436f6e74726f6c6c65723a206c656e677468206d69736d616040820152620e8c6d60eb1b606082015260800190565b634e487b7160e01b600052603260045260246000fd5b600060208284031215611b7b57600080fd5b6107e182611481565b6000808335601e19843603018112611b9b57600080fd5b8301803591506001600160401b03821115611bb557600080fd5b6020019150368190038213156114de57600080fd5b634e487b7160e01b600052601160045260246000fd5b600060018201611bf257611bf2611bca565b5060010190565b81835260006020808501808196508560051b810191508460005b87811015611c7d5782840389528135601e19883603018112611c3457600080fd5b870185810190356001600160401b03811115611c4f57600080fd5b803603821315611c5e57600080fd5b611c69868284611a78565b9a87019a9550505090840190600101611c13565b5091979650505050505050565b60a0808252810188905260008960c08301825b8b811015611ccb576001600160a01b03611cb684611481565b16825260209283019290910190600101611c9d565b5083810360208501528881526001600160fb1b03891115611ceb57600080fd5b8860051b9150818a60208301370182810360209081016040850152611d139082018789611bf9565b60608401959095525050608001529695505050505050565b600060208284031215611d3d57600080fd5b815180151581146107e157600080fd5b8082018082111561070757610707611bca565b60005b83811015611d7b578181015183820152602001611d63565b50506000910152565b7f416363657373436f6e74726f6c3a206163636f756e7420000000000000000000815260008351611dbc816017850160208801611d60565b7001034b99036b4b9b9b4b733903937b6329607d1b6017918401918201528351611ded816028840160208801611d60565b01602801949350505050565b6020815260008251806020840152611e18816040850160208701611d60565b601f01601f19169190910160400192915050565b6020808252602a908201527f54696d656c6f636b436f6e74726f6c6c65723a206f7065726174696f6e206973604082015269206e6f7420726561647960b01b606082015260800190565b8183823760009101908152919050565b808202811582820484141761070757610707611bca565b600081611eac57611eac611bca565b50600019019056fea26469706673582212201a95e6c3e8d3e5c8d3af1bedf7e11b81f251a7501bcedc46f629f8145112fc4064736f6c634300081400335f58e3a2316349923ce3780f8d587db2d72378aed66a8261c916544fa6846ca5b09aa5aeb3702cfd50b6b62bc4532604938f21248a27a1d5ca736082b6819cc1d8aa0f3194971a2a116679f7c2090f6939c8d4e01a2a8d7e41d55e5351469e63fd643c72710c63c0180259aba6b2d05451e3591a24e58b62239378085726f783",
  "linkReferences": {},
  "deployedLinkReferences": {}
}